:1000000000400020E51B0000251C0000271C00000C
:1000100000000000000000000000000000000000E0
:10002000000000000000000000000000291C00008B
:1000300000000000000000002B1C00002D1C000030
:10004000C5170000853900002F1C00002F1C000080
:100050002F1C000000000000751600002F1C00007F
:100060002F1C00002F1C0000114900009D190000EA
:100070002F1C00002F1C00002F1C00002F1C000054
:100080002F1C0000C11A00002F1C00002F1C0000B4
:10009000DD3C00002F1C00002F1C00002F1C000066
:1000A0002F1C00002F1C00000000000000000000BA
:1000B0000000000000000000000000000000000040
:1000C000054B0648033310B51B1A062B03D9044B06
:1000D000002B00D0984710BDBC000020BC000020C1
:1000E000000000000648074910B5091A8910CB0F17
:1000F0005918491003D0044B002B00D0984710BD6D
:10010000BC000020BC0000200000000010B5074C1F
:100110002378002B09D1FFF7D3FF054B002B02D02A
:10012000044800E000BF0123237010BDC000002080
:1001300000000000F4670000094B10B5002B03D04D
:100140000849094800E000BF08480368002B02D1B5
:10015000FFF7C8FF10BD064B002BF9D09847F7E713
:1001600000000000C4000020F4670000B800002078
:1001700000000000144B002B00D1124B9D46402282
:1001800092029A1A924600218B460F461148124A53
:10019000121A00F081F80D4B002B00D098470C4B41
:1001A000002B00D098470020002104000D000B48D0
:1001B00000F016F800F04CF82000290001F0B8F823
:1001C00000F016F8000008000040002000000000C9
:1001D00000000000C0000020CC0500201D0200002F
:1001E00010B5010000230022002000F09FF810BD90
:1001F000084B10B50400002B02D0002100F00EF9CE
:10020000054B1868836A002B00D09847200000F047
:1002100099F9C0461D0400009C66000070B5094BAA
:10022000094CE41AA41009D0084AA518AD00ED182D
:100230002B68013C9847043D002CF9D106F028FAC0
:1002400070BDC046B4000020B8000020FFFFFF3F93
:1002500070B50D4E0D4D0024AD1BAD1005D0A300A3
:10026000F35801349847A542F9D106F00BFA084E2D
:10027000084D0024AD1BAD1005D0A300F358013488
:100280009847A542F9D170BDB0000020B000002011
:10029000B0000020B4000020F0B5830743D0541E06
:1002A000002A3FD0CEB20200032502E01A00013C32
:1002B00038D3531C16702B42F8D1032C2AD9FF22B5
:1002C0000A40150215432A0415430F2C14D92700A0
:1002D0001A00103F3E09013636019E19156055601F
:1002E0009560D56010329642F8D10F2297431037AF
:1002F000DB191440032C0DD91A00271FBE08013644
:10030000B6009E1920C2B242FCD1032297430437A3
:10031000DB191440002C05D0C9B21C191970013327
:100320009C42FBD1F0BD14000300C6E7F0B5474680
:10033000CE4680B5354E83B0346805000F00914637
:100340009846002C40D063681F2B12DD304B002BE9
:1003500059D08C2006F076F8041E54D03268002361
:1003600002608822436030608350002D3AD1873A82
:1003700019E0002D15D08822A05800282FD07832FF
:10038000865849469A0082181160012199400E430F
:100390008946802149004650802641469151022DD0
:1003A0000BD01D005A1C00200235AD0062602F5199
:1003B00003B00CBC90469946F0BD82224D465200D7
:1003C00081580D438550ECE7124C134B3460002BE1
:1003D000B9D01B6801938823019AE250B3E70C4B14
:1003E000002B10D08420400006F02CF800280AD002
:1003F0008022002352008350043283508833E0501F
:1004000000266368BDE701204042D1E76801002073
:1004100045640000DC00002000000000F0B5DE466E
:10042000454657464E46E0B5444B85B01B680390A1
:100430008B469846002B4FD0404B5F46994642462C
:1004400088235568D3589A466C1E54D48023AD0037
:1004500056195B00043D55449B460BE05346002B68
:1004600004D02B0080331B689F4205D0043E043D1E
:10047000013C40D3002FF1D143465B687268013BD9
:10048000A34232D000237360002AEFD043465B685A
:1004900001935346002B26D0012351465846A340D2
:1004A000095819421FD08220514640000958029134
:1004B00019421DD12968039890474346019A5B6809
:1004C0009A4203D14B461B684345CFD01B4BBB46DA
:1004D0001B689846002BAFD105B03CBC90469946AE
:1004E000A246AB46F0BD9047E7E743465C60CBE7EA
:1004F00028689047E1E7124B002BEDD043465B683C
:10050000002B16D143461B68002BE5D04A461360EA
:100510005346002B02D0504605F09EFF404605F0A2
:100520009BFF4B461B6898464346002B00D086E74E
:10053000D2E743461B68C1469846F5E768010020AC
:1005400059640000FEE7C0462E4B1B78012B00D0FB
:1005500070472D4B1B681B07FAD1F0222B4B1B68F1
:10056000134027D12A4B1B6813422BD0264B1B6804
:100570001B07EDD1F022254B1B681340402B2DD0DB
:10058000F022224B1B681340A02B01D0D02BDFD1CF
:10059000F0231F4A12681A42DAD11E4A1368012B4F
:1005A00004D01D4B13601368012BFCD1C0221B4BE0
:1005B0001A60CDE7102B01D0302BDBD1144B1B6818
:1005C0001342D7D1164A174B1A608022164B1202DB
:1005D0001A600C4B1B78012BC8D0B9E70C4B1B6879
:1005E0001342CDD1C12380220121DB00D205D1509D
:1005F000044B1B78012BABD1034B1B681B07BFD0EF
:10060000A6E7C046E00F00F0E40F00F0E80F00F0AE
:10061000EC0F00F000EC06407593000014EC06406F
:10062000DFFF07C004050040186C00407047C0465B
:10063000F8B5DE4657464E464546E0B573490B7859
:10064000DBB2002B22D0A223A022DB00D205D2589D
:100650006F4B1C686F4B93439C4238D000230B7048
:10066000A223A022DB00D205D2586A4B934323D1A8
:10067000694A136801331360FA22520093421FD86B
:100680003CBC90469946A246AB46F8BDA024A220A9
:10069000604AE4051600C0002558AE4335005F4EA1
:1006A0003668AE42DCD020588243594802600122AD
:1006B0000A705B4A1360D3E70022574B1A60DFE7EA
:1006C000584801F04DF9584801F04AF9D8E7544A22
:1006D000136801331360052BC2D1504B22001C60FC
:1006E000B0235B021A409A4200D180E000224F4BB7
:1006F0001A6062B27F231100994388466107C90FCF
:100700008946E706FF0FBB019C46A306DB0F5B0093
:100710009B46474B41469A464B461943884661469D
:1007200043466700FF0F19437F015B460F43514665
:10073000E601F60FE5003601ED0FE005ED00C00F14
:100740003E4380003543284303430B700023984603
:10075000A30702D580235B429846A300DB0F9E01CE
:10076000082313409C460123210C1F000B406146C7
:100770000B43414619430B00A505ED0F60066D01C3
:10078000C00F334300012740A2022B43BF00D20F0A
:10079000034352003B43134352465370A30423D5F3
:1007A000402380225B425242610400D51A00630557
:1007B000DB0F5B0113432204D20F12015BB2134320
:1007C000A203D20FD20013436203D20F240392007C
:1007D000E40F134364001C43534603225146002098
:1007E0009C7001F048FA3BE740230022DCE70F4D04
:1007F0002B68002B00D07CE70E4E0B2130780130A7
:1008000004F036FA012331702B6072E79801002062
:10081000A4010020FFE72F718C010020A00100201F
:10082000940100202C670000246700009C01002038
:1008300090010020B2010020F0B5C64600B5104D71
:100840002C78002C19D08022002394460F270026F4
:100850000C4948889AB290420CD9644648685A00BC
:10086000D218801844704868875448682C788046AD
:10087000424496700133A342EBDB04BC9046F0BDCA
:100880006500002028020020F0B5C64600B5104DD6
:100890002C78002C19D02022002394460027802693
:1008A0000C4948889AB290420CD9644648685A006C
:1008B000D218801844704868875448682C7880465D
:1008C000424496700133A342EBDB04BC9046F0BD7A
:1008D0006500002028020020F0B50E4E3478002C70
:1008E00016D00023002720250B4948889AB2904251
:1008F0000BD948685A00D218801847704868855448
:10090000486834788446624495700133A342ECDB36
:10091000F0BDC0466500002028020020F0B50E4E54
:100920003478002C16D00023002520270B49488856
:100930009AB290420BD948685A00D2188018457074
:100940004868875448683478844662449570013317
:10095000A342ECDBF0BDC046650000202802002069
:10096000F0B50E4E3478002C16D000232027002539
:100970000B4948889AB290420BD948685A00D2185D
:1009800080184770486885544868347884466244C3
:1009900095700133A342ECDBF0BDC046650000203A
:1009A00028020020F0B50E4E3478002C16D000231B
:1009B000002520270B4948889AB290420BD94868F5
:1009C0005A00D218801845704868855448683478B1
:1009D0008446624497700133A342ECDBF0BDC0460D
:1009E000650000202802002070B50D4E3478002CE0
:1009F00015D0002340250B4948889AB290420BD964
:100A000048685A00D218801845704868855448686C
:100A100034788446624495700133A342ECDB70BDA8
:100A20006500002028020020F0B5DE464546574606
:100A30004E46E0B53D4B3E4A85B0D05805F010FB20
:100A40003C4A3D4B04F042FA04F062F9802292469F
:100A50003A4D4008AA445246C3B202929A009A1AEA
:100A6000023AD2B291465A009A180132DB43D2B20E
:100A70009046DBB203932E00203603994446484645
:100A800001963AE0A92941D9431CDBB21B049C46DC
:100A90006246631EDBB21B0213432A68013A22D36B
:100AA000274E7688B34696B2B3451CD91204120C71
:100AB0005600B446160066443700214A1E0CB34661
:100AC0005668BA46B446D44466465A4672701A0A04
:100AD000944666461A4A5268D655194A5268944650
:100AE0003A0062449370019B2039603860340435C9
:100AF000C9B2C0B2E4B2AB420BD05429C2D8631C15
:100B0000DBB2421E1B04D2B21343C6E703022343E7
:100B1000C3E71E001D00029BB342ACD105B03CBC34
:100B200090469946A246AB46F0BDC046040500007B
:100B300000100140FCA9F1D24D62F03FA466000014
:100B400028020020F0B5C64600B5404B404AD058B8
:100B500005F086FA3F4A404B04F0B8F904F0D8F8A3
:100B60003E4C2578002D3AD00A2103F09BFFC1436B
:100B7000C9B20A005632D2B250001018C0B2930067
:100B8000471ED31AFFB2DBB23F025E1E1F43013382
:100B90000204F6B2DBB2023836021B04C0B21643BE
:100BA0001843542938D9A9291CD90022330C9C4652
:100BB000370A2B4BFFB2588891B288420CD9654650
:100BC000586851008918401845705868475458684B
:100BD0002578804641448E700132AA42EBDB04BC8A
:100BE0009046F0BD002200263B0A9C461C4B5888CC
:100BF00091B288420CD9654658685100891840184E
:100C000046705868455458682578804641448F702E
:100C10000132AA42EBDBE2E700270022030C9C46EC
:100C20000F4B5E8891B28E420CD966465D685100CA
:100C300089186D186E705D686F545D68A8462578D8
:100C40004144887001329542EBDCC8E7040500009E
:100C500000100140FCA9F1D24D62F03F6500002078
:100C600028020020F8B51C4B1C4A1D781C4BD0589C
:100C700005F0F6F91B4A1C4B04F028F904F048F87B
:100C8000E1220023D20003F0F9FF100019002A002E
:100C9000002304F013F8E1220023D20003F0EEFF5A
:100CA000002D18D000230027104CC21A564256417E
:100CB0007201668899B28E420AD966685900C918CD
:100CC00076187270626857546268944661448F70F7
:100CD00001339D42E9DCF8BD6500002000100140B1
:100CE00004050000FCA9F1D24D62F03F280200206B
:100CF000F8B557464E464546DE46E0B5424B7F22A4
:100D00001B6858B20100914388465907C90F8946AC
:100D1000DF06FF0FBA0194469A06D20F520093469F
:100D20003A4A414692464A461143884661464246FF
:100D30005F00FF0F11437F015A460F435146DE010A
:100D4000F60FDD003601ED0FDC05ED00E40F3E434C
:100D5000A40035432C4322430A70002290469A0790
:100D600002D58022524290469A00D20F9601082264
:100D7000024094460122190C17000A4061460A43BA
:100D8000414611430A0051469D05ED0F5C066D0179
:100D9000E40F324324011F4098022A43BF00C00FD2
:100DA000224340003A4302434A709A0428D5402225
:100DB000802052424042590400D510005A05D20FFB
:100DC000520102431804C00F000152B202439803BB
:100DD000C00FC00002435803C00F1B038000DB0F8D
:100DE00002435B0013435246514693700020032296
:100DF00000F041FF3CBC90469946A246AB46F8BD88
:100E000040220020D7E7C046A0010020900100202A
:100E1000F0B54E46DE46574645460123E0B502781A
:100E20007B4C9340A022D205060083B013513220A0
:100E30000138C046C046C046C046C046C046C0464F
:100E4000C046C046C046C046C046F1D100207188A9
:100E50008446002974D020004024A121A346C90063
:100E600010276446BA46083FB946043F6500B846B5
:100E70000024654401957768019D3F197F5D5350BB
:100E80007F2F00D872E05350535013507768019D64
:100E90003F197F5D5D4653503D4200D173E0535092
:100EA0005350135075682F19019D7F5D20255350B5
:100EB0003D4200D174E053505350135075682F19C0
:100EC000019D7F5D554653503D4200D175E0535022
:100ED0005350135075682F19019D7F5D4D46535037
:100EE0003D4200D176E053505350135075682F198E
:100EF000019D7F5D454653503D4200D177E0535000
:100F00005350135075682F19019D7F5D5350BD07D5
:100F100000D478E053505350135075682F19019D39
:100F20007F5D5350FD0712D5013453505350135079
:100F3000032CA0D10124A0467488C44464458FDCEE
:100F400003B03CBC90469946A246AB46F0BD013486
:100F50001350135013501350032CEBD07768019D9E
:100F60003F197F5D53507F2F00D98CE713501350EA
:100F7000135013507768019D3F197F5D5D465350B4
:100F80003D4200D08BE71350135013501350756837
:100F90002F19019D7F5D202553503D4200D08AE7E7
:100FA000135013501350135075682F19019D7F5D16
:100FB000554653503D4200D089E71350135013500B
:100FC000135075682F19019D7F5D4D4653503D426A
:100FD00000D088E7135013501350135075682F1921
:100FE000019D7F5D454653503D4200D087E7135039
:100FF00013501350135075682F19019D7F5D535086
:10100000BD0700D586E7135013501350135084E7E3
:101010000C05000070B5984C6388002B00D061E08F
:101020006388022B00D972E06388032B00D979E032
:101030006388042B00D97EE06388052B00D983E008
:101040006388062B00D988E06388072B00D98DE0E0
:101050006388082B00D992E06388092B00D997E0B8
:1010600063880A2B00D99CE072B6844D20002E784C
:10107000FFF7CEFE002E00D162B663880B2B00D99D
:10108000F1E063880C2B00D9E4E063880D2B00D9D4
:10109000D7E063880E2B00D9CAE063880F2B00D9F4
:1010A000BDE06388102B00D9B0E06388112B00D914
:1010B000A3E06388122B00D996E06388132B00D934
:1010C00089E06388142B00D97CE06388152B00D954
:1010D0006FE072B62D782000FFF79AFE002D00D148
:1010E00062B670BD002362685370626813706268F4
:1010F00093706288012A00D892E76268137162686F
:10110000D370626853716388022B00D88CE7002289
:101110006368DA7163689A7163681A726388032B73
:1011200000D885E7002361688B724B72CB726388AD
:10113000042B00D880E7002263685A731A739A73ED
:101140006388052B00D87BE7002361680B74CB73A1
:101150004B746388062B00D876E700236168CB7454
:101160008B740B756388072B00D871E700236168C7
:101170008B754B75CB756388082B00D86CE7002204
:1011800063685A761A769A766388092B00D867E7DF
:10119000002361680B77CB764B7763880A2B00D8E6
:1011A00062E7616800230A001E32CB778B77937069
:1011B0005AE7616800230A003F203F3253700B5406
:1011C000937086E7616800230A003C203C3253702C
:1011D0000B54937079E7616800230A003920393293
:1011E00053700B5493706CE7616800230A0036203B
:1011F000363253700B5493705FE7616800230A0026
:101200003320333253700B54937052E761680023DC
:101210000A003020303253700B54937045E76168F8
:1012200000230A002D202D3253700B54937038E7A1
:10123000616800230A002A202A3253700B549370ED
:101240002BE7616800230A002720273253700B54D4
:1012500093701EE7616800230A0024202432537033
:101260000B54937011E7616800230A00212021329A
:1012700053700B54937004E728020020B101002042
:10128000F8B50323CE4699464746A0264A4680B580
:10129000224BF605F250224B1B789846214B1C78C6
:1012A00065002D19280005F0CDF843461E494A4631
:1012B0000B704346C133FF339B00A7B248604F8099
:1012C0009A51424601239340184AB350002C0ED045
:1012D0000023002400E04868C4544A68D2185470BF
:1012E0004A68D218033394709D42F4D14F88002F7E
:1012F0000AD000234A68080053704A6813704A688D
:1013000040339370FFF784FD322000F0EFF9FFF7D0
:1013100081FE0CBC90469946F8BDC0464C070000C3
:101320006400002065000020280200200C05000059
:10133000F8B5DE46454657464E460020E0B500F07B
:10134000A3FF642000F04AFFAC4800F0F9FDAC4870
:1013500000F00EFE00F06CFC00F0E6F9002000F05A
:1013600001FAA84DA84A0021280000F0B7FAA74CBE
:10137000A74A0021200000F0B1FA2800012100F066
:10138000FBFA0121200000F0F7FAA023A14AA249AC
:10139000DB055A500C395A5068315A5018395A5096
:1013A00010315A5050395A509C495A500C395A50A1
:1013B0009B495A509B495A509B495A500C395A5094
:1013C0009A495A500C395A5099495A5014395A501E
:1013D00098495A5004315A5010395A5096495A5027
:1013E00096495A5004315A5095495A508021C12388
:1013F000944A09069B00D1504022934B1A60FFF794
:101400003FFF924B924F9946924B934D9B46934B85
:10141000984640BF20BF20BF4B461C783B78A34274
:1014200042D03C70002C25D08D4B8E4AD05804F011
:1014300017FE8D4A8D4B03F049FD03F069FC4346CE
:1014400082461A685B680E004220002112184B4148
:10145000B342DED82BD00A2C2DDD72B65B461C7849
:101460002800FFF7D5FC002C00D162B64346524657
:1014700044C3CEE76B88002B71D172B65B461C78F3
:101480002800FFF7C5FC002C00D162B669880B2943
:1014900016D872B65B461C782800FFF7B9FC002C02
:1014A00000D162B64B461C78002CB2D0BCE7524546
:1014B000AFD80A2CD1DC6E4BA4001B599847CCE75F
:1014C0006A68002310002124213043701355837073
:1014D0000C29DED9033403711355033083700D29B1
:1014E000D7D9033403711355033083700E29D0D933
:1014F000033403711355033083700F29C9D90334A2
:1015000003711355033083701029C2D9033403715A
:101510001355033083701129BBD90334037113555C
:10152000033083701229B4D9033403711355033087
:1015300083701329ADD903340371135503308370BD
:101540001429A6D903340371135543711529A0D961
:1015500011003F203F314B7013548B7099E76B683B
:101560005C706B681C706B689C706B88012B00D87A
:1015700083E76B681C716B68DC706B685C716988F1
:10158000022900D879E76B68DC716B689C716B6825
:101590001C72032900D170E79C725C72DC72042912
:1015A00000D16AE75C731C739C73052900D164E762
:1015B0001C74DC735C74062900D15EE7DC749C74D7
:1015C0001C75072900D158E700229A755A75DA75FB
:1015D000082900D151E75A761A769A76092900D15E
:1015E0004BE71A77DA765A770A2900D145E71900CE
:1015F0001E31DA779A778A703FE7C046040302010A
:10160000080706052C670000F10C000024670000A5
:10161000310600000C0003001C0700001407000046
:101620000407000074070000240700000C070000F6
:1016300054070000340700003C0700004407000086
:101640004C0700000060004000E100E0B201002013
:10165000B0010020B101002028020020A8010020D4
:101660000405000000100140FCA9F1D24D62F03FDA
:1016700068000020BE2310B5094A5B00D15800293C
:101680000DD000240748D45000F05EF9064800F061
:101690005BF9064B1C70064B1C60064B1C6010BDB2
:1016A000006000402C6700002467000098010020C3
:1016B000940100208C010020202300B5C9B285B020
:1016C0000393002903D003AA024900F017FB05B0D9
:1016D00000BDC0466C01002082B002B07047C04619
:1016E00082B002B07047C0467047C04682B00190D9
:1016F000019B002B14D0019B0A48013B0193013848
:10170000C046C046C046C046C046C046C046C046A9
:10171000C046C046C046C046F1D1019B002BEAD16D
:1017200002B07047E703000070B50D4C8520237AA6
:10173000002B00D070BD636023602361E360AA22A8
:101740008023FF210125DB05D2009950383A002083
:101750009D50FC3900F084F825720020EAE7C0466D
:10176000B401002070B50500002000F067F8124CAD
:10177000A37A002B0BD0002D02D06B680120984774
:10178000E36801330020E36000F060F870BD002DD5
:1017900002D0236925612B60E368002BF1D1074A51
:1017A00080211360C12202209200C90588500121C6
:1017B000034A1160E5E7C046B4010020040100407F
:1017C0000800004010B51A4B1A68002A14D00022F5
:1017D00080211A60C2220123164C9200C9058B5049
:1017E00063726368002B07D01A6800205B68626030
:1017F00098476368002BF7D10F4B1A68002A15D061
:1018000000221A60C223802202219B00D205D150FF
:101810000123084CA3722369002B07D01A6801200A
:101820005B68226198472369002BF7D110BDC04641
:1018300000010040B40100200401004072B6024AD9
:101840001368013313607047C8010020034A13680E
:10185000013B1360002B00D162B67047C801002025
:10186000F0B500281EDB1B4A03249446FF22170014
:101870008308C026C0B20440E4008901A7400A40A2
:10188000A2409B006344B6009D59BD432A439A5130
:101890001F23C02118401E3B83400E4A490053506D
:1018A0001360F0BDFF240C4A0325944622000F2349
:1018B000C0B20540ED008901AA400C40AC40034095
:1018C000083B9B089B006344DE6996433443DC611C
:1018D000DEE7C04600E100E000ED00E070B5050085
:1018E0000C00002A0DD04079144B8100CA504300EF
:1018F000002C1ED0124E1B189B5D0820002B02D01E
:1019000070BD0720FCE70420A1782856FFF7A8FF48
:10191000A12322882968DB00CA506A792179530003
:101920009B18F2185170E1780020917001229A55AD
:10193000E6E71C18034A64001419DBE7D401002011
:10194000CC010020346700000122022103681A60E4
:10195000427953009B18014A99547047CC010020EA
:10196000012203685A6041794B005B1801495A54BF
:101970007047C046CC0100208023002210B50468C7
:101980005B00E250D1220468FF3B9200A350002983
:1019900002D00168403A8B5010BDC046C12210B53C
:1019A000414B9200995880225202114203D03F4984
:1019B0000868002848D1C1223B4B920099588022E8
:1019C0009202114203D03A490868002848D1C12246
:1019D000354B920099588022D202114203D03549EA
:1019E0000868002848D1C1222F4B920099588022C4
:1019F0001203114203D030490868002848D1C1229F
:101A0000294B92009A58D20704D580225200995847
:101A1000002912D1C122244B92009A58920704D572
:101A2000822252009958002900D110BD00219950FE
:101A3000224B05201B689847F7E7002199501F4B60
:101A400004201B689847E5E7D22080001A504038F0
:101A50001A5000230B60194B00201B689847AAE717
:101A6000D22080001A5040381A5000230B60134BCC
:101A700001201B689847AAE7D22080001A504038FE
:101A80001A5000230B600D4B02201B689847AAE7F1
:101A9000D22080001A5040381A5000230B60074BA8
:101AA00003201B689847AAE700B0004040B10040FF
:101AB00044B1004048B100404CB10040D401002086
:101AC000C12210B5414B9200995880225202114216
:101AD00003D03F490868002848D1C1223B4B9200FF
:101AE000995880229202114203D03A49086800288E
:101AF00048D1C122354B920099588022D20211421E
:101B000003D035490868002848D1C1222F4B9200E4
:101B1000995880221203114203D0304908680028E6
:101B200048D1C122294B92009A58D20704D580226D
:101B300052009958002912D1C122244B92009A5880
:101B4000920704D5822252009958002900D110BD75
:101B500000219950224B05205B689847F7E7002148
:101B600099501F4B04205B689847E5E7D22080001E
:101B70001A5040381A5000230B60194B00205B6844
:101B80009847AAE7D22080001A5040381A50002304
:101B90000B60134B01205B689847AAE7D2208000B6
:101BA0001A5040381A5000230B600D4B02205B681E
:101BB0009847AAE7D22080001A5040381A500023D4
:101BC0000B60074B03205B689847AAE700100140B1
:101BD0004011014044110140481101404C110140A5
:101BE000D401002003210A4802680A430260094820
:101BF00002680A4302600849084A094B9B1A03DD40
:101C0000043BC858D050FBDCFEF79EFCFEF7B2FA4E
:101C1000240500405405004000680000000000203A
:101C2000C0000020FEE7FEE7FEE7FEE7FEE7FEE776
:101C300008B5064B1868002803D1054902220A702E
:101C400002E001F049F9012008BDC046DC01002096
:101C500030020020014B1868407E7047DC010020F4
:101C600008B500F011FE002802D100F0F8FD01E0F7
:101C7000FFF73AFD08BDF8B5051C0F1C161C072818
:101C800004D904221B4E0020327031E003220029C7
:101C9000F8D00622202EF5D800F04CFE09220228AA
:101CA000F0D8281C00F04AFE0A220228EAD800F0E8
:101CB00049FE08220128E5D900F0F4FD4378041C10
:101CC0000670012003436370391C321CA01C04F011
:101CD000CDFBE8B2211C00F0F9FD051C0120002D10
:101CE00006D1054802F0CAFA024F0F213970281CAC
:101CF000F8BDC04630020020DD000500F8B5061C26
:101D00000D1C171C00F01AFE002803D1154F0B25DF
:101D10003D7025E00322002D07D0301C00F0FCFDB3
:101D20003A6803789A4204D206220E4E002032709E
:101D300016E0301C00F0E6FD041E0AD00278811C7B
:101D40003A60281C04F092FB201C00F0B5FD012035
:101D500006E0054802F092FA02490F200870201CA4
:101D6000F8BDC046300200200501050008B507286F
:101D700004D9044B04221A70002001E000F0DAFDBF
:101D800008BDC0463002002008B5072805D9044B1D
:101D9000042201201A70404201E000F0CFFD08BD8E
:101DA0003002002008B500F0CDFD0623181A08BD4A
:101DB00010B5041E072C03D90B4B04241C7003E040
:101DC000FFF7D4FF022801DD00200CE0201CFFF704
:101DD000DBFF0228F8DCFFF7E5FF0623181A0121D4
:101DE00081429241504210BD3002002008B50A4B9A
:101DF00019684A7E002A04D0084A0C21117000207C
:101E000009E0072803D9054B04201870F7E7C0B292
:101E100000F09CFD012008BDDC0100203002002004
:101E200008B5072804D9054B04221A70002003E0E6
:101E3000C0B200F0A5FD012008BDC0463002002060
:101E400010B501280AD0002803D0022808D10020AC
:101E500000E0012001F028F8012005E00220F9E768
:101E6000024B05221A70002010BDC046300200202F
:101E700010B500F011FD01280AD00224002808D076
:101E8000A04201D1012404E0034802F0F7F900E088
:101E90000024201C10BDC0467001050038B5134A4F
:101EA000031C10680C1C407E002804D0104D02203A
:101EB0002870002018E001390F2903D90C490722A6
:101EC0000A7011E0002B03D1094C03232370F0E7C3
:101ED000084D191C10C5221C281C04F0C7FA281C28
:101EE000211C00F0BDFD012038BDC046DC010020F2
:101EF00030020020940000200C4B10B51A680C68CA
:101F0000944201D3102C04D9094C072020700020E2
:101F10000AE0002803D1064903220A7004E00A609F
:101F2000191D04F0A3FA012010BDC0469400002042
:101F300030020020014B18687047C0469400002012
:101F400008B5074B19684A7E002A04D0054B0220C9
:101F50001870002002E000F01DFD012008BDC04601
:101F6000DC0100203002002008B500F023FD08BD90
:101F700008B5074B19684A7E002A04D0054B022099
:101F80001870002002E000F01BFD012008BDC046D3
:101F9000DC0100203002002008B500F01FFD08BD64
:101FA00008B50A4B1A68537E002B04D0084B022256
:101FB0001A70002008E0072803D9054804210170A1
:101FC000F7E700F011FD012008BDC046DC0100204C
:101FD0003002002010B50C1C072804D90422064B3F
:101FE00000201A7006E003220029F8D000F028FD36
:101FF0002070012010BDC0463002002008B5074BFC
:1020000019684A7E002A04D0054B0220187000206F
:1020100002E000F065FD012008BDC046DC010020A3
:102020003002002008B500F061FD08BD08B50E4A79
:10203000031C1068407E002804D00C480222027065
:1020400000200FE0012B0AD0002B07D0022B01D17A
:10205000012004E0054B0E21197003E0022000F07E
:10206000DDFD012008BDC046DC010020300200205B
:1020700008B501F023F80021012801D8014B195CB3
:10208000081C08BD4067000008B5134B19684A7E5C
:10209000002A04D0114A0221117000201BE00628FA
:1020A0000FD802F06BFC12140406080A0C00FC2086
:1020B0000EE0F8200CE0F4200AE0F02008E0EC202C
:1020C00006E0064B0E201870E7E7042000E0002031
:1020D00000F046FD012008BDDC0100203002002098
:1020E00008B500F04BFDF02813D004D8042814D014
:1020F000EC2806D10FE0F82807D0FC2803D0F428FC
:1021000005D001200AE0022008E0032006E00420B8
:1021100004E0052002E0062000E0002008BD08B52C
:10212000064B19684A7E002A04D0054B022018701D
:10213000002002E000F0E0FC012008BDDC010020EE
:102140003002002008B500F0DDFC08BD08B5074BE3
:1021500019684A7E002A04D0054B0220187000201E
:1021600002E000F097FC012008BDC046DC01002021
:102170003002002008B500F093FC08BD08B5074BFD
:1021800019684A7E002A04D0054B022018700020EE
:1021900002E000F0CBFC012008BDC046DC010020BD
:1021A0003002002008B500F0C9FC08BD08B5074B97
:1021B00019684A7E002A04D0054B022018700020BE
:1021C00002E000F0A5FC012008BDC046DC010020B3
:1021D0003002002008B500F0A3FC08BD08B5074B8D
:1021E00019684A7E002A04D0054B0220187000208E
:1021F00002E000F0A9FC012008BDC046DC0100207F
:102200003002002008B500F0A5FC08BD08B50B4B56
:1022100019684A7E002A04D0094A02211170002060
:102220000AE0002805D0012803D0054B0E201870C5
:10223000F5E700F05BFF012008BDC046DC0100208F
:102240003002002008B500F057FF013843425841E2
:1022500008BD08B50A4B19684A7E002A04D0094A0D
:102260000221117000200AE0002805D0012803D0C7
:10227000044B0E201870F5E700F050FF012008BD58
:10228000DC01002030020020F8B51E4D00241E4E57
:10229000071C281C211C0C22083034706C60FDF7D0
:1022A000FBFF1A4800F048FE2860A04203D101203D
:1022B0003070002024E0164B181D1968FFF7EEFD62
:1022C000051C381CFFF7BCFD0540042000F0EEFBA8
:1022D000201CFFF79BFFEFB207400120FFF7D4FE61
:1022E00007400220FFF7A2FE0740201CFFF7B1FFC6
:1022F000041C01203C4000F0E7FE002CD7D0012058
:10230000F8BDC046DC010020300200208723000019
:102310009400002008B500F007FF013843425841FF
:1023200008BD024B0022DA607047C046DC01002085
:10233000014BD8687047C046DC010020044B0022E6
:1023400000B51A72904202D018610120187200BDC7
:10235000DC010020014B18787047C0463002002095
:10236000014B00221A70704730020020014B586860
:102370007047C046DC010020014B00225A607047C4
:10238000DC0100207047F0B589B0040C031C060A7C
:1023900084460190101C039297B2020C0D1C002081
:1023A00002910092E1B2624606AC06906060059030
:1023B000D0B21B0EF6B2052854D802F0DFFA03148F
:1023C0002943403D6A4649B2484223701388E08061
:1023D000281C6780A38000F06FFA301C06996268A1
:1023E000FFF76AF941E022490B68587E002802D1C4
:1023F000204801F043FF281C6D4600F05DFA67801D
:102400002F88301CA78006996268FFF765F92CE0D9
:1024100048B205AC424223706280002B07D0002DE9
:1024200002D1154801F02AFF281C00F045FA301CA3
:102430000599FFF755F918E0FFF756F915E0FFF792
:10244000A1FF12E00A4DE9682B7A0131E960002B07
:102450000BD02F69002F02D1FFF702FC05E0013FEE
:102460002F6102E0054801F009FF09B0F0BDC04648
:10247000DC010020B5030500C3030500E3030500EC
:10248000024B03490F221A70486070473002002047
:10249000DC01002000B5064A01231178022903D08F
:1024A0005068421E904100E0181C1840C0B200BDA8
:1024B0003402002008B5FFF7EDFF044B044A002862
:1024C00001D0D06800E09068186008BDF4010020D9
:1024D0006C02002008B5044B5A68002A01D0013A6A
:1024E0005A60FFF7E7FF08BD3402002010B5002353
:1024F0001A1C041C1C41012121400724E41AA1409C
:102500000A430133D2B2082BF3D1101C10BD70B5B1
:102510000024061C251C301CE040C0B2FFF7E6FF7B
:102520001823191B884008340543202CF3D1281C9C
:1025300070BD38B50D1C01F071FE084C63699D42F9
:1025400002D8074801F09AFE60690122291A05485D
:1025500002F058F90021616138BDC0463402002004
:102560004D0609005D42000007B5A12303210F4A73
:102570008B40D15001F094FD002815D002280AD9D3
:10258000032811D1002300930193181C191C1A1C55
:1025900001F09EFC03E00020011C01F035FD042841
:1025A00002D0034801F06AFE07BDC04600F00140BA
:1025B000E801090008B501F027FFA1230E4AD90060
:1025C000505001F06DFD012807D001F069FD02288F
:1025D00002D00A4801F052FE002001F0B9FA02F0E0
:1025E00093F9074BA221CA0098500648064AC168D1
:1025F0004868985008BDC046001000401E060900FB
:1026000000F00140F40100201405000008B502F0BC
:10261000EDF801280FD002F0CDF8074B187F002805
:1026200003D180210122CB055A60002001F0F6FD84
:10263000024A0020506008BD6C02002034020020D5
:1026400010B501F06AFD00281AD00E4B00229A81C5
:10265000DA8101F0C5FB0C4C0C49605001F0C0FB65
:10266000A62201238340D100635001F0BFFB084C38
:10267000206001F0C1FB074B6060E360FFF79AFF49
:1026800010BDC04634020020001000402C050000A0
:10269000500200203D27000008B502F0A7F80128ED
:1026A00022D101F0D5FD002802D0104801F0E6FD4E
:1026B0001E210F48002202F0A5F80E4B197F0029B9
:1026C00002D002F06BF80FE00B480C4B01220260C5
:1026D00059608021C8050260C046C046C046C04659
:1026E0005A68002AFCD0ECE708BDC0462C06090059
:1026F0005D4200006C02002014050040FC00004018
:102700001FB5FFF783FF01F0D9F80A4A002301A89B
:102710000521017043601C1C038143814370837059
:10272000C3709370537601F09DFA03480470FFF76D
:102730001BFF1FBD3402002068020020F0B53E4B95
:102740008022D000195887B0012904D03B4C0026C4
:102750001D59B54206D13A4E2022776800263B78B3
:102760009A427641374C012561692E40281C002988
:1027700001D102F041F8284201D10120606101F04D
:102780008FFC012802D0304801F078FD2F4DEF6812
:102790003B7D002B02D02E4801F070FD01F08EF839
:1027A000002E47D00120011C01F02EFC042836D851
:1027B00002F0E4F803321832320001F017FBE2892C
:1027C000071CA689019201F00BFBE9686D46897D23
:1027D0000497AF8803AB00221A701E815F81587086
:1027E000997014E001F002FB071CE089A6890190B2
:1027F00001F0F6FAEB686D469A7D0497AF8803AB5B
:1028000000219A7019701E815F8158700122DA7060
:10281000181C01F027FA02E00E4801F02FFD01F02C
:1028200019FE0D4E206170696060FFF743FE0020C5
:1028300001F016FE07B0F0BD0010004034050000A6
:102840005002002034020020A8060900F4010020F4
:10285000A9060900C80609006C020020704708B5E7
:10286000012282F31088074B597E002905D0987801
:10287000002802D19A70FFF70FFF002282F3108820
:1028800008BDC04634020020024B0120597E48405A
:102890007047C04634020020014B18787047C0468C
:1028A0003402002008B5012383F3108801F094FC62
:1028B000002181F3108808BD08B5012383F3108837
:1028C00001F08EFC002080F3108808BD08B50123BC
:1028D00083F3108801F0EAFB00280DD008488278C5
:1028E000002A04D1417E002901D0FFF7D5FE002344
:1028F00083F31088012001E080F3108808BDC046F2
:102900003402002008B5012383F3108801F0F6FBA0
:10291000002181F3108808BD08B501F0EAFB08BD6D
:1029200008B5012383F3108801F0D3FB002181F364
:10293000108808BD08B501F0D8FB08BD08B501F046
:10294000E7FB08BD08B501F04FFC08BD10B5012339
:10295000041C83F3108808480278002A05D0417EC1
:10296000002902D0054801F089FC201C01F0B5FBCC
:10297000002484F3108810BD34020020FB020900FB
:1029800008B5012383F3108801F0BDFB002080F31C
:10299000108808BD08B5044B1862FFF7B8FD03495D
:1029A000034A505008BDC0466C0200201C050000C0
:1029B00000100040014B186A7047C0466C020020AE
:1029C00008B5044B5862FFF7A2FDA421024ACB00D0
:1029D000D05008BD6C02002000100040014B586A26
:1029E0007047C0466C020020F8B5031C081C072B7A
:1029F0001AD80F4A03261E40D118F600FF24B4400F
:102A00002831E74308700B4C032B01D80A4D01E035
:102A1000A525ED0063591F406751FFF767FD675912
:102A2000B0400743675102E0044801F027FCF8BDBD
:102A30006C0200200010004024050000390309004A
:102A400010B5041E072C02D9034801F017FC034BF4
:102A500018192830007810BD410309006C020020CD
:102A600038B5051C0C1E02D1074801F007FC002DEB
:102A700002D1064801F002FC054B00209D605C601D
:102A800001F0D6FC38BDC0464803090049030900DF
:102A9000F4010020014B58617047C0466C020020D1
:102AA000014B58697047C0466C020020064B074A2C
:102AB000A32110B55877CB00D45801040448204016
:102AC0000843D05010BDC0466C02002000100040EA
:102AD000FFFFF8FF014B587F7047C0466C02002093
:102AE000014B18617047C0466C020020014B186909
:102AF0007047C0466C020020014B58607047C046CA
:102B00006C020020014B58687047C0466C020020E0
:102B100008B5024BD860FFF7CDFC08BD6C02002061
:102B2000014BD8687047C0466C02002008B5024BC4
:102B30009860FFF7BFFC08BD6C020020014B98684D
:102B40007047C0466C020020014B58837047C04656
:102B50006C020020014B588B7047C0466C0200206D
:102B6000034B0449044A3033187050507047C04634
:102B70006C0200200C05000000100040014B3033B7
:102B8000187870476C020020184B10B5313318705C
:102B9000174A184BFF249958A1439950032821D86C
:102BA000995801F0EBFE1D020A14012421439950AB
:102BB0001149FF205850114906E002200143995065
:102BC0000F490D4A99500F49A722D20008E003246B
:102BD000214399500C480849A7225850A24000218F
:102BE000995002E0094801F049FB10BD6C02002039
:102BF00034050000001000403C0500000701000003
:102C0000FFFF000021100100FFFFFF00C2030900C9
:102C1000014B3133187870476C0200201F4B00B510
:102C200032331870012821D0002810D0022834D166
:102C3000A2211B4ACB00D0501A491B481B4A0860EE
:102C40001B4B1C481C491A6008601C4A20E0A22348
:102C5000134AD9005050134B1348154A18601349B2
:102C60001748154B11601860164A11E0A2230C4A50
:102C7000D90050500B4B0C480C490D4A186011609C
:102C80001148124A0C4B124918601160114A02E0B7
:102C90000E490A60104A1148026000BD6C02002013
:102CA0000010004024170040005000784E000054EF
:102CB0002817004008800C602C17004088647200C0
:102CC00003800C602264720002800C6030170040A8
:102CD00011646600DEC08F823E420F8234170040CE
:102CE000F8B5A122334C344B344E354DD00000277B
:102CF00003210122F750315067516251E0583149A8
:102D00000F220140E150E558062095430543E55068
:102D1000E1582D4DC02290020D400543E550A323FC
:102D2000DD006159294A80230A40625160595904E3
:102D3000014361516059FF229043202318436051A1
:102D400061592348C02208406051224853000221A3
:102D5000C15001F0D5FD2049204A70507251204DDC
:102D6000032373511F4800F0E1FD1F4E1F4DF0601B
:102D7000687FFFF79BFE286AFFF70CFE686AFFF783
:102D80001FFEE81928300178381C0137FFF72CFEA8
:102D9000082FF6D12F1C30373978154AA1502C1C3A
:102DA000313420783235FFF7EFFE2878FFF736FF11
:102DB000F8BDC046001000401405000000F00140BE
:102DC000FC0F0000FFFEFFFFFFFFF0FFFFFFFFFD16
:102DD000FF00FFFF00E100E01C05000004110040BF
:102DE0000405000050020020F40100206C020020C5
:102DF0000C05000070B5274E86B0337872789A4281
:102E000045D0002B01D1FFF76BFF7078002801D16E
:102E1000FFF7AAFB2049214D00246C5000F04EFD25
:102E20001F4D2C606C602C61AC60EC603378012B22
:102E300008D101F035F9A04217D0201C211C01F067
:102E4000E3F812E0022B10D100F038FD154A2C6196
:102E5000147001F025F9032807D100940194201C77
:102E6000211C221C231C01F033F8FFF723FB707890
:102E70000024307003A80426067044600481448155
:102E800044708470C47000F0EDFE012000E000206A
:102E900006B070BD340200201405000000F00140AF
:102EA000500200206802002008B5012383F3108837
:102EB00008490A78824208D04870487E002802D12A
:102EC000FFF798FF01E0FFF7E7FB002383F310888B
:102ED00008BDC0463402002038B5124B5A7E1C1C77
:102EE000002A1DD1FFF7FCFE0F488168051C002950
:102EF00002D10E4801F0C2F96B68002B02D10C48D8
:102F000001F0BCF901F098F9002802D0094801F05D
:102F1000B5F9002001F082F901226276FFF7BCFBCF
:102F200038BDC04634020020F40100205E020900D2
:102F30005F02090066020900F8B5071C012080F352
:102F40001088544D544B554E0024002203211C6020
:102F50005C609C60DC601C611A7529702A766A7658
:102F6000B46074606870AC706C60AC60AC81EC8113
:102F70002C616C6101F0D6FB381C00F059FE00F0AA
:102F8000F5FE201C01F042F9301C01F07BF9444FA2
:102F9000C2208300F958434AC0260A40FA50B000C4
:102FA0003B584149C522194039509600BB59FF2072
:102FB000402183430B43BB510120FFF775FF3B4E7C
:102FC0003B4B3C48311C3362706228310123301C7A
:102FD0000B7029300223311C03702A310320087042
:102FE000FF22311C32612B3104220A707277321CAD
:102FF0002C3205201070321C2D320621301C11702D
:103000002E3007220270301C2F300821321C017034
:10301000303200201070321C0120311C323210700E
:10302000313196229A400B701E2171617260F360FB
:10303000FFF740FA0F23B360FFF73CFA01207483D7
:10304000307670760021201C6924317701F0D0F8A9
:1030500034606E780124A64202D0174801F00EF9C0
:1030600000262C70AE706E60AE60AE81EE812E6177
:103070006E612E766E76FFF733FEC02380218022AC
:103080005800CC0053033C503B5086F31088281C5A
:10309000F8BDC0463402002050020020F401002098
:1030A00000E100E0FFFF00FFFF00FFFF6C020020D7
:1030B00004070A0D05080B0E3C020900014B3233D0
:1030C000187870476C020020054B10B5041CD868B6
:1030D000002802D1034801F0D1F803490C7510BD56
:1030E000F4010020F603090050020020014B18767D
:1030F0007047C0466C020020014B187E7047C046E6
:103100006C020020014B58767047C0466C020020CC
:10311000014B587E7047C0466C020020014B187767
:103120007047C0466C020020014B187F7047C046B4
:103130006C02002008B501F05BF808BD08B50B4B28
:10314000D868417D002906D0012000F05BFB084BC8
:103150009A8901329A810749074B084A0020585042
:1031600051681368C91AFFF7E4F908BDF40100209B
:10317000340200201405000000F001406C02002021
:10318000084B10B51A781C1C012A02D0064801F021
:1031900075F80649064A0220002320700B61CA60B8
:1031A00010BDC046680200209205090050020020B0
:1031B0005132000010B500F081FB194819491A4C32
:1031C00000230122027023610869A623174AD9004F
:1031D000505000F065FF00280AD100F075FD01286D
:1031E0000DD900F00FFE6060002808D1104804E0FF
:1031F00000F056FF032802D00E4801F03FF80220ED
:1032000000F0A6FC002000F0FDFA00F049FF0328C2
:1032100002D0094801F032F8FFF7B2FF10BDC046F6
:10322000680200206C0200205002002000100040C4
:103230007B050900800509008805090008B5034BD6
:1032400005221A70FFF7B6FF08BDC04668020020CD
:10325000F0B5484A8023D800115887B0464C012960
:1032600004D0464D002356599E4205D1676800237D
:103270003978202088425B41414E032500210127F7
:10328000357021603B408B4255D08123D8001558C2
:103290003C4B11583C48D15002A912583B1C00919C
:1032A0000194381C291C00F013FE032841D801F0BA
:1032B00065FB1E02204E0298002802D0334800F021
:1032C000DDFF281C00F024FF002802D1304800F068
:1032D000D5FF304903A8CF680223B97D00270370CA
:1032E00047603A1C07814781457081701DE02A487C
:1032F0002BE0029A002A02D1284800F0BFFF281CC8
:1033000000F006FF002802D1254800F0B7FF214F4A
:1033100003A8FB68029F997D022200230270476088
:1033200003814381457081700122C27000F09AFCD4
:103330000DE01C4809E000930193181C191C1A1C8D
:1033400000F0C6FD042802D0174800F097FF25685A
:10335000002D06D100F0B2FA65752561FFF72AFF4E
:1033600005E012480122627520610424347007B020
:10337000F0BDC0460010004050020020340500009F
:10338000680200202C0500000C040000B8050900AC
:10339000B9050900F4010020BD050900C0050900B8
:1033A000C1050900C8050900CF0509003D3200002C
:1033B00070B50C4DA124E4002E5901F025F8864289
:1033C0000AD001F021F82851FFF7F4FE0649002049
:1033D0004968FFF7AEF870BD044B18780028F3D0A9
:1033E000F4E7C046001000406C0200206802002094
:1033F000F0B5864C0125636989B0281C002B01D1EA
:1034000001F0FAF90126284000D0D3E02178B1423A
:1034100002D100F04BFA10E0022908D000F042FF80
:10342000FFF758F8A678002E00D0A9E00EE0784A01
:103430001378033BDDB2AE4240410028EED0754E1A
:1034400075487768012279086161CBE0FFF7D2FC0B
:10345000704D071E00D08EE020780190061E012ED0
:1034600006D0002863D0022865D1FFF7A1FF65E0F0
:1034700000F024FA00F014FE00281DD100F024FC16
:10348000012851D9FFF706F8071E0CD000F0FAFF0B
:10349000002849D1287E00280BD100F0DBFF2669E7
:1034A000B04241D105E0206900F0C2FF381C00F0B5
:1034B000D7FFFFF7C5F837E0698B002920D0A28934
:1034C0008A421DD3311C381C00F09EFD00F08EFC9A
:1034D0000290A2890392E68900F082FC69460A798B
:1034E000029905AB1A7006910C226946515A587020
:1034F000181C19815E819F70DF7000F0B3FB13E030
:1035000001F07AF9002802D0444800F0B7FEA12368
:103510004348DF00C65900F077FF864202D0E189B8
:103520000131E181FFF746F80120296800E0696870
:10353000FEF7FFFF02E03B4800F0A0FE6D7E012D8C
:1035400023D1FEF7A7FF00281FD12478012C07D034
:10355000002C0DD0022C18D0334800F08FFE14E060
:1035600000F09EFD002810D100F034FC00280CD1A2
:10357000FFF74CF809E06968301CFEF7DAFF04E059
:10358000647E002C01D0FFF7BBF800F09DFB012802
:103590000CD905A8002103230370416001814181FA
:1035A00041708170C17000F05DFB2DE01F4800F09C
:1035B00065FE29E0FEF78EFFA778002F1DD1217848
:1035C000022912D1124B1D78033D012D04D900F0C0
:1035D00069FEFFF7EDFE17E00E4F321C78684108D8
:1035E0000D48616101F00EF90EE000F05BFE094A42
:1035F000381C5168FEF79DFF06E000F053FE607E28
:10360000002801D0FFF77CF809B0F0BD340200209B
:10361000680200206C0200205D4200000A050900DB
:103620000010004058040900720409008C040900CD
:1036300007B50190C046C046C046C046C046C04619
:10364000C046C046C046C046C046C046C046C0464A
:10365000019B013B0193002BECD107BD70B580228B
:10366000164B910000245C501549C2250E78AD0020
:10367000144A032E07D109267442C1265C5108253D
:10368000B4001D510AE0012676425E51C0230E4D62
:1036900002265B00EE50146103244C70002353603B
:1036A000536193604B600B75984205D007480168E1
:1036B0000A69002A00D0904770BDC0460010004043
:1036C000A0020020FC10004000E100E00402002005
:1036D000F8B53F4B1A69012A53D19D693D4C8022B0
:1036E00096000135032104209D611870C025A15169
:1036F00039496A0002278F50384F00263E61C122A7
:103700007E607E61BE60364E08259100655035684A
:103710002A7D3D1C002A17D0A927F9006258314F95
:103720009A75A023D9007A58024202D12E4800F09F
:10373000A5FD00200123A12228620421A361D3005A
:10374000F950A927F90060506868002802D027487E
:1037500000F094FD2D69002D02D0254800F08EFD6B
:10376000244A536899072DD43768F968002900D096
:1037700088473668707D002828D035681E4AA550D5
:1037800024E0022A1AD1154900250D6111484D6126
:1037900080244D6001278D60C221A6007A428C00F2
:1037A00085511D700251032058705D601D750C4BD2
:1037B0001E683769AF4209D0B84707E00F4800F0EC
:1037C0005DFD03E00E4800F059FDCDE7F8BDC046B1
:1037D000A00200200010004000E100E0FC100040CA
:1037E0000402002000F00140AD020A00B6020A0007
:1037F000B7020A00FCE100E004050000E7020A004D
:10380000B8020A0070B51E4D061C6B7D6C78002B4B
:1038100002D11C4800F032FD287D002802D01A4851
:1038200000F02CFD012200212A756975022C0CD8AC
:1038300016482301C318002E01D11E683260621E93
:10384000012A05D8997A297002E0114800F016FD86
:10385000104D2868037D002B11D0022C0FD10E4C87
:103860000E4E251C3259530702D40D4800F006FDB8
:103870000C494859002802D10B4800F0FFFC70BDEC
:10388000A002002021010A0022010A004467000072
:103890003A010A00040200200405000000F0014083
:1038A00040010A000010004041010A00024B9868E4
:1038B0000138434258417047FC100040F8B5164BA0
:1038C000164C02200121C027C222D8674D428240F7
:1038D0007B00134E8021134FA55081400025F050EE
:1038E000012265507D61104D2261A2612C789442C5
:1038F00001D1062003E0023C012C00D9101C002459
:10390000FFF796FE7C61201C2C70FFF7A7FE0220BB
:103910006C753060F8BDC04604E100E00010004066
:1039200000E100E0FC100040A002002038B50E4B82
:103930000E4C18600E490F4B0F4A0225201DC5671B
:1039400099500E48A421CA009850FFF7B7FF0C48C1
:1039500000230321037041704360036103754375C5
:103960008375256038BDC0460402002000E100E0F8
:103970001410004000F00140240500000411004034
:10398000A002002070B55C4C2369607D013365782E
:103990002361002802D0594800F070FC21780329E7
:1039A00048D1574E3269002A44D0012D35D12269C1
:1039B000032A02D0534800F061FCA06902210130C3
:1039C000514A8025A06100238D4001202170535170
:1039D0004542C22088401550C02568004B4D2950F3
:1039E0004B493361096873607361B3600326667085
:1039F00063602375087D98420DD0A925E80016580C
:103A00000125A6753E4C042623629561A124414DF3
:103A1000E4002E511350CA6865E0022D08D12369D5
:103A2000012B02D03C4800F029FCFFF751FE61E079
:103A30003A485DE0032D5AD0012D3CD1216901297E
:103A400018D12F480021304B0126C22241608160ED
:103A500070429100C1265850B0001D502C4D304E80
:103A60002A68117D002902D02A4D0420A851E4685B
:103A70009C513FE002293DD1234E214A802300255D
:103A800098000221C22315615561556035504A42A4
:103A90009800C12132508B000822F2500326267074
:103AA000656025751A4C2568261C2869002800D0F9
:103AB0008047306816E0022DB7D0657819482B0191
:103AC000C1180E7B0025AE4203D00D4A15696A1E4F
:103AD00095418B7A01202370FFF7C0FD002D09D09E
:103AE0000B4C20688268002A04D0904702E00E4800
:103AF00000F0C4FB70BDC046A002002090010A0087
:103B0000FC1000409F010A000010004000E100E0AE
:103B10000402002000F00140A4010A00A9010A00EB
:103B20000405000044670000D6010A0008B5022819
:103B300004D8054B18784342584103E0034800F08D
:103B40009DFB002008BDC046A0020020F9020A002B
:103B5000F8B52B4C0301061C2A4F207DFF180028C6
:103B600002D0294800F08AFB301CFFF7DFFF002855
:103B700002D1264800F082FB0121C222244D0023FD
:103B8000484291006375C0226850224902205200C9
:103B90008850214866700268116852682361A361E9
:103BA0003B68A160E2606360022E18D8387A8023F7
:103BB0009B00E850F87A194B002805D1E950EA58E3
:103BC000002A08D1164804E0EA50E958002902D139
:103BD000144800F053FB7F7AC1208300EF500E4D54
:103BE00029680A7D002A07D0022E05D10B480E4B0A
:103BF00000260427A6751F5001256575F8BDC0462F
:103C0000A002002044670000DB000A00DD000A007B
:103C10000010004000E100E0040200200405000064
:103C200000010A0005010A0000F001407047C0468B
:103C300010B5041E02D1084800F020FB074B0022FB
:103C40001C60191DDA670833CA678020DA67044BE5
:103C500044031C6010BDC04629000B00C4020020B4
:103C600000E100E070B5144C051C2368002B02D164
:103C7000124800F003FB201C0830C16F092902D94B
:103C80000F4800F0FBFAE66F0C225643A3190433E9
:103C900043CD43C3251C0835E86F0130E867E16F69
:103CA0000131E167E66F092E01D90022E267802425
:103CB000044B65035D6070BDC402002034000B003E
:103CC00035000B00FCE100E0034B0A200833D96FFC
:103CD000421AD0B27047C046C4020020F0B587B087
:103CE000012383F31088134C124D0834E06F002831
:103CF0001BD02A1DD16F0C26714303AB6918043108
:103D0000181CE0C9E0C0E76F0026013FE767D46FE9
:103D10000134D467D56F092D00D9D66786F3108892
:103D2000044A176807CBB847DAE780F3108807B072
:103D3000F0BDC046C402002038B50A4C051CE36F34
:103D4000002B02D1084800F099FA291C0831E06FD5
:103D500000F03CFC0021884201D0E1670121081CF1
:103D600038BDC0464C0300206F020C0010B500F0B7
:103D7000B7FB0021124A8800002384188818A36129
:103D8000A363041C80348830237003700D480C1822
:103D9000013123700829EDD1111C101C141C903125
:103DA00091305834137053609360D3601361536142
:103DB0000B7003702370D36792320123137010BD10
:103DC0004C030020E0030020014B185C7047C04604
:103DD000E0030020014B9033187870474C0300201B
:103DE000014B58687047C0464C030020014B98684F
:103DF0007047C0464C030020014BD8687047C0464E
:103E00004C03002010B5104C2378002B02D00F4833
:103E100000F034FAE06F002802D100F08BFBE0677D
:103E2000E06F00280FD0012143784A4206210B435E
:103E3000437002700023C218FF2101339170202BC0
:103E4000F9D10323237010BD4C0300203B010C006B
:103E500038B5124C2378002B1ED1201C90300178ED
:103E6000002919D10825606900F028FC002805D038
:103E7000231C6069903301221A702061616901314D
:103E8000082900D10021231C616190331A78002A8F
:103E900002D1013D002DE6D138BDC0464C030020C3
:103EA00038B5094D041C2B1C90331878002804D019
:103EB0002969A14201D1FFF7CBFF2A19034B002545
:103EC000803215701D5538BD4C030020E0030020E2
:103ED000F0B5464D85B00393EB6F061C0C1C171C08
:103EE000002B02D1424800F0C9F92878032802D0FB
:103EF000404800F0C3F9E96F01234A781A4202D121
:103F000092352D786B400425002E61D05007012694
:103F1000810F1E40251C231C0A0608330E353F0264
:103F20003249A8003F0A02930B5817430B980A9A8C
:103F30000025156005609F4233D0201CFFF7FCFE72
:103F40000190AE4200D0051C01232E1C1E4000280B
:103F500028D00299254A063188008750039F1D1CEE
:103F6000002F20D0244F3B5D002B1CD0201C00F0E4
:103F7000A5FB002802D1214800F080F9201C00F0A8
:103F80005BFB051E02D0201CFFF78AFF0A990D601B
:103F9000002D02D11A4800F071F900203855022591
:103FA00001E001950325002E0DD0201C00F06CFBD4
:103FB0000B9E3060002802D1124B336005E00E4F9B
:103FC00001223A5501E00B9C26600199002905D198
:103FD000064CE06F00F0CCFA0020E067034A0026B0
:103FE0001670FFF735FF281C05B0F0BD4C0300200C
:103FF0005B010C005C010C00E003002091010C004F
:1040000096010C00A4030020F8B51F4C071C237870
:104010000E1C013B012B02D91C4800F02FF904258E
:10402000002F19D02078012802D0194800F026F975
:10403000E268002A02D1174800F020F9E168002563
:104040000F78AF4208D06068FFF776FE022500289F
:1040500002D1114800F012F9002E0ED06768381C0A
:1040600000F0EAFA061E02D0381CFFF719FFA36819
:104070009E4202D0094800F001F900202070FFF7AD
:10408000E7FE281CF8BDC0464C030020FC000C00D5
:1040900002010C0003010C000E010C001E010C00BB
:1040A000014B18787047C0464C03002038B5041CFB
:1040B0000D1C00F013FB002801D1002008E0281C93
:1040C000211C00F083FA0028F7D0FFF7C1FE012081
:1040D00038BD08B500F0D8FA08BD10B5041CFFF7CC
:1040E000DFFE201C00F000FB10BD08B500F0E6FA72
:1040F00008BD08B5083000F0C7FA08BD08B508309B
:1041000000F09AFA08BD08B5083000F0EDFA08BDD5
:1041100008B5083000F0D2FA08BD10B52A4C237853
:10412000002B02D0294800F0A9F8201C903001781B
:10413000002927D02069606000F0A6FAA06000285E
:1041400002D1234800F09AF8A26801235078034076
:1041500004D1211C92310A78002A10D16068FFF73F
:10416000D7FF02280ED8E36F002B02D100F0E2F94E
:10417000E067E16FE160002904D0012001E0E36025
:10418000022020702278002082421BD0A368834244
:1041900002D1104800F072F820696060063081009A
:1041A0006318DA7803210132D0B2D870A3680840CE
:1041B0005A784100062082430A435A709034002303
:1041C0002370012010BDC0464C030020C3000C002A
:1041D000C9000C00E7000C0008B500F0ABF908BD01
:1041E00008B500F0C5F908BD08B500F077FA08BDBC
:1041F000014B9233187070474C030020014B9233EF
:10420000187870474C0300207047C046024B9870E6
:10421000587018707047C046E803002010B5041E9F
:10422000012C02D9024800F029F8024B5C7010BD45
:104230002A000D00E8030020014B18787047C046A3
:10424000E8030020014B98787047C046E80300203F
:10425000014B58787047C046E803002008B5054B6D
:104260001A7858789A701870034B8100CA58904792
:1042700008BDC046E8030020A800002008B5FEF7EE
:10428000FFF808BD10B5041E02D10448FFF7F6FF81
:10429000034B00221C605A609A6010BD2A00010086
:1042A00008020020094B00B518689A6801680132BD
:1042B0009A608A4208D359684068002201319A60A6
:1042C0005960814200D35A6000BDC04608020020F8
:1042D000F8B500282AD0164CA36801280ED127680B
:1042E00001333A68A360934220D36068796800255F
:1042F0000130A5606060884218D316E02668C718B0
:104300003568A760381C291C00F042FB62683B1C22
:1043100080186060AB4201D35B1BFBE77168656886
:10432000A3608D4201D36D1AFBE76560F8BDC046FE
:1043300008020020024B1A6899681068401A7047FA
:104340000802002070B50D4D041C2B68586884428B
:1043500002D30B48FFF792FF6E68B4420CD002D82C
:1043600029684A68A418FFF7E5FF2D68F3432E6813
:1043700019197143081800E0002070BD08020020E0
:104380006800010070B5041C0D1C884202D30B4864
:10439000FFF774FF0A4E33681868854202D909484E
:1043A000FFF76CFFB168601AA14206D30020A94252
:1043B00003D3326815686E1A301970BD7D00010094
:1043C000080200207E00010038B5041C101C0D1CE2
:1043D000FFF7B8FF002801D0001911E0201C291CAC
:1043E000FFF7D0FF041CFFF7A5FF031C201E984217
:1043F00006D304490D686A682C68013A54430019D1
:1044000038BDC04608020020074B10B51A6859682D
:1044100050681C1C814202D30448FFF72FFF236819
:1044200061689A68505C10BD08020020B20001006B
:1044300038B5064B041C1A681D1C5068844202D310
:104440000348FFF71BFF6C6038BDC0460802002020
:10445000B9000100014B58687047C04608020020AF
:1044600038B5064B041C1A681D1C1068844202D320
:104470000348FFF703FFAC6038BDC04608020020C8
:10448000C5000100014B98687047C0460802002033
:1044900010B50F4B1A68002393420BD20D499C00B4
:1044A0006458A04203D10C48FFF7E8FE0CE001334A
:1044B000DBB2F1E7002422226243084953189842F4
:1044C00004D00134062CF6D1002000E0012010BDFC
:1044D000EC030020F0030020F6000300F8040020A5
:1044E00010B500220F495000801800230C1801322B
:1044F0006370A3704354102AF4D122225A430A490C
:104500000A485418211C9A0084502231DE2222705D
:1045100001348C42FAD10133062BEED1044C2360D6
:1045200010BDC04608040020F8040020F00300205D
:10453000EC03002038B50A4B1C68002C0ED0621E1C
:10454000084990004458084D1A604550201CFFF758
:104550009FFF002802D10548FFF790FE201C38BDC0
:10456000EC030020F0030020ADDEADDE7D00030093
:1045700070B5104C051C2368052B02D90E48FFF7B7
:104580007DFE281CFFF784FF002802D10B48FFF7AF
:1045900075FE21680A488A0011580A4B061C994288
:1045A00002D00948FFF76AFE206882000130B5504A
:1045B000206070BDEC03002085000300860003002E
:1045C000F0030020ADDEADDE88000300F8B5051C69
:1045D0000C1E0F2C02D91448FFF750FE281CFFF7C1
:1045E00057FF002802D11148FFF748FE1049660026
:1045F0003019435C0022022B13D80B185F78C019C6
:104600000C4F8000C5515D780135E8B258705F7875
:10461000022F00D95A7032198C5C0134E6B28E54E4
:104620000122101CF8BDC0468F000300900003005B
:10463000080400203804002038B5041E0F2C02D9CD
:104640000E48FFF71BFE0E4A65002919885C0028FA
:1046500013D05318987809180A488900085899788F
:104660000131C9B299709978022901D90021997054
:104670002C19155D013DEBB2135538BDA6000300A2
:10468000080400203804002010B5041E0F2C02D9A5
:104690000748FFF7F3FD074B62001119C85C0028BB
:1046A00005D0581884780B1903499A00505810BD4A
:1046B000B7000300080400203804002010B5041ED1
:1046C0000F2C02D90348FFF7D9FD630002491819DE
:1046D000405C10BDC800030008040020014B1868AE
:1046E0007047C046EC03002038B5051E0F2D0CD9CD
:1046F0000948FFF7C3FD08E0084B9C4202D1084877
:10470000FFF7BCFD201CFFF733FF281CFFF794FFC9
:10471000041EF1D138BDC046D7000300ADDEADDECA
:10472000DB000300164BA12110B50122CC000020B4
:104730005A60DA6018515A64124A1C1C9958814216
:1047400002D01148FFF79AFD0123C222584291007E
:104750000E4B60500022A2215A640420CB00E0508E
:104760000B490C4C012022602271627108700A4BC7
:104770008022C021D40081405C501C6010BDC04626
:1047800000A000404405000035000400FCA00040EB
:10479000C40500201402002000E100E0034B04499E
:1047A000012200201A6008707047C04600A0004037
:1047B000C4050020094A30B501235360084CD3607A
:1047C0008025084AC0200021ED0098401160117139
:1047D00025505171044A137030BDC04600A00040FE
:1047E00000E100E014020020C4050020014B18780D
:1047F0007047C046C4050020014B18797047C04679
:1048000014020020F7B5334F0092334C8022C223AC
:104810007E790191051C990050026050002E02D053
:104820002E48FFF72BFD002D02D12D48FFF726FD66
:104830003A68002A02D02B48FFF720FD3D60009D1A
:10484000294E012D0DD0002D03D0022D0DD1A9220E
:1048500008E00120254B00996064E55820647164EC
:1048600007E0A822D500655903E02148FFF706FDBF
:10487000002501227A71019FA821E81987B200233F
:10488000C80073642750275800976264174AA758D6
:10489000716C1E1C994202D01648FFF7EFFC009B7A
:1048A000AB4205D3AF4201D39F420CD3124808E07C
:1048B000301CAF427041009DAF427641B04202D001
:1048C0000E48FFF7DBFC8022C12157028E00A75162
:1048D000F7BDC0461402002000A000407300040091
:1048E0007500040076000400FCA0004044050000B0
:1048F000890004009B000400B0000400C90004000B
:104900000048704748A000400048704740A1004060
:1049100070B58022134C144DC2235002990000261A
:1049200068506664114C2268B24202D11048FFF709
:10493000A5FC104B012166712068A82226606964DD
:10494000EE58D300EA580C4D1432AE4203D8C023BF
:104950001D02AA4202D80021964249412171804796
:1049600070BDC046FCA0004000A000401402002022
:10497000EC00040044050000FF3F000002B4714653
:1049800049084900095C49008E4402BC7047C04692
:10499000002243088B4274D303098B425FD3030A7E
:1049A0008B4244D3030B8B4228D3030C8B420DD391
:1049B000FF22090212BA030C8B4202D3121209021F
:1049C00065D0030B8B4219D300E0090AC30B8B425D
:1049D00001D3CB03C01A5241830B8B4201D38B030B
:1049E000C01A5241430B8B4201D34B03C01A5241B0
:1049F000030B8B4201D30B03C01A5241C30A8B42F3
:104A000001D3CB02C01A5241830A8B4201D38B02DD
:104A1000C01A5241430A8B4201D34B02C01A524181
:104A2000030A8B4201D30B02C01A5241CDD2C309F3
:104A30008B4201D3CB01C01A524183098B4201D36F
:104A40008B01C01A524143098B4201D34B01C01A5A
:104A5000524103098B4201D30B01C01A5241C308D2
:104A60008B4201D3CB00C01A524183088B4201D341
:104A70008B00C01A524143088B4201D34B00C01A2D
:104A80005241411A00D20146524110467047FFE799
:104A900001B5002000F0F0F802BDC0460029F7D0B3
:104AA00076E7704703460B437FD4002243088B42CE
:104AB00074D303098B425FD3030A8B4244D3030BA5
:104AC0008B4228D3030C8B420DD3FF22090212BA6A
:104AD000030C8B4202D31212090265D0030B8B42E6
:104AE00019D300E0090AC30B8B4201D3CB03C01AD0
:104AF0005241830B8B4201D38B03C01A5241430BAB
:104B00008B4201D34B03C01A5241030B8B4201D39A
:104B10000B03C01A5241C30A8B4201D3CB02C01A05
:104B20005241830A8B4201D38B02C01A5241430A7D
:104B30008B4201D34B02C01A5241030A8B4201D36C
:104B40000B02C01A5241CDD2C3098B4201D3CB0113
:104B5000C01A524183098B4201D38B01C01A5241C2
:104B600043098B4201D34B01C01A524103098B42C6
:104B700001D30B01C01A5241C3088B4201D3CB00B1
:104B8000C01A524183088B4201D38B00C01A524194
:104B900043088B4201D34B00C01A5241411A00D244
:104BA00001465241104670475DE0CA0F00D04942AD
:104BB000031000D34042534000229C4603098B421D
:104BC0002DD3030A8B4212D3FC22890112BA030AA5
:104BD0008B420CD3890192118B4208D38901921127
:104BE0008B4204D389013AD0921100E08909C309AC
:104BF0008B4201D3CB01C01A524183098B4201D3AE
:104C00008B01C01A524143098B4201D34B01C01A98
:104C1000524103098B4201D30B01C01A5241C30810
:104C20008B4201D3CB00C01A524183088B4201D37F
:104C30008B00C01A5241D9D243088B4201D34B009A
:104C4000C01A5241411A00D20146634652415B10DC
:104C5000104601D34042002B00D5494270476346BD
:104C60005B1000D3404201B5002000F005F802BD02
:104C70000029F8D016E770477047C046002B11D1C5
:104C8000002A0FD1002900D1002802D00021C943F9
:104C9000081C07B4024802A14018029003BDC04698
:104CA000D9FFFFFF03B4684601B5029800F04EF843
:104CB000019B9E4602B00CBC7047C046F0B5CE4684
:104CC000474615042D0C2E0080B50704140C3F0C2C
:104CD0009946030C7E435D43674363437F19340C5D
:104CE000E4199C46A54203D980235B029846C4443C
:104CF0004B46514343433604360C250C240465448B
:104D0000A4195918491920000CBC90469946F0BDC9
:104D100070B500220B4B0D00040000F00BFC01F0FD
:104D200001FA060001F09CF90022074B00F002FC9A
:104D300002000B002000290000F07CFE01F0F2F9D7
:104D4000310070BD0000F03D0000F041F0B5574665
:104D50004E464546DE46E0B5040083B00D0092465F
:104D600099468B422FD82CD04946504601F0CEF9B7
:104D700029000600200001F0C9F9331A9846203BAB
:104D80009B4600D574E053465A4693401F00534655
:104D9000424693401E00AF4229D826D05B46A41B52
:104DA000BD41002B00DA79E000220023009201933C
:104DB00001235A46934001930123424693400093B6
:104DC00019E08242D0D900220023009201930C9B6B
:104DD000002B01D01C605D600098019903B03CBCC1
:104DE00090469946A246AB46F0BDA342D6D90022D2
:104DF0000023009201934346002BE8D0FB07720882
:104E00001A4346467B080EE0AB4201D1A2420CD8C1
:104E1000A41A9D41012024196D410021013E24184E
:104E20004D41002E06D0AB42EED9013E24196D4112
:104E3000002EF8D15B460098019900196941002BBA
:104E400022DB2B005A46D3402A004446E2401C0095
:104E50005B461500002B2CDB26009E40330026000D
:104E60004746BE403200801A994100900191AEE75A
:104E7000424620239B1A5246DA40414613004A46D6
:104E80008A4017001F4382E7424620239B1A2A00CC
:104E900046469A402300F3401343D5E74246202379
:104EA00000219B1A0022009101920122DA40019216
:104EB00082E74246202326009B1ADE402F00B4469C
:104EC000974066463B003343C9E7C046F0B55746B6
:104ED0004546DE464E46E0B54C000E0387B083469D
:104EE00092461D008046360B640DCF0F002C4FD02C
:104EF0006F4B9C4235D08023420F1B04F6001343B6
:104F000033439946C30098466A4B00269C460023CB
:104F1000644403932B031B0B9B466B00ED0F504621
:104F20005B0D01955ED0624A934253D05A46D10040
:104F30008022400F120402430A4393465246D10096
:104F40005C4A9446002263443800684084460290DC
:104F5000E41A16430F2E00D9B4E0574BB6009B5904
:104F60009F460300334399466CD100239846023391
:104F700008260393CEE7CB464146039A0197022ABF
:104F800065D1019B4A4C9C460023002298466BE069
:104F90000300334399464ED0002E00D1BCE13000CF
:104FA00001F096F803000B3B1C2B00DDACE11D2249
:104FB000D31A5A460100DA4008398E4013003343B1
:104FC00099465B468B40984600233C4C0026241AA9
:104FD00003939FE751465A46114329D10022934635
:104FE0000232B1E7594601431ED05B46002B00D187
:104FF0009EE1584601F06CF803000B3B1C2B00DDD2
:105000008FE102005946083A91408B461D21CB1A88
:105010005146D9400B0059460B4351469B4691409F
:10502000264B00221B1A8FE7002301229B468BE7A9
:105030005146032288E700239846013304260024C2
:10504000039367E70323B14603930C2662E7032A21
:1050500000D15CE2019B012A00D0E4E113409C46B0
:10506000002300240022984600211203130B0A0D8E
:1050700012051A432305124C404622401343624650
:105080005B00D2075B081343190007B03CBC904695
:105090009946A246AB46F0BD002380229C461203EF
:1050A0009846034CE0E70023014C00229846DBE7DA
:1050B000FF07000001FCFFFF746700000DFCFFFF0D
:1050C000FFFF0F80D94500D939E100D134E1002339
:1050D00046464D469A46013C5B460A0E1B021A4361
:1050E0000B02170C039313041B0C39002800904685
:1050F0000193FFF74DFC0200019B83465A432800B1
:1051000039009146FFF7CAFC350C09040D43A94547
:105110000DD95B464544013BA84500D93AE1A94574
:1051200000D837E102235B429C464544E3444B46AA
:10513000EB1A390018000493FFF72AFC019B0500C5
:105140004343390004989946FFF7A8FC3304090447
:105150001B0C0B43994509D943446A1E984500D955
:105160001AE1994500D817E1023D43444A469B1A8B
:105170005A4612042A4303999346100C0A0C91468E
:1051800009045A46090C4E460D001204120C454300
:10519000059151437243704352190E0CB218954257
:1051A00003D980256D02AC466044150C0904120435
:1051B000090C28185218834200D2CEE000D1C8E072
:1051C0001D1A53469E1AB24592415242AB1A9A4654
:1051D000984500D117E139001800FFF7D9FB019B72
:1051E00005004343390050460493FFF757FC0498E9
:1051F0000B04310C1943884209D941446B1E884580
:1052000000D907E1884200D804E1023D4144049BF3
:10521000CB1A180039000493FFF7BAFB019B8246B2
:105220004343390004980193FFF738FC01980B04BD
:105230003104090C194388420DD953464144013BBE
:10524000884500D9E8E0884200D8E5E002235B42C7
:105250009C464144E244019B2D04CE1A5146294309
:10526000059D4F462A000B04080C1B0C5A4345436E
:105270007B4378435B19170CFB189D4203D98025AB
:105280006D02AC4660441D0C12041B04120C28185D
:105290009B18864200D293E000D18EE0012319438F
:1052A000A04BE318002B00DC99E04A0700D09EE0F9
:1052B0005A46D20106D55A469B4B1A408023934644
:1052C000DB00E318994A934268DD0123029A984C67
:1052D0001A400023944698460022C5E680224B4699
:1052E000120313420AD05B46134206D11A4312033B
:1052F000120BAC4688468E4CB6E64B461A43120358
:10530000120BBC468A4CAFE603005A46283B9A4033
:1053100000239146984657E6584600F0D9FE2030C3
:1053200040E603005246283B9A400021934677E628
:1053300000F0CEFE20305FE6884500D2C7E64B463F
:10534000DE075D0843465B081E434346DB079A467B
:10535000C2E60025924500D333E7039E5946B44682
:10536000E244B245AD416D424544EB1801399845E0
:1053700007D2984200D97FE000D1BCE01D1A8B46CD
:105380001FE79845FAD1039D5545F2D943468B4610
:105390001D1A16E79B46CAE61500E7E65A46C908F5
:1053A00052070A435B0590465C0D5A460123029959
:1053B00052021940120B8C4656E6002B00D16FE7C3
:1053C00046444A1EB04529D91100864200D065E7FF
:1053D000039A934200D061E762E70121494201202C
:1053E000C21A382A21DD029B03409C4638E60F2270
:1053F0000A40042A00D15BE70A00111D9142924144
:105400005242934454E7474BE318002BE5DD012259
:105410005242F2E71D00FAE69A461CE7B04239D83C
:105420006ED011003AE702933AE71F2A3CDC2023B2
:105430009B1A0C005846994098404B1E99415B4678
:10544000D440D340204308431A00430709D00F2318
:105450000340042B05D00100081D88429B415B429C
:10546000D21813023AD50123029A01241A400023CC
:10547000944698460022F7E5022149428C46039D56
:10548000E344AC46E244AA45AD416D424544ED18C3
:105490002D1A96E68A1E03994D008D428941494294
:1054A0004144761803958FE71F204042C31A58469F
:1054B000D8400300202A28D040205D46821A95401B
:1054C00029434A1E91411943072300220B4009D06A
:1054D0000F2300220B400800042BBDD1010053070D
:1054E0005202120BC908194301238846029900246D
:1054F00019408C46B8E55245BED88B46002560E67B
:10550000039D9D42C6D3110062E70025D8E78022A3
:105510005B4612031A43019B1203120B9C468846FA
:10552000034CA1E5FF030000FFFFFFFEFE070000A4
:10553000FF070000F0B557464546DE464E46E0B54B
:105540000C0398464E00230B87B0070092469B46FB
:10555000760DCD0F002E6BD06D4B9E4235D0802442
:105560005B46420F2404DB0014431C43C3009946EE
:10557000684BA3469C46002300276644029343469B
:105580001C035A00DB0F5046240B520D984600D1E5
:1055900076E05F4B9A426DD08023410F1B040B4392
:1055A0005C49E4008C461C43C30000206244414631
:1055B000B6186940721C0191944607430F2F00D919
:1055C000B0E0554ABF00D25997465B46034399461F
:1055D00000D087E000239B46023308270293CEE7E2
:1055E00042460192022867D0032800D10EE201282A
:1055F00000D062E100230024002299460199014075
:10560000CDB2002112030B0D120B1B051343434AAD
:10561000240513401C436400ED0764082C434846EE
:10562000210007B03CBC90469946A246AB46F0BD6F
:10563000034399464FD05B46002B00D189E1584681
:1056400000F046FD03000B3B1C2B00DD7AE11D2220
:10565000D31A3A0001005C46DA4008398C40130046
:105660008F4023439B46B94600232D4E0027361A10
:10567000029384E7534623432AD10024022096E76D
:105680005346234320D0002C00D157E1200000F0E6
:105690001FFD03000B3B1C2B00DD49E11D21CB1A34
:1056A00051460200D9405346083A944093400C4377
:1056B0001B4A121A00207AE70125019B144C1D4059
:1056C0000023002299469CE70024002201206EE777
:1056D000534603206BE700239B4601330427002633
:1056E00002934CE7032381460C27029347E780226D
:1056F0000023002512039946054C82E75C464B4681
:1057000002986FE75C464B46019502986AE7C046EF
:10571000FF07000001FCFFFFB4670000FFFF0F80E0
:105720000DFCFFFF4A464946170C1A0C1B041B0CC4
:1057300008041900000C41431500884619007D43F8
:105740007943039589462900150045434D44029548
:1057500045462D0CAA46029D5544A94506D98A46C0
:10576000802149028946CA4451460391290C04917B
:10577000414609042D04090C88462900250C2404FF
:105780004144240C0591210041438846210079437E
:105790008A466843414650448146080C48446F435A
:1057A000824503D98021490289464F44010C89462C
:1057B00039004944029141460F0404993F0C884640
:1057C0000004C01980444146049159460F0C090455
:1057D000090C884659438A46390051438946414657
:1057E0004A435146090C8B467B43D2185A44934294
:1057F00003D980235B029B46D94451460904090C16
:105800008A46414661437C43130C12044B44524484
:10581000A1468A463C0041466C434D4351464D44A7
:105820000F0C7D19A94503D98021490288464444BB
:10583000049F0399B84641448B46834580414142C9
:105840008846514608042F04000C3F185846029918
:1058500010188946904292414F44BA4652429946A6
:105860009346C244D144CB448F42BF41C245894193
:1058700099459B41934592417F4249422D0C5242AA
:105880000F435B4213437F19FF185B463C19DB0D46
:10589000059A64021C43430213435D1EAB415A4602
:1058A000C00D034352021343E20156D501205A08AA
:1058B00003401343E207134364085A486044002836
:1058C0004DDD5A0709D00F221A40042A05D01A1DAF
:1058D0009A429B415B42E4181300E20104D5802008
:1058E000514AC00014406044504A904200DDE3E653
:1058F0000125DB0862071A436402019B9146220BD3
:105900004405640D1D407CE6802259461203114275
:1059100008D0144206D122431203120B4546994681
:10592000434C6EE65B461A431203120B404C68E68A
:1059300003005446283B9C400023B9E600F0C8FB16
:105940002030A6E60300283B9F400023BB46994633
:105950008AE600F0BDFB203074E6B446ADE70125D1
:105960002A1A382A06DD019B00241D40002300224C
:10597000994646E61F2A21DC20252000AD1A1E008C
:10598000AB40A840D6405D1EAB4130431843D440E5
:10599000430709D00F230340042B05D00300181D33
:1059A00098429B415B42E418230221D50125019BCB
:1059B00001241D4000230022994622E61F252100D4
:1059C0006D42281AC1400800202A1DD05F35AA1A4E
:1059D000944023435C1EA341072503431D4000223E
:1059E000002D09D00F2200241A401800042AD6D115
:1059F000030065076402220BDB082B43012599464F
:105A0000019B00241D40FCE50024E2E780220125E3
:105A10001203224301991203120B0D409946044CC4
:105A2000EFE5C046FF030000FFFFFFFEFE0700009A
:105A3000FF070000F0B54646D6464F460C03C0B5FA
:105A4000CD0F4E00610A440F0C43C1005800400DB9
:105A500084468A460F001903500F490A0143C6487D
:105A6000760DA846DB0FD200844500D1D8E0012096
:105A70004340AB4200D1A6E06046351A002D00DC61
:105A800005E1002810D10B00134300D1D7E06B1EB5
:105A9000002B00D04BE153469F1ABA458041641A4F
:105AA0004042241A01261EE0B34B9E4248D0802378
:105AB0001B041943382D00DD19E11F2D00DD4CE1D9
:105AC00020230F005B1B10009A409F40E840531EAC
:105AD0009A41E940074317435346DF1B611ABA4511
