:020000040001F9
:10B00000B82F0020B15D02001B07020019B5010036
:10B010000000000000000000000000000000000030
:10B02000000000000000000000000000AB21020052
:10B030000000000000000000B7370200233A0200C1
:10B04000933B0200A5DE0100B10E0200B73F0200F3
:10B05000BB46020000000000C1590200935E0200DE
:10B060009F5E0200B95E020095410200BB5E0200D5
:10B07000BD5E0200BF5E0200C15E0200C35E020050
:10B08000C55E02003F020200CD020200C75E020060
:10B0900043470200C95E02007F050200CB5E02004A
:10B0A000CD5E0200CF5E0200000000000000000044
:10B0B0000000000000000000000000000000000090
:10B0C00052000A4399001143009A12020A4301995F
:10B0D000090411438B4A80001150704700B583B0BA
:10B0E0000192002200920B000021FFF7E9FF07BD4B
:10B0F000704710B588B004A86B491CC91CC06B48C8
:10B10000009080214900019140180290039103238F
:10B11000674A694604A801F055FB002803D07A4A23
:10B12000282101F0C9FB794800F002F808B010BDF1
:10B130000EB430B5C0B0050043AC6846802149006C
:10B1400001F000FC22002900684601F0FDFB04002C
:10B150006D4602E001F07DFB6D1C28780028F9D1D6
:10B16000200040B0029930BC04B0084710B5102848
:10B1700001D1674810BD112801D1664810BD1228C1
:10B1800001D1654810BD132801D1644810BD1428B1
:10B1900001D1634810BD152801D1624810BD1728A0
:10B1A00001D1614810BD192801D1764810BD1A2877
:10B1B00001D1754810BD1B2801D1744810BD1C2851
:10B1C00001D1734810BD302801D1724810BD31281B
:10B1D00001D1714810BD322801D1704810BD33280B
:10B1E00001D16F4810BD342801D16E4810BD3528FB
:10B1F00001D16D4810BD362801D16C4810BD3728EB
:10B2000001D16B4810BD382801D16A4810BD3928DA
:10B2100001D1694810BD3A2801D1684810BD5028B5
:10B2200001D1674810BD512801D1664810BD522890
:10B2300001D1654810BD532801D1644810BD542880
:10B2400001D1634810BD552801D1624810BD624C40
:10B2500021E010B5002801D1604810BD012801D1BE
:10B260005F4810BD022801D15E4810BD032801D1FE
:10B270005D4810BD042801D15C4810BD052801D1EE
:10B280005B4810BD062801D15A4810BD072801D1DE
:10B29000594810BD594C02009A49200001F06AFB40
:10B2A000200010BD00000000A04B0200B8310020BB
:10B2B000F1B0010010B5002801D1514810BD01289E
:10B2C00001D1864810BD022801D1854810BD032850
:10B2D00001D18D4810BD042801D18C4810BD05282E
:10B2E00001D18B4810BD062801D18A4810BD07281E
:10B2F00001D1904810BD082801D18F4810BD8F4C56
:10B30000C9E7000000070050AC4B0200FC4B0200F4
:10B31000144C02002C4C0200484C0200684C020005
:10B32000884C0200A84C0200C44C020010B5002852
:10B3300001D1834810BD012801D1824810BD0228E7
:10B3400001D1814810BD032801D1804810BD0428D7
:10B3500001D17F4810BD052801D1944810BD0628B1
:10B3600001D1934810BD072801D1924810BD08288B
:10B3700001D1914810BD092801D1904810BD904CD1
:10B3800089E70000E44C0200FC4C0200184D02006A
:10B390002C4D0200484D02006C4D0200884D020009
:10B3A000A44D0200C04D0200E44D02000C4E02000C
:10B3B000244E0200484E0200604E0200744E02000D
:10B3C0008C4E0200A04E0200C44E0200E44E020069
:10B3D000F84E0200144F0200403B0020344F0200A0
:10B3E0004C4F0200684F0200844F0200A04F020041
:10B3F000BC4F0200DC4F020000500200603B002006
:10B400001C50020010B5002801D16E4810BD012863
:10B4100001D16D4810BD022801D16C4810BD05282E
:10B4200001D16B4810BD062801D16A4810BD07281C
:10B4300001D1694810BD082801D1684810BD0C2809
:10B4400001D1674810BD122801D1664810BD1328EC
:10B4500001D1654810BD142801D1644810BD1528DC
:10B4600001D1634810BD162801D1B94810BD1A2872
:10B4700001D1B84810BD1E2801D1B74810BD1F2802
:10B4800001D1B64810BD222801D1B54810BD2428ED
:10B4900001D1B44810BD282801D1B34810BD2928D6
:10B4A00001D1B24810BD2A2801D1B14810BD3A28B7
:10B4B00001D1B04810BD3B2801D1AF4810BD3C2898
:10B4C00001D1AE4810BD3D2801D1AD4810BD3E2888
:10B4D00001D1AC4810BDAC4CDDE60000305002009C
:10B4E0004850020070B582B004000D001600FFF74E
:10B4F00089FF00962B0002002100D748FFF718FEB5
:10B5000073BD00002C4F020064500200785002000E
:10B510008C500200A850020070479C489C49C161B1
:10B52000002202700122027142718160DA49C16019
:10B5300070470000C4500200E4500200803B00202D
:10B54000045102001C5102003C5102005C510200F7
:10B550007C51020070B50400FFF7E8FE03002200F2
:10B56000BE49BF48FFF7E4FDBE4D884E042C02D013
:10B57000052C09D012E0FFF7D0FF300051DF002882
:10B580000CD02A00722107E0FFF7C7FF300051DF1F
:10B59000002803D02A007821FFF7A4FF200001F043
:10B5A00095FC200002F0CFF870BD0000945102001D
:10B5B000AC510200DC510200F851020018520200A6
:10B5C000A03B0020305202004C5202007852020090
:10B5D000AC520200CC520200F45202001853020096
:10B5E000345302005C53020090530200BC5302002B
:10B5F000F0530200F0B50020AB498A7D002A4FD0FD
:10B600008875AA4A1378DE06F40F64419D06EE0F92
:10B61000B50025435C06E60FF4002C43DD092D013F
:10B6200025430D715478E5096D41DE07760F2E43F1
:10B630009D07EF0FFD0035435B07DE0F33012B4302
:10B640008B716607F30F5B412507EE0FB5001D43B5
:10B65000E306DE0FF3002B43A506EE0F35011D4375
:10B660000D7292789306DD0F6B005506EE0FB50054
:10B670001D43D309DB002B43E507EC0E1C438C7202
:10B680009307DC0F63005407E50FAC001C4313075E
:10B69000DD0FEB002343D206D40F22011A430A73B5
:10B6A000CA7D002A52D0C875AC480278D309540626
:10B6B000E50F6C001C439306DD0FAB002343D4065B
:10B6C000E50FEC001C431307DD0F2B0123434B71E7
:10B6D000437895089607F40F6D086441D5076A0F03
:10B6E0002243DC09E40014435A06D50F2A01224301
:10B6F000CA715C09DD06EA0F640852411C07E50FB8
:10B70000AC0014435A07D50FEA0022439C07E50F0B
:10B710002C0114434C728078C2095B0852414306E5
:10B72000DC0FA30013438206D40FE2001A43CA724F
:10B7300003090407E20F5B0852414307DC0FA30033
:10B7400013438007C20FD00018434873F0BD0000B8
:10B75000205402004C540200705402009C54020019
:10B76000C4540200F0540200185502003055020083
:10B770005C550200845502009C550200C055020031
:10B78000E455020010560200C03B0020E03B0020C0
:10B7900010270000F8B5724F80256D02714C00260D
:10B7A000002803D0022837D03BD351E0A66126758C
:10B7B000207C002824D1012002F014F8012002F09E
:10B7C000A3F9012002F0B7F9002002F08EF96648D3
:10B7D00002F02EF9654802F037F955203249087712
:10B7E000324E03223100002002F05AF803223100C9
:10B7F000012002F055F802F03BF80120207402E02D
:10B80000012002F0CBF83D60E069594940185949E0
:10B810000860880D584914E0A661267502F042FBC5
:10B8200016E05648066002F0CBF802280BD0A6615D
:10B830002675022002F0B2F83D60E06950494018D8
:10B840004C49086004E0FFF768FEA46103202075FE
:10B8500014342000F2BD0000385602006856020081
:10B860007C5602008C56020080B5AE49AEA0FFF7B0
:10B870005FFCAE484FDF010009D1FFF74EFE3948AB
:10B8800051DF010002D050DF080002BD002002BDE0
:10B8900080B5A74904E00000A086010080B5A54955
:10B8A000A1A0FFF745FC01BD4C210020003C002079
:10B8B00038B505002020009001209F4C0021002D6C
:10B8C00005D1A07521636A469C49002005E0012D41
:10B8D00005D1E07561636A46204902F020F828002E
:10B8E00002F04EF85520207703221C342100280056
:10B8F00001F0D6FFFFF77EFE31BD80B59049CFE75E
:10B90000F8B59048182141608F4C0025256001262C
:10B91000066025608D4F3E6021680029FCD080685C
:10B92000E12109014843FF2102F069FC80B2009047
:10B9300025607E60E14D009864214843290002F0B3
:10B940005BFC0400652C00DB64242B00009A2100C2
:10B95000DB48FFF7EDFBE0B2F2BD0000203C002029
:10B9600004830040E03B00200403020108070605B1
:10B9700060F0FFFF4085004000E100E040810040B2
:10B9800018FCFFFF80B5032203210220FFF7A6FB6E
:10B99000032203210520FFF7A1FB032203210A2034
:10B9A000FFF79CFB032203210F20FFF797FB0322E5
:10B9B00003210E20FFF792FB032203210120FFF752
:10B9C0008DFB032203210420FFF788FB03220321C0
:10B9D0000720FFF783FB032203210820FFF77EFBEC
:10B9E000032203210D20FFF779FB0322032100200E
:10B9F000FFF774FB032203210320FFF76FFB0322F1
:10BA000003210620FFF76AFB032203210920FFF729
:10BA100065FB032203211320FFF760FB03220321B0
:10BA20001920FFF75BFB032203211D20FFF756FBC4
:10BA3000032203211C20FFF751FB032203211E20B8
:10BA4000FFF74CFB032203211820FFF747FB0322DB
:10BA500003211720FFF742FB032203211620FFF7E3
:10BA60003DFB032203211520FFF738FB01BDD0B5B4
:10BA70008AB00026019600962F4C009840002118AD
:10BA80000B794A7952011A438A843AD00021002264
:10BA9000230024331F5A012393401F4201D0110079
:10BAA00002E0521C102AF3DBB848E27C64235A43BC
:10BAB0008018009A14235A4380184900475A02A854
:10BAC000B349202202F006FC002002A98200895816
:10BAD0008F4206D1A17C012282400A43A274002732
:10BAE00002E0401C0828F0DB780403D53805000F7D
:10BAF000E07403E0F9B2A07C00F07AFB0198401CEE
:10BB000001900098401C00900528B6DB01980028A1
:10BB100004D1A074E674002100F06AFB0AB0D0BD25
:10BB200000000000D856020025730A0095B70100F6
:10BB3000F05602000C5702004C210020003C00206F
:10BB4000285702000075004000710040007000405E
:10BB500070B5904C216CC34D8A08D3018A06D60F6C
:10BB6000B2011A434B05DE0F730113430A04D60FCB
:10BB700032011A434B04DE0FF30013438A07D60F3A
:10BB8000B2001A43CB06DE0F730013430A06D60F2A
:10BB90001E432E700A0AD3018A04D60FB2011A433B
:10BBA000CE07B30E13430A07D60F32011A434B06D2
:10BBB000DE0FF30013438A05D60FB2001A430B03BE
:10BBC000DE0F730013438A01D60F1E436E704A0FB7
:10BBD000D301CA00D60FB2011A434B00DE0F730126
:10BBE0001343CA01D60F32011A430B02DE0FF300D2
:10BBF00013434A02D60FB2001A438902CB0F5900F1
:10BC00001143A970002804D003222900012001F06B
:10BC100047FE2878C1094206D30F5A000A4381061D
:10BC2000CB0F99001143C206D30FDA000A43010774
:10BC3000CB0F190111436171697883088607F20FF0
:10BC40005B085241C307580F1043CA09D200024390
:10BC50004806C30F18011043E0714A09CB06D80FFC
:10BC6000520840410A07D30F9A0002434807C30F06
:10BC7000D80010438A07D30F1A0102436272A878D2
:10BC8000C209490852414106CB0F9900114382066F
:10BC9000D30FDA000A43E27202090307D90F5208F0
:10BCA00049414207D30F9A000A438007C10FC800D9
:10BCB00010436073FFF7DBFE70BD0000B80B00009F
:10BCC0003C570200F8B50024324D687D002803D0AF
:10BCD0009448FFF72DFA6C75934801784278120268
:10BCE0000A43807800041043A863E96B884201D0BE
:10BCF000FFF7BDFEA86BE8638C4EB14F287E00288D
:10BD0000386810D0696C32008243914209D1A86C26
:10BD1000401CA864052812D129640020FFF718FFF1
:10BD20000DE02C760BE0296C32008243914206D064
:10BD3000386831008143696401202876AC64386832
:10BD4000864301D1EC6C641CEC64F1BD80B59D4A66
:10BD50009B218CE080B59B4A9B4989E080B5FFF729
:10BD6000CFFD0100994802F0B6FB00280BD008284F
:10BD700009D09749884206D09649884203D0914A13
:10BD80009549FFF7AFFB01BD00000000185B020002
:10BD90006C5702004C21002070B596B002A800211B
:10BDA000002206C0684606C0082101800024847075
:10BDB0000126C6702125057145718571684606808A
:10BDC00084700221C17045718571482104A800F07A
:10BDD000B9FD824804908248059004A90E724C7205
:10BDE0008E7202A8C8600E74684648610C76CC61F9
:10BDF0004C2088847B48FC22920082180A62FF2231
:10BE0000921C0A863223CC5403223323CA5436238D
:10BE1000CC548C632C228D542D23CC5434228D543D
:10BE20003523CC5443228D5444228D544523CC5485
:10BE300046228D5447228D543C228D543D228D54F0
:10BE40003E228C543F310D7004A9543003F01CF88D
:10BE5000002804D05B4AD5218900FFF743FB16B0C8
:10BE600070BD0000203C002080B5564AD8218900D2
:10BE7000FFF738FB01BDF0B583B004002078FFF771
:10BE8000E8F9804F0300227839007F48FFF750F926
:10BE9000A079022844D1E079002841D1514C01A871
:10BEA00000900023012200212000543003F0B8F854
:10BEB0000500444E03D032007449FFF713FB684677
:10BEC000027939007248FFF733F9607C00280FD1FE
:10BED0006946097989070BD5002D04D032006D49D8
:10BEE0002800FFF7FFFA6C48FFF722F9012010E065
:10BEF000002810D06846007980070CD4002D04D0AB
:10BF0000320066492800FFF7EDFA6548FFF710F99F
:10BF100000206074F7BD68460179B248FFF708F960
:10BF2000F7BD00008C570200003C0020FFE7E873DB
:10BF300030B585B00C002078FFF78BF9030022782C
:10BF400058495148FFF7F4F8012126480022237888
:10BF5000022B0ED0042B08D0052B02D0062B02D0CA
:10BF60002BE0017429E0027427E02000FFF783FF33
:10BF700023E06B46197002920392124D017C002956
:10BF80000DD0A188984A914217D1694603F0B4FBBD
:10BF9000082812D0002810D02A0094490BE0A1797B
:10BFA00001290AD1694603F0A7FB082805D000281B
:10BFB00003D02A00A249FFF795FA05B030BD000072
:10BFC000100500508C56020071020000182300205A
:10BFD00004300000013400007F02000031BF010086
:10BFE0004DBD01004C21002030B597B00400FFF793
:10BFF00061F90300220093492348FFF799F8924D15
:10C000009248002C04D0072C08D0082C20D037E010
:10C010003CDF002834D02A0098492FE0082102AAEA
:10C02000117111730EA9029106A9049102A9503051
:10C0300003F0F2FA002803D02A009149FFF752FAE0
:10C0400002A801F0AAFB00281AD02A008D4915E0A9
:10C050000178FF2914D0694603F0B6FB8A4988426B
:10C060000ED0002803D02A008849FFF73BFA684623
:10C0700001F07EFB002803D02A008549FFF732FA41
:10C0800017B030BDC05702007C5602009303000079
:10C09000D857020099030000F05702009E030000E9
:10C0A000085802004058020070B588B0040020888B
:10C0B000102807DBFFF75AF80300228875497648F5
:10C0C000FFF736F8614D288C5F4E218802293CD05D
:10C0D00010290CD011291AD01B292DD03A2954D05F
:10C0E000512939D0522957D055294ED05EE0A08829
:10C0F0002884083460780290A0780190E07800905D
:10C1000023796279A1796548FFF712F84EE0247A25
:10C110002000FFF777F9010022006148FFF708F8D7
:10C12000604C2C8400206874280003F0BFFA2C8433
:10C13000032001F0DFF939E0207A002836D13CDF16
:10C14000002833D0320058492EE0002167DF002854
:10C150002CD03200554927E0A179002926D0A27BB6
:10C16000042A03D0062A01D0052A1FD103AA0229D6
:10C1700000D001211170C1214900918003A9A8DFDD
:10C18000002813D032004A490EE0132176DF002840
:10C190000CD03200474907E0002300220021A9DF2C
:10C1A000002803D032004449FFF79CF908B070BD65
:10C1B00038B5040003F072FB2000FFF775FF200084
:10C1C00001F086FA200003F0D5FD204D2100280063
:10C1D000543002F0F5FA2100E6204000281802F061
:10C1E00093F831BD20580200222A0000D30300003A
:10C1F00030B587B005AD2870002000226A70A970A4
:10C20000E8706860114C208C2649884216D0049250
:10C210000392029201920092AB7829782748FEF7A8
:10C2200087FF05AB082200215434200002F0C0FE35
:10C23000002803D0044A2249FFF754F907B030BD63
:10C24000E70300004C5802008C5602004C210020ED
:10C2500038B505000C00100003D01A4A1A49FFF740
:10C2600041F92078142801D0212804D11748290049
:10C27000042202F01BF8002032BD0000AF030000D2
:10C280001C0400001F040000058000002A040000B8
:10C290002C040000585802007C560200645802002A
:10C2A00090580200FFFF0000620400006D040000CF
:10C2B0007C040000850400008B040000B0580200DC
:10C2C000D30400008C560200FB0400004C21002027
:10C2D000F0B599B0FEF70DFFFFF754FB0020019079
:10C2E00000900023012201211120FEF7E9FE032422
:10C2F000D34F8025AD023D60FA2003F092FD7D60B2
:10C30000FA2003F08EFD641EF5D10025CD4E357662
:10C31000B564F564CC4B8A208000321805210020DA
:10C3200003F0D8FFC94C002803D02200C849FFF70A
:10C33000D9F8C84A0121C84804F00EF8002803D0F3
:10C340002200CE49FFF7CEF8CD4A0121CD4804F0B6
:10C3500003F8002803D02200CB49FFF7C3F8B868E0
:10C36000C1438801C70F3900C848FEF7E1FEC8483D
:10C3700000680090C74B4822C7483118684604F04F
:10C38000C2F8002803D02200C449FFF7ABF801AA85
:10C390000121002004F001F9002803D02200C04947
:10C3A000FFF7A0F8BF4804F00FF9002803D02200DF
:10C3B000BD49FFF797F801A804F00DF9002804D053
:10C3C00022009621C900FFF78DF8B84804F0C7F89D
:10C3D000002803D02200B649FFF784F8B54804F0DE
:10C3E000C6F8002804D022009721C900FFF77AF888
:10C3F000B14832180A21082004F00BF9002803D0B4
:10C400002200AE49FFF76EF868460770300003F06F
:10C41000CDF9002803D02200A949FFF763F800F006
:10C4200015FE002803D02200A649FFF75BF86846F6
:10C4300003F064F8002803D02200A349FFF752F864
:10C4400001AF0521781D00F07BFA312078710720BB
:10C45000B8711020F8719D4801900120387101A930
:10C460003000503003F0A0F8002803D02200984993
:10C47000FFF738F81120694608700A229549684686
:10C480007CDF002803D022009349FFF72BF8934864
:10C4900078DF002803D022009149FFF723F801A894
:10C4A0000021002206C001A8062101801822428036
:10C4B00081802B21C1807ADF002803D022008949A6
:10C4C000FFF710F838210AA800F03CFA0AA8022762
:10C4D0000770012181700521C1700121018289202D
:10C4E000800030180F9001A87F49242201F0F2FE4D
:10C4F0007E4800907E4B01AA00210AA800F073FF3D
:10C50000002803D022007B49FEF7ECFF6846077045
:10C5100079494180794981800121C180402102A867
:10C5200000F010FA764902A804F0EEF86846109080
:10C53000212702A83C2147543D30057002A804F091
:10C540003CF9002803D022006E49FEF7CBFF1421EE
:10C55000684600F0F7F900956846012101710295DF
:10C560006421017347738773C57307746946E620B6
:10C570004000301801F08DFF002804D02200B721C0
:10C580008900FEF7AFFFFFF707FC1C21684600F0AB
:10C59000D9F90095A02080020190F02000030290BC
:10C5A000684603210173C5810574059556480690B8
:10C5B000684603F08DFB002804D02200DD218900AD
:10C5C000FEF790FFFFF750F95048FEF7B1FD00224B
:10C5D000F0214903F2204000301803F001FF002849
:10C5E00004D02200DF218900FEF77CFF0022A42175
:10C5F00081208000301803F0F3FE002803D02200D1
:10C600004349FEF76FFF032000F074FF002803D0BA
:10C6100022004049FEF766FF03A871DF002803D01F
:10C6200022003D49FEF75EFF03A841780291817820
:10C630000191C178009103794279817937480DE001
:10C64000080500504C210020975D02008C56020026
:10C650008E0200005DBD010084590200FEF768FDF6
:10C660002F48FEF765FD04F02DF848DF0028FAD0CA
:10C6700022002C49FEF736FFF5E700BF92020000CA
:10C68000C5BC01008859020095020000145902003F
:10C690008C5902003F5E02003C040000A50400002B
:10C6A000A9040000E81F0020AC040000B1C1010093
:10C6B000B404000055B5010084040000BD0400006E
:10C6C0000F050000130500001605000051C201000F
:10C6D00026050000A0570200A2020000C1030000CE
:10C6E000A5020000AF020000F058020055BD010095
:10C6F000E9BF0100F604000015190000EEEE00008D
:10C70000AC570200C602000069BE010028590200B1
:10C710007F0300005E050000620500004059020032
:10C720006C590200310500001CB50178584C0129F4
:10C7300022D140680178200004F052F9002804D08A
:10C7400001216A461170019007E0A068E168081AAB
:10C75000012805D10020694608706846216A88478B
:10C76000A068A188E268101A81422AD301212534E9
:10C77000200004F0B7FA13BD022909D16A461170EE
:10C78000C068019001212000253004F0ABFA15E0CB
:10C79000002916D1210024312000103004F02DF999
:10C7A000002804D101212000243004F0E4F9A0691C
:10C7B000E169081A05D10320694608706846216AB4
:10C7C000884713BDF0B589B004000E001F00304D3E
:10C7D0002A62002E01D1072039E0726892B23168D6
:10C7E000280004F0E8F8002831D1F26892B2B1686C
:10C7F0002800103004F0DFF8002828D1684600BF78
:10C8000025A1202201F066FDA068069068462279E5
:10C81000002A00D00122027507776179002900D033
:10C820000E214175E0780290A07803902078019065
:10C83000607800901749684604F05EF9002806D138
:10C8400004F076FA01212535280004F04BFA09B0EE
:10C85000F0BD38B50E4C01002000103004F0C0F8D7
:10C86000050011D104F0C7F900280DD121002431B1
:10C870002000103004F0C1F8002805D10121243433
:10C88000200004F078F90500280032BD0000000007
:10C89000D43A002029C70100090000000B00000065
:10C8A0000A00000008000000000000000000000076
:10C8B00000E0D70103000000E0B56B46198001924B
:10C8C00002906A460021094804F0F6FA07BD10B547
:10C8D00084B0040068460C2100F034F802946A46E3
:10C8E0000021024804F0E8FA1FBD000001400000EA
:10C8F0001206130A1A43130C1A4300BF094205D04B
:10C90000830705D00270401C491EF9D17047000012
:10C91000130030B414001500103902D310393CC094
:10C92000FCD2490700D30CC000D504C0890002D353
:10C930000280801C002900D5027030BC70470000C6
:10C940000022DBE70022E3E716B50400009401AB08
:10C950000A00694606487844163004F0BBFA002104
:10C96000009A1170002801D40098001B16BD00BF6A
:10C97000DB2600000CB41CB5040004A80190009450
:10C9800001AB0A006946084878441C3004F0A2FA5A
:10C990000021009A1170002801D40098001B02B0F9
:10C9A000019910BC03B00847A326000000B5B948A0
:10C9B0000068C1490022D243904204D0096889B27C
:10C9C00001F01DFC00BD486800BD10B5CB4C2078BF
:10C9D000142148432118091D002000F049F920784E
:10C9E00000F016F96078401E60702078401CC0B2DC
:10C9F0000A2800D100202070002000F04CF810BD63
:10CA000080B5BE490A7814235A438918091D00F0DD
:10CA10002FF9042000F03FF801BD010000D170475C
:10CA200080B5112805D1BB48016B08220A43026377
:10CA300001BDFFF7E5FF01BD80B529DFFFF7EDFF81
:10CA400001BD38B5AD480178142251434418241D66
:10CA5000994D2A68E068A18840182169638892B2DC
:10CA60009A420CD22A6892B29B1A2A681204920C3B
:10CA7000C918C018FFF7E0FF286880B203E09A08E1
:10CA8000FFF7DAFF6088A349886231BD80B528DFEF
:10CA9000FFF7C3FF01BDF0B583B09E4C20709748EF
:10CAA000217800293AD0022906D034D303293CD179
:10CAB000206AFFF7EBFFF7BD256B01218D4325634E
:10CAC0000178142251434618361DF06801907A49C6
:10CAD000096889B201F093FB206202270090019857
:10CAE00071884018401E7449096889B201F087FBBB
:10CAF0000099814201D13D4300E0BD432563A06917
:10CB0000002804D1206B074001D1022000E0002062
:10CB100000F06AF8F7BDFFF794FFF7BD6162A1620C
:10CB20004078002801D000F075FAF7BD80B5FFF716
:10CB30003DFFC2490A680968401E92B2504389B25B
:10CB400001F05DFBFFF7A2FF01BD70B55A4D2E68E5
:10CB50002C68FFF72BFF2B683604B20C6D49096A6D
:10CB6000A4B26143401E9BB25843FFF765FF70BDFE
:10CB700080B56848006AFFF789FF01BDF8B55F48D6
:10CB80000178142251434418241DE7684A4E316845
:10CB900060883818A288801889B201F030FB0D0037
:10CBA000FFF704FF31685B4AD269401E89B24843EF
:10CBB000411960883818A388C018FFF73DFFF1BD00
:10CBC00010B5FFF7F3FE01003B48036804685148C5
:10CBD0008269491E9BB25943006A401EA4B2604359
:10CBE000FFF72AFF10BD000080B54A49487000BF1A
:10CBF00002A0497889004058804701BD2DCB010033
:10CC00004BCB010071CB01007DCB0100C1CB0100FA
:10CC10003A4914225043081800210171C1800122B1
:10CC2000C260016141610181704770B5334C657824
:10CC30000A2D1BD0267875190A2D00D30A3D14261B
:10CC40007543651928716A6103C92A000C3203C251
:10CC5000EB80049828816078401C60702D48007833
:10CC6000002801D100F0D6F9002070BD042070BD6D
:10CC700070B582B00C00274DE96A0091236902006B
:10CC8000217820000830A4680C2674432C196468AD
:10CC9000A04773BD1410001080B51F4801781422FE
:10CCA000514340180079042802D0FFF78EFE01BDE1
:10CCB0000120FFF7F0FE01BD1000001000B50F4885
:10CCC0000178142251434018001D5C490968C2686C
:10CCD0004388D21880881018401E89B201F08FFA5C
:10CCE00074490A6A824205D306D1C869401E804150
:10CCF000C00F00BD012000BD002000BDD0340020C9
:10CD000080B5C348016B0822914301634078FFF767
:10CD10006BFF01BD1C3A0020D0340020F8B5654CF3
:10CD2000276B38072DD4BD48017814225143401891
:10CD3000001DC1684288891880880818401E3F4934
:10CD4000096889B201F05BFAE5690026002D08D078
:10CD5000216A814205D1A661012038432063002069
:10CD600009E0FFF7ABFF002802D0A661022002E035
:10CD7000002D03D00320FFF737FFF1BDFFF78CFF35
:10CD8000F1BDFFF7BDFFF1BD80B5C04800780007D9
:10CD900002D4FFF781FF01BDFFF7B2FF01BD38B537
:10CDA000444C256B28071ED4206A401C2062A069D1
:10CDB000002801D0042010E0FFF780FF002801D0F8
:10CDC00002200AE0E06900280AD00120054203D1D0
:10CDD00028432063002000E00320FFF705FF31BD5A
:10CDE000FFF75AFF31BDFFF78BFF31BD80B5884893
:10CDF000016B0A0708D48A0702D501220A4302639D
:10CE00000220FFF7F1FE01BDFFF77AFF01BD80B5FB
:10CE10009E480078000703D40120FFF7E5FE01BD1E
:10CE2000FFF76EFF01BD80B52248016B08229143D8
:10CE300001630078FFF72FFE01BD00001000001015
:10CE400080B51C48016B08220378012B04D030D335
:10CE5000032B18D027D301BD0A4011D16F490A789E
:10CE600014235A438918091D4A88806A101A488079
:10CE7000000402D1FFF7A9FD01BDFFF7E2FD01BDEE
:10CE8000FFF7D1FF01BD0A40FAD1016A491C0162D6
:10CE9000FFF714FF002802D1FFF7FEFE01BD0320BB
:10CEA000FFF7F9FD01BD00BF03A1407880000858DD
:10CEB000804701BD1C3A00200FCE0100EDCD0100DE
:10CEC0009FCD010089CD01001DCD01000100504A18
:10CED0001078002800D1704780B504281BD00229A3
:10CEE00017D0032917D13021515C090711D4516A99
:10CEF000491C5162032908D0022802D0FFF7CBFD5C
:10CF000001BD5078FFF770FE01BD0D20FFF778FDE1
:10CF100001BDFFF795FF01BDF0B585B03F48017831
:10CF2000142251434618361DF0680190384CB06801
:10CF30000C214843201881896A465180C18911809B
:10CF400080680390AE4D2968019889B201F057F9C5
:10CF5000481E8041C00F03996A4652886B461B8861
:10CF60005A4389180291B2887188019B5B189B18FB
:10CF700000930023E361002809D0286880B2814231
:10CF800008D000980299884201D1002A02D0B068E6
:10CF9000022807D12968019889B201F030F920628E
:10CFA000032031E029680198801889B201F027F93F
:10CFB0008808A0612968009889B201F020F9002949
:10CFC00021D00098029988421DD00F46296886B268
:10CFD000BFB2380089B201F00FF900903000296823
:10CFE00089B201F009F901000098884201D1B81B0B
:10CFF00007E02F68BFB23000296889B201F0FCF861
:10D00000781A8008E0610220FFF745FD05B0F0BD09
:10D010001C3A002080B5014802E000BFD034002057
:10D020000178142251434018001D4188924AD16270
:10D030000078012804D0032805D0042803D001BDBE
:10D04000FFF729FD01BDFFF767FF01BD38B50024DB
:10D05000AC48048000252800FFF7DAFD6D1C0A2D7E
:10D06000F9D3854D2C82FFF7A1FC65490968801E24
:10D0700089B2484368612C626C60AC81EC812C7091
:10D080006C62AC6204202863002032BD4C3A002060
:10D09000F2B582B00500784C3020205C400701D406
:10D0A0000820FEBD002D04D0002902D028680028E9
:10D0B00001D10E20FEBD524E3068A98880B2884250
:10D0C00013D3102911DBE88800280ED0FFF76EFC7F
:10D0D0003368A9886269401E9BB25843EB884B4372
:10D0E000D318984201D3880701D00720FEBD278AB4
:10D0F0003800012801D10420FEBD029B1F60029B65
:10D100005A600C235843201882602B684360818149
:10D11000E988C1813068316836680092AB88EA8856
:10D12000534380B21818401E89B201F065F8B6B2B8
:10D130007043009A101860617F1C27820020FEBD9A
:10D1400010B5714B30241C5D640701D4082010BD5C
:10D15000002801D0002A01D10E2010BD0468002C47
:10D160000CD15C68002C09D09C8940686143401850
:10D170009968DB895C430919884201D3072010BDF7
:10D18000002111605060002010BDF2B582B05E4EEB
:10D190003021715C490701D40820FEBD02990029A5
:10D1A00001D0002801D10E20FEBD0168002912D156
:10D1B000716800290FD0B1890C004568B768F689FD
:10D1C0006643BE19B54206D2002A04D0914202D36A
:10D1D000D1188C4201DA0720FEBD0321029C0C42CB
:10D1E00003D10B4201D10D4201D01020FEBD0093AE
:10D1F0001300029A01000120FFF717FDFEBD000099
:10D2000010000010F2B582B03F4E3021715C49072A
:10D2100001D40820FEBD0299002901D0002801D1C7
:10D220000E20FEBD0168002912D1716800290FD0BF
:10D23000B1890C004568B768F6896643BE19B542E6
:10D2400006D2002A04D0914202D3D1188C4201DACE
:10D250000720FEBD0321029C0C4203D10B4201D1E9
:10D260000D4201D01020FEBD00931300029A010070
:10D270000420FFF7DAFCFEBD1C3A0020F1B582B0B5
:10D280000D00214C3020205C400701D40820FEBD59
:10D29000002D02D00298002801D10E20FEBD286882
:10D2A000002811D1606800280ED0A6896968A0689E
:10D2B000E7897743C019814206D2002A04D09642FA
:10D2C00002D3D718BE4201DA0720FEBD0326029F13
:10D2D000374203D1334201D1314201D01020FEBD8B
:10D2E0001600C918384600F0E1FF0096029B0022A4
:10D2F000022128002D680C26754364196468A04734
:10D300000020FEBDD03400201C3A0020F1B582B0D0
:10D310000C00254D3020285C400701D40820FEBDBC
:10D320000298002801D10E20FEBD0068002820D1FF
:10D33000686800281DD0A868E989AA895143461861
:10D3400002994F68B74214D2B90701D01020FEBD30
:10D35000381A114600F053FF00290AD12000A9898C
:10D3600000F04AFF002904D1002C02D0381986426F
:10D3700001D20720FEBD0020009023000022029968
:10D380000320FFF752FCFEBD08490978490701D484
:10D3900008207047002801D10E20704704494978C1
:10D3A00001600020704700001C3A00204C3A002029
:10D3B000D03400200179002902D1007B002800D060
:10D3C0000120704780B507214948FFF7BBFA01BD2E
:10D3D0000021425C002A01D001207047491C062927
:10D3E000F7D300207047F2B504001100002C01D0E3
:10D3F000002901D10E20F2BD0026B14DAE762B6280
:10D4000006986862AF48242200F064FFFFF7DAFF55
:10D4100028002830286028004830A860AA4D38210C
:10D420002800FFF78FFA20782870A078A870E0789D
:10D43000E870607868702000103003C82A0010324D
:10D4400003C22000083003C82A00083203C22000AB
:10D45000183003C82A00183203C29C48010040312A
:10D46000626A002A0FD069628860626A13880B8042
:10D4700092888A80002304E0676ABF68FF5CC75413
:10D480005B1C9342F8D3A26A002A19D00200203212
:10D490004A6102004C32AA62A26A93880B82128807
:10D4A0008A8106E0A26A9268925D831920331A701D
:10D4B000761C0A8A9642F5D32C22A25C2C23EA54CD
:10D4C000226A002A07D0020058322A62226A538850
:10D4D0004B8312880A836168002903D05C3068603E
:10D4E000606868600099280005F054F9F2BD0000FA
:10D4F00090200020F0B587B0714CA07600200090FD
:10D500006846FFF741FF0125082802D0002808D10E
:10D5100004E0684605F072F9002804D1009800285C
:10D5200001D02576C8E0FFF74DFFA07E654F7978E2
:10D53000002901D0012806D0B97800290CD0012893
:10D5400001D0022808D1216A080003D0657708209D
:10D55000884701E000206077A67E012E0BD1787805
:10D56000002805D020001130FFF732FF002802D13B
:10D570000220A07601E0022E0AD1B878002805D05A
:10D5800020001130FFF724FF002801D10320A076EE
:10D59000387B002804D1A07E032801D10420A07686
:10D5A000387E002805D1A07E042802D10020A07674
:10D5B0006076216A08000ED0A07E032801D00428DE
:10D5C00009D13878E27E01235340184203D02577F1
:10D5D0000720884701E000202077182101A8FFF7E5
:10D5E000B1F901AE00203070029030720490A07E3C
:10D5F000012806D054D3032815D00AD3042830D0EC
:10D600004EE02000103002903570002030616576C9
:10D6100049E02000103002903570B8687082786858
:10D62000308202202CE078697082386930822000D4
:10D63000FFF7C0FE39780140E07E012242401142EE
:10D6400001D103201CE002203072049404201E4902
:10D65000C87000211C4805F09DF800282DD1052038
:10D660001DE0F8693082386A70822000FFF7A2FE60
:10D6700039780140E07E01224240114202D104206B
:10D68000607610E002203072049404200E49C870C5
:10D6900000210D4805F07EF800280ED106206076A6
:10D6A000A07E002803D001A873DF002805D1216ADD
:10D6B000080001D0607E8847002007B0F0BD000060
:10D6C00080200020FC3A0020E4390020B0380020FF
:10D6D00010B50021424C0288102A04D0112A08D02B
:10D6E0001B2A0DD010BD817D01292BD18088E083BC
:10D6F00010BDE1768088E18B884223D1012012E0C1
:10D70000007A00281ED1A07E012806D01AD3032853
:10D7100007D004D304280FD010BD022003E003205B
:10D7200001E060760420FFF7E5FE00280AD0616A78
:10D730000A0007D0884710BD6176216A080001D031
:10D740000020884710BD801E012800D9704710B501
:10D75000234C207E00280AD000202076A07EFFF7F0
:10D76000C9FE002803D0616A0A0000D0884710BDB6
:10D7700030B51B494A7F002A01D1082030BD02780C
:10D780000A7400220023C4186478CD186C745B1CE2
:10D79000062BF8DB4A77002030BDF0B510490A7F30
:10D7A000002A01D10820F0BD02790A71037B0B73B6
:10D7B0000024002505E0AE008768BF598E19B764C4
:10D7C0006D1C9D42F7D3002305E09D000668765945
:10D7D0004D19AE625B1C9342F7D30C770020F0BD6D
:10D7E00080200020F8B5050000208F4C002121701A
:10D7F0006061201D002200230EC08C4805F0A7F8B0
:10D800002061002830D0A16920001C3000F0E9F828
:10D8100069468870280000F0C1F869464870042005
:10D8200005F04CFA002000F06FF9694608700120FD
:10D8300000F034F90700022000F014F90500002080
:10D8400000F079F90600012005F0C0FA68468078FA
:10D8500069464978014068460078084007403D40E5
:10D86000354201D00120F2BD012020700020F2BD20
:10D8700080B56D480169002903D1022101700020A3
:10D8800002BD05F0FAF8012002BD80B505F02AF9C5
:10D89000002802D105F013F901BDFEF72EF801BDF5
:10D8A000F2B505001600604C082D01D3042031E0CC
:10D8B000002901D103202DE0212E01D3062029E0EB
:10D8C00005F08AF9032801D3092023E0280005F098
:10D8D00087F9032801D30A201CE005F085F9022806
:10D8E00001D2082016E005F02BF907003E70787889
:10D8F00001210143797032000099B81C00F0D6FC78
:10D900003900E8B205F02FF9002806D1614805F08A
:10D91000ADFE0F2020700020F2BD0120F2BDF8B551
:10D9200004000D001700404E05F05AF9002801D1FF
:10D930000B2022E0002D01D103201EE0200005F085
:10D9400047F939680078814201D2062015E02000AD
:10D9500005F030F904000CD0801C0AD022783A601F
:10D96000A11C280000F0A2FC200005F0F0F8012026
:10D97000F2BD494805F07AFE0F2030700020F2BD5C
:10D9800080B5082800D304E0C0B205F033F90120C7
:10D9900002BD042024490870002002BD80B5002883
:10D9A00003D0022808D005D308E0012005F0A2F832
:10D9B000012002BD0220F9E70020F7E70520E9E792
:10D9C00080B505F0AAF8002809D0022802D003D2B9
:10D9D000002002BD012002BD4A4805F047FE02209A
:10D9E00002BD10B5104C2269527E002A01D00220DF
:10D9F00008E0112901D2002901D1072002E0002806
:10DA000003D103202070002010BDA1610A4601004F
:10DA100020001C3000F04AFCA1691C34200005F0F5
:10DA200037F9012010BD00008426002069DB0100C9
:10DA300080B50B490A69527E002A01D00220AAE76C
:10DA400005F0E1F8012002BD80B505490A69527E62
:10DA5000002A01D002209EE705F0DDF8012002BD7A
:10DA60008426002080B5010002203E4A13695B7EB7
:10DA7000002B0CD1002903D0022905D006D20020AA
:10DA800005F079F9012002BD0120F9E70E201070A0
:10DA9000002002BDDD0005000501050080B5010084
:10DAA0000020304A13695B7E002B01D0022019E070
:10DAB000062916D801A35B5C9F4400BF080A121612
:10DAC0001A1E2200042005F021F9012002BDFC20CD
:10DAD000F9E7F820F7E7F420F5E7F020F3E7EC208A
:10DAE000F1E70E201070002002BD80B55F490A6981
:10DAF000527E002A01D002204DE705F001F90120F5
:10DB000002BD00007001050080B501000020574AE9
:10DB100013695B7E002B01D0022009E0002902D0AE
:10DB2000012904D1012005F05CF9012002BD0E207D
:10DB30001070002002BD80B5010000204B4A13691F
:10DB40005B7E002B01D0022009E0002902D00129D0
:10DB500004D1012005F04BF9012002BD0E20107008
:10DB6000002002BD8426002077B583B001A80021E3
:10DB7000002206C06846016003A84478049D3B4823
:10DB800001AE6946097B052966D801A2525C97441B
:10DB900004366AA8A29C03A8C078307003A8008944
:10DBA000708003A84089B08003A8022140564142FA
:10DBB000F180280004F0CBFF01A803C80A0001008F
:10DBC0002000FDF765FE4AE00069407E002802D192
:10DBD000274805F04BFD280004F0B9FF0020307005
:10DBE00003A80089708003A84089B08001A803C8F9
:10DBF0000A0001002000FDF751FE30E0684603A94D
:10DC0000C978017003A9022289564A4242800078ED
:10DC1000002807D0002D02D1164805F027FD280066
:10DC200004F095FF00992000FDF742FE17E0FDF794
:10DC300064FE14E0C046C04611E08168491C816062
:10DC4000017900290BD0C168002902D1FFF71DFE20
:10DC500005E0491EC16002E0074805F007FD06B077
:10DC600070BD02490F220A70486170478426002067
:10DC7000B5030500C3030500E30305000121C00649
:10DC8000C00E81407A48016070470121C006C00E75
:10DC900081407848016070470121C006C00E814074
:10DCA0007548016070470000401E00BF00BF00BF04
:10DCB00000BF00BF00BF00BF00BF00BF00BF00BF6C
:10DCC00000BFF1D1704710B56C4C60620120FFF7C6
:10DCD000DCFF6B486B494160F031016000F09BF85C
:10DCE000002020700321617060602061A082A07517
:10DCF0000120FFF7C3FF200010BDF8B50400624803
:10DD0000210147185D4D287D002802D05F4805F0AD
:10DD1000ADFC200000F010FA002802D15C4805F0AC
:10DD2000A5FC00266E750020C0435A4948600120BA
:10DD3000FFF7B2FF6C70696A0868A8604968E9601B
:10DD40002E61AE613A686A60032C16DA3A7A524B59
:10DD50001A60524AFB7A002B05D110601068002827
:10DD600008D14F4804E011601068002802D19F4894
:10DD700005F07CFC787A47490860686A007D0028D5
:10DD800005D0022C03D1AE750420AE4908600120F5
:10DD90006875F1BDF8B50400384D6F783A4839011F
:10DDA0004618687D002802D1914805F05FFC287D67
:10DDB000002802D0A44805F059FC01202875002154
:10DDC0006975032F1FDA002C01D131680860022F1A
:10DDD00004D0012F16D1B07A2870F1BDB07A287026
:10DDE000686A007D00280DD096480068400702D47C
:10DDF000964805F03BFC29480068002802D1944869
:10DE000005F034FCF1BD9348FAE793480068012817
:10DE100000D00020704770B50120FFF736FF0020CA
:10DE2000C0438E4908600120FFF736FF00241A48DE
:10DE300004608B4D2C6001208A49086088600F4E79
:10DE40003078012801D1062006E0022801D00328FD
:10DE500001D1022000E00120FFF726FF2C60002006
:10DE6000307000F0C7F874750120FFF707FF70BD30
:10DE700000E100E080E100E080E200E0AC3A002058
:10DE800020F50140141000409CE10100DB000A0075
:10DE9000DD000A0004130040001200400415004099
:10DEA00000010A00F8B5AB4C607800902069401C76
:10DEB0002061607D002802D09E4805F0D7FBA64D6A
:10DEC00000260127207803283ED1E86800283BD0AF
:10DED000009801282DD12069032802D09F4805F021
:10DEE000C5FB02202070A069401CA0619C48066010
:10DEF0000020C0439B4948600120FFF7CDFEEE6043
:10DF00002E602E616E600320607066602675606A08
:10DF1000017D002908D09449496CA175EE619349AF
:10DF20000F600421474A5160C06801005DD08047FE
:10DF3000F1BD022806D12069012838D08C4805F0AF
:10DF400095FB34E08B484EE0009803284AD0012826
:10DF50002BD12069012811D12E606E600020C043B2
:10DF6000804948600F60606A007D002802D004206C
:10DF700034490860E0687C490860F1BD022834D16A
:10DF8000EE602E612E60764806600120C043754920
:10DF90004860082008600320207066602675606A6B
:10DFA0000069010018D0804716E0022802D100F075
:10DFB0005BF8F1BD79A0617809014018017B002967
:10DFC00003D0E968002900D00126807A2070012062
:10DFD00000F010F8002E08D0606A8068010004D0BC
:10DFE0008047F1BD644805F041FBF1BD05010A0021
:10DFF00021010A00F8B50700002459480460564D75
:10E000005848544E3178032905D10821C94341604D
:10E010000821016008E00021C94341600120FFF7A9
:10E020003BFEEC60032070702C602C616C607460AF
:10E030003475002F04D0706A0069010000D0804759
:10E04000F1BD000004F5014022010A0040010A0070
:10E0500041010A003A010A0004110040081300407F
:10E060001011004010100040F8B53A4C22693D4FA5
:10E07000394D00263A480321012A43D10422227057
:10E08000A269521CA26101600120FFF705FEEE604B
:10E090002E602E616E6008203860606A007D002866
:10E0A0000FD03148406CA075344F3868400702D417
:10E0B000334805F0DBFAEE6101202C4908600420AA
:10E0C000B8602868002802D02E4805F0CFFAE8682A
:10E0D000002802D02C4805F0C9FA2C4800688107B6
:10E0E000C90F02D02A4805F0C1FA606AC068010071
:10E0F00000D08047606A417D00291AD000681A4923
:10E100000860F1BD022A11D1EE602E612E606E60B2
:10E11000066026700020C0437860617066602675D6
:10E12000606A0069010004D08047F1BD194805F01C
:10E130009DFAF1BD90010A0080B5022805D8054876
:10E140000178481E8041C00F02BD134805F08EFAC9
:10E15000002002BDAC3A0020001100409F010A00DF
:10E160000012004004130040041500401810004045
:10E17000A4010A00A9010A00D6010A0000F5014025
:10E18000AD020A00B6020A00B7020A0000E200E08F
:10E19000B8020A00E7020A00F9020A000010004073
:10E1A00010110040031000000100000000100040AA
:10E1B000000000000B0204000000000004100040FA
:10E1C000000000000708030100000000F4460028DA
:10E1D00004D4494200F013F840426047404200290D
:10E1E00005D45FD000F00BF84042494260474942F5
:10E1F00000F005F84942604703460B43E6D400228D
:10E20000030A8B420BD203098B4219D243088B427B
:10E210002ED2411A00D20146524110467047FF22C9
:10E2200009023FD012068B4205D3121209028B421B
:10E2300001D31212090203098B4219D300E0090A23
:10E24000C3098B4201D3CB01C01A524183098B42CF
:10E2500001D38B01C01A524143098B4201D34B01B8
:10E26000C01A524103098B4201D30B01C01A52411B
:10E27000C3088B4201D3CB00C01A524183088B42A2
:10E2800001D38B00C01A524143088B4201D34B008B
:10E29000C01A5241884200D3401A5241CFD201469F
:10E2A0001046704708B5C046C04608BD124207D0A8
:10E2B0008B0706D00B78491C0370401C521EF7D800
:10E2C0007047830706D00B78491C0370401C521E10
:10E2D000F9D1704770B4103A03D378C9103A78C0B6
:10E2E000FBD2530701D318C918C001D508C908C00B
:10E2F000D20704D30B880380891C801C002A01D517
:10E300000B78037070BC7047002800D1704780B54F
:10E31000002924D00A88102A04D0112A04D0502AB7
:10E3200005D001BD898800E08949418201BD027D97
:10E33000002A14D0891D0A8843899A420FD14A893C
:10E34000022A0CD10268130009D0097BCB07DB0F2E
:10E35000591E8941C90F6B4619706946904701BD26
:10E36000F0B591B004000E00207D00280FD00321ED
:10E3700003A8FEF7E7FA03A811210170717B03AA35
:10E3800051708178F9220A400221114381701C21C9
:10E3900009A8FEF7D7FA09A800780221014309A8C5
:10E3A00001700846EF210140207D0001084309A9C2
:10E3B000087000250A950C950D95207D002800D049
:10E3C00003A80E900F95012001A988706148694645
:10E3D000888003216846FEF7B5FAB07B694608706D
:10E3E000F07B48706F46B878E22101400220084374
:10E3F000B870307B69468872142104A8FEF7A2FA2F
:10E4000001A8049068460590012004A908814D8167
:10E41000888102A8801C0890A31D04AA09A9A088CD
:10E42000A2DF002833D1B06800282ED0012001A936
:10E43000887049486946888003216846FEF782FA59
:10E44000307C694608707D70B878E2210140022076
:10E450000843B870B16802A802F050F90600142110
:10E4600004A8FEF76FFA01A804906846059004A876
:10E4700006814581868102A8089022000E3204A9F7
:10E48000E088A3DF002801D001E0E581002011B081
:10E49000F0BD10B582B003000C00002B01D0002CA1
:10E4A00001D10E2016BD20681860294858822079B5
:10E4B0001875FF2018746846012181702749018072
:10E4C0001A1D69460120A0DF002803D12100180091
:10E4D000FFF746FF16BDF2B586B0030001D10E204E
:10E4E00034E000206946097E1A7C91422ED06946AC
:10E4F0000022002414C101246D462C80688006A8E7
:10E5000001906A46D988588AA4DF00281ED168463F
:10E51000007E1874588A0E49884216D0187D00284B
:10E5200013D002A80021002200260027C6C002A89E
:10E53000D988018084706988818068460490019838
:10E54000059002A9588AA6DF00E0082007B0F0BDB8
:10E55000FFFF0000192A0000082900000F18000022
:10E5600081B000BF05A31B6800936B461880684606
:10E570008170C270009801B0704700000000000078
:10E580003EB50300BB2040001818898801801B1D80
:10E59000D988002914D001216C4621726A460024D2
:10E5A000002530C26A461180548002A90191D988A1
:10E5B0000088A4DF002803D019680A0000D088472B
:10E5C00037BD5389022B00D0704700B585B0036872
:10E5D000002B10D0127BD20701D5022200E00322CB
:10E5E0006B461A706A46121D0B8813804B88538045
:10E5F00069460268904705B000BD0368002B00D152
:10E60000704730B585B06B4604241C706C46241DE1
:10E610001588258055886580CA891A810A8A5A8199
:10E620001231039169460268904705B030BD38B594
:10E630001400002200E0521C857CD2B2AA4207D20C
:10E640000A2555434519AD8AA942F4D1012120E09C
:10E65000002200E0521C7825455DD2B2AA4208D2C1
:10E660000A25554345197A352D88A942F2D1022150
:10E670000FE0002200E0521CDE23C35CD2B29A42BB
:10E6800012D20A235343C318E0331B889942F2D1B4
:10E690000321BB48FFF764FF009068460188218092
:10E6A00041886180012032BD002032BDF0B587B0C5
:10E6B00004000E00B51D2988A72040002318002261
:10E6C000188C81420ED16889012859D12068002810
:10E6D00056D0287B002802D0012851D113E068468B
:10E6E000027112E06089814214D16889012847D102
:10E6F0002068002844D0287B002803D001283FD17F
:10E70000062000E005206946087101A92000226862
:10E71000904735E09B489F88B94206D01F88B94290
:10E7200008D011309F8AB94201D1002114E01B8A20
:10E73000994205D10021FFF713FF00901BE0521C06
:10E74000A37CD2B29A4210D20A235343E3181B8B04
:10E750009942F4D101211A30FFF702FF00902A00FC
:10E7600069462000FFF72DFF0AE06A462000FFF708
:10E770005EFF002804D06A4631002000FFF73DFF0D
:10E7800007B0F0BD30B587B005000C00A01D0178C2
:10E79000012913D16A4641882800FFF748FF002865
:10E7A0000CD02868002809D0072069460871009815
:10E7B0000290059401A928002A68904707B030BD4F
:10E7C00080B50A88102A06D0112A07D0502A0AD00C
:10E7D000512A0BD001BDFFF7D3FE01BDB849BB22C2
:10E7E0005200815201BDFFF761FF01BDFFF7CAFF73
:10E7F00001BDF0B58FB004000D001C2108A8FEF784
:10E80000A1F808A800780621014308A80170002695
:10E8100009960B960C960D960E96012702A8877006
:10E82000A849018003216846FEF78CF828786946DC
:10E8300008706878487068468178E2220A400221B0
:10E8400011438170142103A8FEF77CF869460F710B
:10E8500002A803906846049003A807814681878137
:10E8600001A8079023000A335AE2FDB590B00D00CD
:10E87000189E28780009C0070FD5032102A8FEF7CB
:10E8800061F802A811210170317802AA51708178D3
:10E89000F9220A400221114381701C2109A8FEF7C8
:10E8A00051F8287809A9087000240A940C940D9452
:10E8B00028780009C00701D502A800E000200E90CA
:10E8C0000F94012001A988702D4869468880032192
:10E8D0006846FEF737F8707869460870B078487077
:10E8E0006F46B878E12101401998C0000843032120
:10E8F0000143B970142104A8FEF724F801A804907C
:10E900006846059004ADAC6011A80088A881089401
:10E910001A9B04AA09A910980089A2DF00282CD10B
:10E92000012001A98870DB48694688800321684678
:10E93000FEF708F8707869460870B0784870B878C3
:10E94000E221014002200843B870142104A8FDF719
:10E95000F9FF01A8049068460590129903A801F0F8
:10E96000CDFE28816C812889A88103A808901A9A75
:10E97000083204A91A980088A3DF13B0F0BD000084
:10E980004D2A0000222A0000F1B594B00C001C2191
:10E9900009A8FDF7D7FF09A800780221014309A8BB
:10E9A000017000250A950C950D950E950F95012087
:10E9B00001A98870B8486946888003216846FDF738
:10E9C000C1FF2C20205C694608702D20205C487017
:10E9D0006E46B078E321014003200843B070142153
:10E9E00004A8FDF7AFFF01A8049068460590200039
:10E9F0002030808804A908814D8120002030808843
:10EA00008881206A08901498A22149004018039038
:10EA1000034604AA09A914980089A2DF00284CD152
:10EA2000200020308079002806D020002030806827
:10EA3000002801D1072040E0002700E07F1C2000D3
:10EA400020308079874237DA012001A98870934805
:10EA50006946888003216846FDF774FF21203070E5
:10EA60007570B078E221014002200843B07010AA0E
:10EA700002A9200020308068BB00C01865DF002894
:10EA80001BD1142104A8FDF75DFF01A8049068467E
:10EA90000590007A04A9088104AA5581888110A8EC
:10EAA00008901498A6214900421804A903980088E8
:10EAB000A3DF0028C2D000E0002015B0F0BD0000A8
:10EAC000FFFF00004E2A0000F3B58FB014001D00B8
:10EAD000032101A8FDF736FF01A811210170297853
:10EAE00001AA517002268178F9220A4002211143BD
:10EAF00081701C2103A8FDF725FF6846007B0221D9
:10EB0000014368460173F7200840A9780A07120FED
:10EB100000D00122D1000143102008436946087348
:10EB2000002704970697079701A80890099702A85D
:10EB30000121817010A90988018003216846FDF731
:10EB400001FF687869460870A8784870684681783F
:10EB5000E2220A401643867014210AA8FDF7F2FE4D
:10EB600002A80A9068460B900AA8876084810E97D5
:10EB7000169B0AAA03A90F980089A2DF11B0F0BD65
:10EB8000F0B58FB004000D001C2107A8FDF7DAFED8
:10EB90006846007F0E2101436846017700260896EB
:10EBA0000A960B960C960D96012701A887703C4992
:10EBB000018003216846FDF7C5FE4620285C6946B2
:10EBC000087047352878487068468178E2220A4004
:10EBD000022111438170142102A8FDF7B3FE01A8A0
:10EBE00002906846039002A8866087810696AB2053
:10EBF0004000231802AA07A994E0F0B58FB00500E1
:10EC00000C001C2108A8FDF79DFE022708A800782B
:10EC10000221014308A80170002609960B960C9664
:10EC20000D960E9602A8012181701E4901800321D4
:10EC30006846FDF787FE3420205C69460870352061
:10EC4000205C487068468178E2220A40174387704A
:10EC50003034218801A80170090A4170A1788170BF
:10EC6000E178C170142103A8FDF76CFE02A803909F
:10EC70006846049003A804210181468101898181AD
:10EC800001A80790B32040002B1803AA08A92889DF
:10EC900049E00000082900004B2A00000729000075
:10ECA000322A00004A2A0000F0B58FB004000D009F
:10ECB0001C2108A8FDF746FE08A80078042101439E
:10ECC00008A80170002609960B960C960D960E96D4
:10ECD000012702A88770B549018003216846FDF726
:10ECE00031FE2878694608706878487068468178EF
:10ECF000E2220A4002211143817069460E711421FB
:10ED000003A8FDF71FFE02A803906846049003A81D
:10ED100007814681878101A80790B720400023180A
:10ED200003AA08A92089A2DF0FB0F0BDF0B585B015
:10ED300006000D00A87A002839D0E868002836D0EF
:10ED4000002401E0641CE4B2A87A84422FDAE86867
:10ED5000E1004718012103A8FDF7F4FD6846007B98
:10ED60000221014368460173B8790007000F00D003
:10ED700001206946097BF7220A40C0001043102198
:10ED80000143684601730A20604330181430029032
:10ED9000F879C107C90F0191381D0090BB1C3A8852
:10EDA00003A93000FFF761FD0028CBD000E0002070
:10EDB00005B0F0BDF0B585B006000D00287C002838
:10EDC0002AD06869002827D0002401E0641CE4B23E
:10EDD000287C844220DA6869E1004718012103A8F1
:10EDE000FDF7B0FD6846007B0E21014368460173C4
:10EDF0000A20604330187A300290F879C107C90FB1
:10EE00000191381D0090BB1C3A8803A93000FFF720
:10EE10002CFD0028DAD000E0002005B0F0BDF0B5F0
:10EE200085B006000D00287E00282AD0E869002859
:10EE300027D0002401E0641CE4B2287E844220DA5A
:10EE4000E869E1004718012103A8FDF77BFD68464A
:10EE5000007B0A210143684601730A206043301891
:10EE6000E0300290F879C107C90F0191381D009078
:10EE7000BB1C3A8803A93000FFF7F7FC0028DAD062
:10EE800000E0002005B0F0BD30B583B005000C00F7
:10EE9000A07A0B2805DA207C0B2802DA207E0B28CA
:10EEA00001DB07203EBD2068286060686860A07AAA
:10EEB000A874207C78216854207EDE216854544850
:10EEC0009831685201A801218170524901802A00BD
:10EED000083201A90120A0DF002866D100236A467C
:10EEE00000E05B1C3620205CDBB2834207D2A06BC3
:10EEF0005900415A2889A1DF0028F2D03EBD207A6E
:10EF0000002802D1607A002806D021003C31280078
:10EF1000FFF76FFC002848D121002800FFF706FF0B
:10EF2000002842D121002800FFF744FF00283CD1EF
:10EF300021002800FFF773FF002836D121002800A8
:10EF4000FFF722FD002830D1207A002812D0A72018
:10EF50004000281800902300433308222E4928003F
:10EF6000FFF7B2FD002820D121002800FFF708FE9E
:10EF700000281AD1607A00280CD0AF204000281851
:10EF8000009023004033082224492800FFF79CFD0D
:10EF900000280AD121002800FFF72FFE002804D105
:10EFA0003E3421002800FFF77FFE3EBD4C2A0000C2
:10EFB000F0B585B0847CA14226D2BB24640004193C
:10EFC0002588134EB5421DD06D462A8001AD00261E
:10EFD0000027C0C5C0C501AD0A2671434018808A0C
:10EFE00028800120A870AF8068460390049301A98F
:10EFF0002088A6DF002808D169460988914204D0FC
:10F000000C2002E0082000E0072005B0F0BD000061
:10F01000FFFF000012180000222A0000332A00001F
:10F020007CB56C460025002660C46C462280638057
:10F03000069A01926A460A23594341187A3109888F
:10F04000BB235B00C05AA5DF76BD0268531C03607A
:10F0500011707047A1490A6D012383409A430A65E4
:10F06000704780B59E490C225043081801218172D7
:10F070009C490181FF21C1720721FDF761FC01BD9F
:10F0800038B5040098481C21614345180621280022
:10F090001130FDF755FC10212800FDF751FCFF2031
:10F0A0002874A8768F4828832000FFF7D3FF31BD4E
:10F0B00030B5030008208A4CA57A294209D0894836
:10F0C000834202D02089834202D10020106030BDEB
:10F0D000052030BD30B583B004006A46A1B2AF4808
:10F0E000FEF72EF8050008D158216846FEF70EF904
:10F0F000050002D12000FFF7C3FF28003EBD7FB509
:10F1000006000525002478481C2161434018002E84
:10F110000AD169460989008B81420CD0641C072CF6
:10F12000F1D3280004B070BD07223100103004F084
:10F13000A1FA0028F2D1019804600025F1E780B51A
:10F14000974B1B68984701BD00207047F1B582B00E
:10F150000D00624E6A46817830005430FDF7F0FFB2
:10F16000002842D15E4F029840780C21484338185D
:10F17000807A400601D4022D01D18A4C04E0012D91
:10F1800001D1894C00E0894C00231C22564884465A
:10F19000029881781C204143604641186846A04788
:10F1A000002815D1022D20D0029840780C21484328
:10F1B0003818817ABF220A4082721C231C220298CE
:10F1C00040781C214843311818316846A04701E0B7
:10F1D000022D0AD002996846C74A0B780C24634373
:10F1E000F3189B7A9B00D2589047F7BD00207047D8
:10F1F000F1B588B00D00142069460880384F03230C
:10F200006A4602A968780C24604338180089AADF8E
:10F2100000283DD168780190304E1C2148433418B5
:10F220006846028802A920003C3004F023FA002836
:10F230000CD101980C2148433818807A800727D4D4
:10F240001C2134342000FDF77BFB21E0A06B00285B
:10F2500001D0544F00E0544F0320606368781C21B4
:10F26000484330186946098881636846028802A9C4
:10F2700068781C23584330183C30FFF717F83823C0
:10F280001C2268781C214843311834310898B8474B
:10F29000002009B0F0BD0020704780B5FFF7A8FF3F
:10F2A00002BD0020704770B50D003D4C38231C2274
:10F2B000010068781C26704320183430FDF7DEFF0B
:10F2C00000280AD169781C22514361188A6B0023F7
:10F2D000DB439A4201D100228A6370BD3C38002092
:10F2E000A83C0020FFFF00009C3500200020704754
:10F2F00080B5FFF7D8FF02BD00207047F0B583B09E
:10F3000004000025009500220027607824491C2372
:10F310004343C918A34E0C23584330180190886BFF
:10F3200000280AD00198807AC0230340802B04D1A2
:10F3300008003C3000908A6B4F6B3B0092B2009902
:10F3400001980089A9DF0B280AD101270123009920
:10F350008C4661780C204143701800896146A9DF12
:10F36000A84B002800D01800012F16D1A64A0C2166
:10F3700060780C24604330180089A7DF00280CD087
:10F38000A249884208D0082806D0891C884203D0A8
:10F39000112801D00020FEBD1800FEBD90380020CD
:10F3A0003C38002005D201008BD1010049F1010059
:10F3B0000020704780B5FFF7A1FF02BDFFB593B0F5
:10F3C000934C206800282AD01C98592800D391E03B
:10F3D00003A800F0EBF9002801D0FDF778FA03AD9F
:10F3E00000272F7069460F70169807901C9806909A
:10F3F000002608AAB1B220005430FDF7A1FE002873
:10F4000008D1082208A9139804F034F9002801D182
:10F41000AE7002E0761C072EEBD3A878FF2869D0E7
:10F4200014A800780490202603280CD11C98582892
:10F4300006D04020694608706846007803214FE0F6
:10F4400068460670F8E716987249401A1C21FEF7C4
:10F45000D6FE07280FD205A801901598002804D1E0
:10F46000206DA978C840C00744D5A878FFF7F2FD01
:10F47000684606702CE0169920001830081A1C21E6
:10F48000FEF7BDFE002808D105A8019069460E7060
:10F490006F700AA8079006961AE01699200034307B
:10F4A000081A1C21FEF7ABFE002823D13020694644
:10F4B00008706F700120E8703A48807A800707D49E
:10F4C0001C2168781C22504320183430FDF738FA8C
:10F4D000049802286846007801D1012100E0022149
:10F4E00001436846017005A80190159A694603A872
:10F4F000FFF725FE17B0F0BD90F70100F0B585B01D
:10F50000070001D168484BE0414D00262E600020E5
:10F510006872A872FFF7A5FD1C2128003430FDF7A2
:10F5200011FA00242000FFF7ABFDFF202919087411
:10F53000641C072CF6D36C465820A0800720E0807E
:10F540006B480090290054316846FDF7A1FD002862
:10F5500026D1012028733878002819D100242D4F96
:10F5600002AAA1B228005430FDF7EAFD00280DD10F
:10F5700000231C2202A91C2060433818FDF77EFEE0
:10F58000002803D1641C072C0AD2E9E72E7307E098
:10F59000A188E088414389B254352800FDF7B6FEC2
:10F5A00005B0F0BDA83C002070B504000D00184E59
:10F5B000307B002801D14F4870BD002C04D0002DB5
:10F5C00002D02868010001D1374870BD3168002998
:10F5D00016D13060301D691D0522FEF767FE2879BF
:10F5E000B072307AFA210140022008433072F0797B
:10F5F000FB21014003200843F0710020207070BD02
:10F60000604870BD41800000FFFF00000230000034
:10F610003C3800209C350020F0B55C4A127B002A63
:10F6200012D0002807D0002905D00A68002A02D08D
:10F630008A68002A01D11C48F0BD0078002803D157
:10F6400052480068002801D12A48F0BD002000225D
:10F6500000234D4CE57AAB4202D1A57AAD071BD40D
:10F66000504D1C265E43AD190E7BB24209D2AE7ED0
:10F67000F60706D48E689700F551444FBF183B74C7
:10F68000521C0E79B04207D2AE7EB60704D41035B4
:10F690000E688700F551401C5B1C072BDAD30871FC
:10F6A0000A730020F0BD00000E80000080B53749CD
:10F6B0000A7B002A09D0002801D13B4802BD02780C
:10F6C000002A02D10968002901D10A4802BD8078C8
:10F6D0000100072906DA334A1C2359435118897E51
:10F6E000FF2901D12E4802BDFFF7F4FC02BD000046
:10F6F000BDF30100088000007CB504000D00234E1E
:10F70000307B00280BD0002C01D0002D01D12648E1
:10F7100076BD2078002802D13068002801D1294820
:10F7200076BD607800280DD11748807A012809D06D
:10F73000A078072806DA1B491C2250430818807E4F
:10F74000FF2801D13A4876BDE96800290BD0AA68A4
:10F75000002A08D0142A06D22878012803D13000C4
:10F760003C30FEF7A3FD6A46A17854363000FDF721
:10F77000E7FC2100684600BF05A22B789B00D25809
:10F78000904776BD04800000A83C00203C38002053
:10F79000EDF10100F1F1010097F201009BF201008F
:10F7A000108000009C3500200E800000002801D150
:10F7B00032487047FF21017041708170C170002094
:10F7C000704700000880000070B502000800194969
:10F7D0000B7B002B0BD0002A01D0002801D1274839
:10F7E00062BD1378002B02D10968002901D1244899
:10F7F00062BD244995780223FF2D0AD15278FF2A51
:10F8000014D00D4D0C267243AA18957A1D420DD0C6
:10F8100007E0194A1C2675435219957E1D4205D1F1
:10F82000103211000722FEF741FD0021080062BDE1
:10F83000108000003C380020A83C00207CB505006A
:10F84000114C6A46A97820005430FDF779FC002855
:10F8500011D11C231C22694668781C26704320188D
:10F860001830FDF70BFD2900684600BF07A2A37AF8
:10F870009B00D258904773BD9C3500200E8000003D
:10F8800008800000058000003C380020A3F2010041
:10F89000A7F20100EDF20100F1F20100F0B591B024
:10F8A0000400FF20019000200390BA4D287B00281F
:10F8B0004CD02868002849D002A8FFF777FF00281D
:10F8C00001D0FDF704F800200590201D07902C20A2
:10F8D00006A9088102AEFF20B070002030700090B1
:10F8E000208810280FD06A460221A088FFF7E0FB8D
:10F8F000002808D1A84800990C2251434018C07A2A
:10F90000B0700098707000981C214843281804902B
:10F91000A14800990C22514347184020802113220E
:10F920002388102B13D0112B51D0132B00D19CE026
:10F93000142B6BD0192B00D1EBE01A2B00D139E13D
:10F940001E2B00D166E1522B00D15BE178E1BD4F67
:10F950006A4601213800FFF7ABFB0028F6D18E483C
:10F9600000990C22514340180221817211216A46EC
:10F97000117600997170A1880181022181722100A4
:10F9800008310722FEF792FCE07DC10706D540084A
:10F990002818007CFF2809D0019007E03A0001A94F
:10F9A00008342000FFF7ABFB00280FD17A480099FC
:10F9B0000C22514340180199C172817A08220A43EE
:10F9C00082720198B07002A8FFF738FF24E1BA7A7A
:10F9D000FD201040B872020706D508420BD0002166
:10F9E00002A8FFF7B3FB06E0B078FF2803D0FFF7CB
:10F9F00047FBFF20B07010206749009A0C235A4340
:10FA00008918887212206946087605E1F87AFF287D
:10FA100016D1228A01A90020FFF771FB00280FD11F
:10FA20005D4800990C22514340180199C172817AB6
:10FA300008220A4382720198B07002A8FFF7FEFE06
:10FA400000981C2148435449009A0C235A438918B2
:10FA5000C97AFF2902D029181831039100237A4965
:10FA60000A180399A08886DFEAE069460A76B97A1F
:10FA700004220A43BA72F97AFF293DD139000020E5
:10FA800003901C237048039A5A438018827EFF2AF1
:10FA90001ED00398401C03900728F3D36B480590B1
:10FAA00000200D906848F97A1C22514340180E90AE
:10FAB00000200F90109004981830099000200A90B0
:10FAC0000B900C9009AB2A1D0021A0887FDF1DE060
:10FAD0000B78022B06D0FD23837610300722FEF729
:10FAE000E5FB01E0FE2181760398694608710198E3
:10FAF000B0700198F872D3E71043B87216206946C7
:10FB00000876002300228521A0887FDF0028ABD162
:10FB100082E0697AFE220A406A72BA7AFB211140B9
:10FB2000B97214226B461A76227A002A07D0014253
:10FB300072D1F87AFFF7CEFA207A05906CE0607AFD
:10FB40008008C00768D5B078FF2865D0B97A082248
:10FB50000A43BA72617B4908C90707D53A491C2292
:10FB600042438C18A17EFE220A40A276F97AFF2930
:10FB700052D035491C2250430C18387802280DD039
:10FB80002000103039000722FEF790FBA07EFD21F7
:10FB900009E000BF3C380020A83C00200498408DBC
:10FBA0002083A07EFE210140A176012102A8FFF75B
:10FBB000CDFA31E0BA7A207A112817D1100715D57D
:10FBC000142104983C30FCF7BBFE162069460876E9
:10FBD0001F4800990C2251434018817A60220A4341
:10FBE0008272687A02210143697215E01143B97289
:10FBF00015206946087602A816A1AA7A92008958AB
:10FC0000884709E002A800BF12A1AA7A9200895889
:10FC1000884715E068460276059A06A902A8FFF70C
:10FC20008EFA6846007E12280AD1094800990C22F3
:10FC300051434018807A012802D00098FFF711FA4A
:10FC400011B0F0BDFFFF00009C3500204380000094
:10FC5000A83C0020F9F20100FDF20100B1F301001F
:10FC6000B5F30100408861490A88904204D349886D
:10FC7000814201D3012070470020704738B55C4CA9
:10FC8000E08B5C49884222D0217F491C2177227B6E
:10FC9000C9B28A4208D3554975DF002817D0A16937
:10FCA0000A0014D0884731BD00252577217C002922
:10FCB00007D03B2176DF002803D0A1690A0000D0DD
:10FCC00088476169080002D068460570884731BDE1
:10FCD00070B50600464C200031001C22FEF7FAFAEF
:10FCE000002565773168414E002911D03000082287
:10FCF000FEF7DCFA30007ADF002808D13D48E083C7
:10FD000025773D4A002100BF3DA000F025FB70BDD6
:10FD100030007BDF0028F1D070BD38B50025344CB1
:10FD20003648FFF79FFF00281AD1607F002805D0D2
:10FD3000616908001CD06A46157017E0207F002812
:10FD400001D1616800E0A16800222000203000F0AD
:10FD500047FB00280CD0A1690A0009D0884707E0BA
:10FD60006169080004D001206A461070684688471F
:10FD7000657731BD38B5010000251D4C1F480A8844
:10FD8000102A06D0112A0FD0122A27D0502A0FD0BD
:10FD900031BD8A88E28318310822FEF787FA257779
:10FDA000E089002820D11DE01248E08325770AE091
:10FDB000891D0888E289904216D14889022813D10A
:10FDC000087BC0070ED42000203000F02DFB002857
:10FDD0000AD0A1690A0007D0884731BD083108223E
:10FDE000FEF764FAFFF799FF31BD0000C03C002028
:10FDF000A4390020FFFF00007DFC0100C83C00206A
:10FE0000C4390020401E00BF00BF00BF00BF00BFBC
:10FE100000BF00BF00BF00BF00BF00BF00BFF1D1E7
:10FE2000704701B505E00098401E00900348FFF7B9
:10FE3000E9FF00980028F6D101BD0000E7030000AB
:10FE400010B58207D30EFF249C40E2438907090EB8
:10FE50009940030004D5AA481B071B0F083B00E08C
:10FE6000A8489B089B00C01803681A401143016012
:10FE700010BD0000401E00BF00BF00BF00BF00BF9C
:10FE800000BF00BF00BF00BF00BF00BF00BFF1D177
:10FE9000704738B5802080029B4908609B488021CC
:10FEA0004902016401609A4C012525602F20FFF76B
:10FEB000E1FF6560974C002525612F20FFF7DAFFF1
:10FEC000E57031BDFFB5934AD0680390107869465C
:10FED0000871002069460B795C1E0C710121002B12
:10FEE00043D093686C462479E4001B1900931B7877
:10FEF00017E02C00ED69002D13D0BD42F9D1AC42C2
:10FF000007D1F669D660002E03D1AE4E3160106184
:10FF100011712E68ED69E561002D02D02C68A419DD
:10FF20002C60009C6478A342D4D0009C646818259F
:10FF30005D4364195B1C009DAD78DBB2AB4200D120
:10FF400000232578022D02D0032D07D0E9E764684D
:10FF50000294D66834002500029FCCE7D468002CB8
:10FF6000DFD02074E469D460F8E7D268039B9A423A
:10FF700000D0012004B0F0BDFEB5664AD168029100
:10FF800011786B46197100216B461B795C1E6D461A
:10FF90002C71002B65D093686C462479E4001B1902
:10FFA00000E0D46000282DD11C785D78AC42EBD005
:10FFB0005D6818266643AD19641C9E78E4B2B442AD
:10FFC00000D100241C706C682E78012EECD1267CA8
:10FFD000002EE9D1AE686660EE68A6602E69E66024
:10FFE0006D69A5611579002D00D06160156966689D
:10FFF0000096761B3602360AB34FBE4205D2A5687C
:020000040002F8
:1000000075190AE00400E069F0E7009EAD1B2D02BF
:100010002D0AA668B54202D2751B256000E021605A
:100020006160A16001252574E161D668002EB8D019
:1000300037682568AF4203D37D1B3560E661B0E7C2
:1000400000963768AF4205D2ED1B0096F669002E88
:1000500002D0F6E77F1B37602560E661009DEC610A
:10006000A0E7D068029A904201D00120FEBD002096
:10007000FEBDFEB52748C06800283DD0006802904C
:10008000B34C20680090234800690190B14D00985E
:100090000199461A2E40F61C8027BF021D48C078E1
:1000A000002810D1B748790801640160B64807609C
:1000B000B64807600120B64908602F20FFF7DAFE36
:1000C00001201449C8700298864200D206000198A7
:1000D00080192840E0632168009A801A2840891A14
:1000E0000D40ED1CA84209D22068E0632F20FFF7E5
:1000F000C1FEBA480760F7BDFFF7CBFEF7BD0000B1
:100100001CED00E000E400E080E100E008130140A5
:1001100004100140203B0020F0B585B00024C14D03
:1001200028690390E96802916A781100AB789A42D5
:100130000FD0491CC9B2022900D100218A00AA1897
:100140005269019280180002000A28610120009083
:1001500001E0019400946970FFF7B4FE0600E868BE
:10016000009900291FD00199009413E0C91A009E3C
:10017000F3180093002313600190D069D368002B1B
:1001800008D0039E009FF6193602360A5660936027
:10019000D461019C002805D0020013689942E5D281
:1001A000591A11600126E8602000FFF7E5FE0028DB
:1001B00001D1002E02D00298FFF75BFF00202871CA
:1001C00005B0F0BD081001404278521C8378D2B2CD
:1001D0009A4200D1002203789A4201D10020704750
:1001E0000A70416840781822504308187047F0B5EB
:1001F00083B00C0017001E00C00000909F4D01A9A5
:10020000A868009A8018FFF7DFFF002801D10420BA
:10021000FEBD0121017044604D4909688160C760DD
:1002200006610899416168460079A968009A8918B1
:1002300048708020C002694908600020FEBDF8B502
:100240008F480026066446648664C664066046607D
:10025000744CE568002D36D000963D480068216951
:10026000401A07023F0A2868874219D33F1A0099AB
:10027000081800902800ED69017C00290ED0067452
:1002800042698169E369180006D010009847002888
:1002900004D0FCF71CFB01E008009047002DE2D1E0
:1002A000A0786178814205D1401CA070C0B20228BC
:1002B00000D1A670A07880002018009941618020AC
:1002C000C00246490860F1BDFFFF7F0080B5FFF71F
:1002D00023FF01BDFBB5150003273D4204D10026D5
:1002E000504C002D02D1A6600720FEBDFFF7D1FDC6
:1002F0000298E0612770A56018350020A168C2004F
:1003000089180E704E706A4612798A704D6069467F
:100310000979182251436D18401C0328EEDBE66072
:100320006670A6708025ED02174805600321122033
:10033000FFF786FD15480560054D009868600321AC
:100340001120FFF77DFD286820610020FEBD000020
:1003500004150140FFFFFF00484B9B68002B09D0AC
:10036000130001D0002801D1072070470068037CEA
:10037000002B01D0082070470374417442610020B3
:10038000704700000413014080E200E000E100E05B
:1003900000100140EFF30580C205D20D1CD0103AC9
:1003A000032003211140C90053B2002B04D5354A64
:1003B0001B071B0F083B00E0334A9B089B00D258E9
:1003C000CA4091090840012802D0032802D003E066
:1003D00000207047012070470220704700E200E0D3
:1003E000F8B504000D00170024488068002808D0E4
:1003F000002C06D0052D01D20720F2BD606900282F
:1004000001D10820F2BD607C012801D12E0000E05E
:100410000026FFF7BFFF009733002A002100FFF7F7
:10042000E6FEF2BD203B0020F8B50400134DA8689D
:10043000002804D0002C02D06069002801D10820D7
:10044000F2BD00262674FFF7A5FFC7006946A8681D
:10045000C019FFF7B9FE002801D10420F2BD022126
:100460000170446068460078A968C9194870802006
:10047000C002064908600020F2BD0000203B0020B9
:10048000001101401CED00E000E400E000E200E0AB
:1004900080B500F011FD01BDDCB5534C207800287B
:1004A00030D00026A069002801D1012700E00027F4
:1004B0006069002800D10126002F0DD1684652DF67
:1004C000052801D1012707E0002802D0FCF7FFF939
:1004D00002E00098A1698847002E11D16088694622
:1004E000888001A9206961DF052801D1012607E084
:1004F000002802D0FCF7EBF902E020696169884727
:100500003742D9D0D3BD38B51D00002902D003230E
:10051000194201D0072032BD334C21616280E56071
:10052000324910DF002813D10120207030480068C4
:10053000800D0340042B0CD2002B0AD0022B08D0D4
:100540008020C003A168002905D12A490860002045
:1005500032BD294832BD616808436060F7E7010099
:1005600001D10E20704720494861002070470100EA
:1005700001D10E2070471C4988610020704780B56A
:100580001948C068010005D08047002804D0FCF756
:100590009EF901BDFFF780FF01BD70B504000D009D
:1005A000160014213000FCF7CDF901203080002125
:1005B0003161317BFE220A40327335727472002C35
:1005C00000D0B072002070BD81B00C49009100993C
:1005D000002001B0704782B0084901910199009153
:1005E000694660DF02B070477C3C00209104020045
:1005F00014E400E000E100E0022000008020002080
:100600003C4A9288904201D2401C00E00020C0B2D7
:10061000704710B593070DD1364B9A604C1CE4041B
:10062000240C1219DA6000225A701A7058809980CE
:10063000002010BD072010BDF5B583B00D002D4C76
:100640006088A8423BD32C4F0197002669460E7064
:10065000684603F023F82078694648706078FFF711
:10066000CFFF69464978884205D06078019060786C
:10067000FFF7C6FF60706846007803F025F8019820
:10068000B8421AD0C700A068C01904990160039944
:1006900000290FD0002D0DD02A00E0688446019B70
:1006A000608843436046C018FDF700FEA068C0198B
:1006B000858000E08680002002E0042000E0092020
:1006C00005B0F0BD38B50B4C0EE025782078FFF76B
:1006D00097FF2070E068618869434018A168EA00CC
:1006E0008A18918812689047207861788142ECD10D
:1006F00031BD0000983C0020FFFF00000A78027026
:10070000497841700220704738B505000C00200080
:1007100002F0F6FF28806C6031BDFEE70870000A29
:10072000487002207047F3B58FB014001D000846D2
:10073000002801D1FCF7CBF8002C02D10020FCF7F7
:10074000C6F81C2107A8FCF7FDF802266846007FC2
:100750000221014368460177002708970A970B9703
:100760000C970D9701A8012181706946898F01803E
:1007700003216846FCF7E6F828786946087068782F
:10078000487068468178E2220A4016438670142138
:1007900002A8FCF7D7F801A802906846039002A8C7
:1007A00004814781848110980690169B02AA07A9AC
:1007B00067480088A2DF11B0F0BDF0B585B0040035
:1007C00001A80121817063490180614D2A0001A9BE
:1007D0000120A0DF002843D12288002A09D0281D4B
:1007E000009023003C3361685B48FFF79CFF0028C2
:1007F00036D12289002A0AD028000C30009023002C
:100800003C33E1685548FFF78EFF002828D1228A43
:10081000002A0AD028001430009023003C3361697C
:100820004F48FFF780FF00281AD1228B002A0AD0F8
:1008300028001C30009023003C33E1694948FFF751
:1008400072FF00280CD1228C002A0AD02800243004
:10085000009023003C33616A4348FFF764FF00289F
:1008600074D1228D002A0AD028002C300090230059
:100870003C33E16A3D48FFF756FF002866D1236B01
:10088000002B27D002AA03CB083B107003CB083BF8
:100890000004000E507003CB083B000C907003CB9B
:1008A000083B000ED07003CB083B11719868507163
:1008B0009868000A90719868000CD0712800343054
:1008C000009023003C33082202A92948FFF72BFFA0
:1008D00000283BD1616B00290BD028003C300090F0
:1008E00023003C330A7909682248FFF71CFF0028DF
:1008F0002CD1A76B002F28D002AE38783070711C35
:100900007888FFF70BFF401CC0B200903118B88800
:10091000FFF704FF00990818C0B200903118F8885A
:10092000FFF7FCFE00990818C0B2072802D000208B
:10093000FBF7CDFF443500953C342300072202A984
:100940000D48FFF7F0FE002800D1002005B0F0BDF3
:10095000103900200A180000292A0000242A00006B
:10096000252A0000272A0000262A0000282A000045
:10097000232A00002A2A0000502A000010B502682D
:10098000C36884882340D154C168491CC16010BD2C
:1009900010B503688468611880880140585C107045
:1009A00010BD10B504000A000021FFF7F1FFA06898
:1009B000401CA06010BD10B5002901D10E2010BD53
:1009C000002A03D0531E14001C4001D0092010BD82
:1009D0000160511E818000218160C160002010BD36
:1009E00010B58268C36884889A1A944203D3FFF7CB
:1009F000C5FF002010BD042010BD80B58268C3680B
:100A00009A1A03D0FFF7CDFF002002BD052002BDDA
:100A10004058002804E0C12292008058014008009C
:100A200000D00120C0B27047844B01E0A123DB005D
:100A3000C01801608260704752000A439900114358
:100A4000009A12020A43019909041143A24A800044
:100A50001150704700B583B000210191009100232F
:100A600001220121FFF7E8FF07BD00B583B0002296
:100A7000019200920B000021FFF7DEFF07BDF8B5E1
:100A8000040001256E4F20680121814039602068F3
:100A9000FFF7E0FF00216068FFF7E7FF6948A16901
:100AA0000160617D227D0A438264A04E62682168F4
:100AB0003000FFF7B9FF207D01280ED10021A0688A
:100AC000FFF7D3FFE06885403D60E068FFF7C2FFB5
