:1000000040080020F52B0000CB1A00008B2C0000CC
:1000100000000000000000000000000000000000E0
:10002000000000000000000000000000972C00000D
:100030000000000000000000B12C0000B32C000004
:100040009729000025130000B92C0000BB2C0000EC
:10005000BD2C000000000000ED260000C12C0000B7
:10006000C32C0000C52C000055100000AF28000074
:10007000CB2C0000CD2C0000CF2C0000D12C000098
:10008000D32C0000BD280000D72C0000D92C000084
:10009000531B0000DD2C0000DF2C0000E12C0000D1
:1000A000E32C0000E52C0000000000000000000030
:1000B0000000000000000000000000000000000040
:1000C0000121C006C00E8140BF480160704710B5D5
:1000D0008207D30EFF249C40E2438907090E994012
:1000E000030004D5AD481B071B0F083B00E0B748D1
:1000F0009B089B00C01803681A401143016010BDA3
:1001000080F31088704770B50025B14C2561032637
:100110006660B048056001210160AF480168AF4AE0
:100120000A40026001680F22914306220A430260DE
:100130000168AB4A0A403104114301604168A94A91
:100140000A4042604168802252040A43426041688A
:10015000FF22914320220A4342604168BB4A0A4081
:1001600042600120FFF7ACFF00F070FFA061B848CB
:1001700060612660B74C200000F0E5FFE061B64CFE
:10018000607F00F0E5F926002036306800F086F93F
:10019000706800F08BF9601928300178280000F0B1
:1001A00091F96D1C082DF6DB307C00F0F9F9707CBC
:1001B00000F0FBF9B07C00F028FA70BD00B583B008
:1001C0000320B549086001F0E8FB401E012802D970
:1001D000801E05D007BD0021002001F0B4FA06E022
:1001E0000190009000230022002101F00FFB042861
:1001F00002D0B24801F065FC07BDF8B50600012049
:10020000FFF77EFF0127AE4C6770032020700025AA
:10021000A5706560A560E5602561656125838D48F1
:10022000056045608560C56005610575656225628C
:1002300000F06DFE300001F04CFC01F007FA0020E8
:1002400001F0C4FC20001C3001F0E6FC00210A2073
:10025000FFF73DFF00210120FFF739FF01211420A6
:10026000FFF735FF012000F09BF87B4EFF20306147
:1002700004207077A8493162A84971622822B754D6
:1002800002212923F15403222A23F2542B22B054B1
:1002900005202C22B05406202D22B05407202E22F7
:1002A000B05408202F22B0543022B554312031549C
:1002B000322177541E2000F048F99620800000F08B
:1002C00053F9022000F05AF90F2000F05DF90020E8
:1002D00000F060F9012000F0CEF9012000F0CEF925
:1002E000002000F0CEF9002001F092FB6920306080
:1002F0006078012802D09E4801F0E3FB2770A570CA
:100300006560A560E560256165612583FFF7FBFEFB
:100310000A20FFF7D5FE1420FFF7D2FE0020FFF7DA
:10032000EFFE2000F2BD10B5654C607E00281BD1A9
:10033000FFF7E9FE606A002802D18E4801F0C1FB98
:10034000206A002802D18C4801F0BBFB01F04DFC73
:10035000002802D0914801F0B4FB002001F03BFCE2
:100360000120607600F01CFC10BD80B50120FFF775
:10037000C7FE5348417E827801235340194203D07F
:100380000121817000F00CFC0020FFF7B9FE01BDD7
:100390004B48417E01204840704700001CED00E0C2
:1003A00010B504000120FFF7ABFE45480178A142DB
:1003B00008D04470407E002802D100F06FFC01E0BC
:1003C00000F0EEFB1FE0000080E200E000E400E04F
:1003D00004F50140FC1F004014150040FFFEFFFF24
:1003E000FFFFF0FFFFFFFFFD10B50120FFF788FEC4
:1003F00001F002FB3AE010B504000120FFF780FE97
:10040000200001F0FDFA0020FFF77AFE10BD38B59C
:1004100005000C000120FFF773FE2100280001F009
:10042000C5FA00280DD04F488178407E0122424015
:100430000A4301D100F0B4FB0020FFF761FE012068
:1004400032BDFFF75DFE002032BD0000FF00FFFF60
:1004500004110040D80B0020340B002010B504001C
:100460000120FFF74DFE200001F0BCFA040000203F
:10047000FFF746FE200010BD80B501F0AEFA02BDC8
:1004800080B501F0A6FA02BD80B501F0B0FA02BD58
:1004900080B501F0B9FA02BD08F5014080B52049E8
:1004A000086200F006FD7849086001BD80B51C496E
:1004B000486200F0FEFC7549086001BDE8010900D2
:1004C000680B002038B502000800082A1FD2144922
:1004D0008918283108709107CC0EFF23A340D94317
:1004E0006B4D042A09D22A681140296000F0D0FC23
:1004F0002968A0400843286031BD6A6811406960DE
:1005000000F0C6FC6968A0400843686031BD6148DE
:1005100001F0D7FA31BD000004070A0D05080B0EE3
:10052000340B002038B505000C0002D15A4801F008
:10053000C8FA002D02D1594801F0C3FA09484562B2
:100540000462002001F095FB31BD444948617047C9
:100550004249487752490A68524B134000041843F5
:1005600008607047680B00203C49486070470000F5
:100570003C0209005E0209005F02090080B53749AC
:10058000C86000F05BFC01BD80B53449886000F0B4
:1005900055FC01BD314948837047000066020900DF
:1005A0004149087089490860704780B588490870DA
:1005B00088490A68FF239A430A60002805D0022868
:1005C0000ED005D3032813D01BE00868086001BDD6
:1005D0000868012202430A60FF20886008300EE0AC
:1005E0000868022202430A607B4888607B4806E074
:1005F0000868032202430A60794888600020486046
:1006000001BD784801F05DFA01BD30B5764908704A
:100610007649774B774A784C784D002803D00228EA
:1006200013D007D330BD286014605360A148906098
:10063000A14810E001202860146053609F4890603A
:100640009F48D0609F48106130BD2860146053609F
:100650009D489060A948D060116130BD340B0020E6
:1006600038B50400A64DE869002802D1B24801F06F
:1006700028FA2C7531BDB14908767047AF494876E4
:100680007047AE49087770471C15004020150040A0
:1006900024150040390309004803090049030900F3
:1006A00018150040FFFFF8FF640B002070B584B000
:1006B000A24C934EB24D00F0DDFA002862D12878AA
:1006C000012804D100F0E1FD002807D067E00228EE
:1006D00004D1307E042862D0032860D001F0A8FA4B
:1006E00000F09EFBA878002837D100F0D7FA002848
:1006F0002ED12878002808D0022803D009D200F093
:100700007FF809E000F01CF906E0616800F090FA5B
:1007100002E0B44801F0D5F9607E01281FD100F055
:1007200073FB00281BD1287800280AD0022816D095
:100730000AD201F032F9002811D100F0B3FF0028ED
:100740000DD100F05DFA0AE0AF4801F0BAF906E019
:100750006168002000F06CFA01E000F0D3F801F0CD
:10076000F2F902280ADB0020029001900090002399
:1007700000220021032000F0B2FB7FBDA34801F05E
:10078000A0F97FBD00F04CFBA878002818D128788C
:1007900002280ED1307E042801D0032804D16068DD
:1007A000400800F05BFA7FBD01F042FA00F0C8F8A3
:1007B0007FBD01F03DFA6168002000F039FA7FBD8D
:1007C00001F036FA00F09EF87FBD00000C150040E5
:1007D000650B002034150040FFFF000021100100D0
:1007E000FFFFFF00C2030900660B00203E420F829C
:1007F0004E000054241700400050007810150040AF
:1008000070B584B000F047FD5D4C4C4D01F0C5F86B
:1008100000281DD101F097F9022846DB00F0F4FA18
:1008200000280CD001F040FA00283ED1287E002894
:100830000BD101F02AFA2169884236D105E02069FE
:1008400001F017FA002001F023FA00F06CF92CE017
:10085000688B002817D0A189814214D30121002080
:1008600000F071FF00F0ABFF060000F0ABFF0021CD
:1008700002910191F6B20096E389A289010001205C
:1008800000F02DFB11E000F07EFB002802D0A14813
:1008900001F017F9C148066801F0DCF9864202D080
:1008A000E089401CE08100F05DF92968012000F03A
:1008B000BFF97FBD03800C602264720002800C606F
:1008C00011646600DEC08F8208800C6080B50C4821
:1008D000C069407D002806D0012000F09BFC28481C
:1008E0008189491C818100209D490860C048416878
:1008F0000068091A002000F09BF901BD88647200AD
:10090000D80B00203EB51E4D687E002813D000F0A5
:1009100077F900F0C0FC0024AC706C76029401946E
:100920000094002300220021052000F0D8FAB148ED
:100930000476FFF743FC37BDF6030900340B0020B3
:1009400038B5964C256801F085F9854203D001F051
:1009500081F9206003E0A748007E002801D100F063
:1009600011F8A3484168002000F062F931BD80B55C
:1009700000F091FC9F4800210161017601BD00005B
:10098000680B002010B5FFF7F2FF9A4C012020768B
:10099000974800699849086000F0FFFF00280AD1D5
:1009A00001F0D1F802280DDB00F012FF6060002892
:1009B00008D1924804E000F0F0FF032802D09B48E1
:1009C00001F07FF8022000F0D8FB002000F022FCAC
:1009D00000F0E3FF032802D0AB4801F072F800F00A
:1009E00003F810BD5804090010B5824C207E012880
:1009F00002D0994801F065F802202076002020619D
:100A0000A248E06010BD0000720409008C040900D7
:100A1000F0B585B09649774C002501269C480268C0
:100A2000012A02D08A68002A05D162681278212A38
:100A300001DA012200E00022032323762560002A48
:100A40004AD0876882680A60019403A90091012353
:100A5000C2683900012000F0D9FE00281DD002280C
:100A60001DD002D3032843D034E00398002802D0DD
:100A7000884801F026F8380000F0B9FF002802D1BC
:100A8000854801F01EF80295E069807D0190FFB273
:100A9000009700230022002118E0A44826E00398D4
:100AA000002802D1A24801F00CF8380000F09FFFA6
:100AB000002802D19F4801F004F80296E069807D89
:100AC0000190FFB20097002300220399022000F05A
:100AD00006FA0DE0984809E00020019000900023FC
:100AE000002100F093FE042802D0944800F0E9FFB2
:100AF0002068002806D100F0CEFB65752561FFF760
:100B000041FF04E06675BE4820610420207605B0F0
:100B1000F0BD00000A05090080B5052035490876BA
:100B2000FFF730FF01BD38B500F0BFFD002816D03B
:100B3000C0480021C1604E4C00F041FE20600125FC
:100B400000F03DFE854065602A4C00F03BFE2060D1
:100B500000F03BFE6060B848E06000F003F831BD93
:100B600014F5014010B501F075F80C49086000F06B
:100B700014FF012807D000F010FF022802D0A1487E
:100B800000F09FFF002000F0F8FAA44C00F060FA9B
:100B900020601848C0694068606010BD08150040BA
:100BA00080B500F0EDF9012820D101F021F80028EE
:100BB00002D0A84800F085FF00226421A64800F07A
:100BC000E5F90B48007F00280ED10120A3490860F9
:100BD000A34900220A608207106000BF00BF00BF67
:100BE00000BF08680028FCD000F0B4F901BD000087
:100BF000340B0020D80B0020301500407B05090085
:100C000080B500F0BDF901280ED000F0AAF9954892
:100C1000007F002802D1012093490860002000F0E5
:100C2000DAFF00208349486001BD0000800509000B
:100C300038B50D0000F0CFFF7E4C6069A84202D3AA
:100C40008A4800F03EFF01226069291A824800F0BC
:100C50009DF90020606131BD9205090080B575499C
:100C60004861012201467C4800F090F901BD000076
:100C70002C15004080B56F484069002802D100F073
:100C800082F902BD012002BD88050900110A000099
:100C900000140040B8050900B90509003EB5654CCF
:100CA0002078617888423ED0002801D1FFF72BFAE6
:100CB0006078002801D1FFF781FA00256C480560B3
:100CC00000F0E9FA6B480560456005618560C56024
:100CD0002078012808D100F060FE002814D00021FF
:100CE000002000F030FD0FE002280DD1FFF73FFE9D
:100CF00000F053FE032807D100200190009000234C
:100D00000022002100F082FD00F098F86078207049
:100D1000029501950095002300220021042000F097
:100D2000DEF801203EBD00203EBD0000BD050900EB
:100D3000C0050900C1050900C8050900CF05090063
:100D4000FEB501254B4C4C480068012803D04B48A8
:100D50000068002805D160680078212801DA0126A2
:100D600000E00026334FFFF785FF002800D17D61AA
:100D700000F013FE012802D0414800F0A2FEE06915
:100D8000007D002802D03F4800F09BFE00F083FA6F
:100D9000002E34D00121012000F0D5FC002806D01F
:100DA00002280BD01DD304281BD01AD31CE000F05E
:100DB00006FD050000F006FD002105E000F0FFFC47
:100DC000050000F0FFFC01210291E169897D01919C
:100DD000EDB20095FB89BA890100002000F07FF890
:100DE00002E0294800F06DFE00F04FFF38611D4819
:100DF0004069786000F022F8002000F049FFF7BD5C
:100E0000190B00001E06090020480178022902D0B3
:100E10004068002800D00120C0B2704710F50140A2
:100E200080B504484168002901D0491E416000F0A6
:100E300005F801BD680B0020410D000010B5094CFC
:100E4000FFF7E2FF002801D0E06800E0A0680F494A
:100E5000C86110BD2C060900F71B000014050040F6
:100E600000010040340B0020040000404D06090042
:100E700014F50140D80B0020001400403415004048
:100E8000A8060900A9060900C8060900680B002089
:100E900010B50100002000220B001341DC07E40F15
:100EA00007239B1A9C400443E0B2521C082AF3DB40
:100EB00010BD70B505000020002604002800F100D8
:100EC000C840C0B2FFF7E4FF01001820F200801A0A
:100ED000814021430800761C042EEEDB70BD10B566
:100EE00084B06C4620700191228163810698607005
:100EF0000798A0700898E070684600F0FCFD1FBDE0
:100F00000121C006C00E814065480160704770B580
:100F10000124644804608460634D00262E600464EC
:100F2000E86B002802D0614800F0CBFD0020C043F0
:100F30005F4908605F4806600420A8605E4846601C
:100F40000470467086700A20FFF7DAFFA0025B4942
:100F5000086070BD01205A49086000205649087099
:100F6000704770B501244F4804608460524D0026DC
:100F70006E606E700A20FFF7C3FFAE702C7070BDFC
:100F80004D48007870474C4840787047F7B50400EA
:100F900000260025802040024A4948604648807863
:100FA000002802D0484800F08CFD200002D14748BC
:100FB00000F087FD40484068002802D0444800F017
:100FC00080FD3D4844600127424C6846007A002875
:100FD00003D0022808D009D30AE03F48476065687B
:100FE00007603448066006E0A56804E0256802E072
:100FF0003A4800F066FD30498F702E48066001992E
:10100000681880B2206026683348476064682948C1
:101010000068002802D0324800F053FDAE4205D3EC
:10102000AC4201D3B4420DD32E4809E0B442804112
:10103000C00FAC428941C943C90F884202D12A4836
:1010400000F03FFD38041F490860F7BD274870478E
:101050001848704738B580204002154908600025BF
:1010600014480560144C6068002802D1204800F044
:1010700028FDA5706068656001211E4A1160154A4F
:101080005368126814328D03AB4202D21A4DAA4241
:1010900003D293428941C943C90F6170804731BD72
:1010A00080E200E004A0004008A5004035000400F4
:1010B00008A3004040A10040400C002000E100E0F7
:1010C00000A0004004A30040730004007500040069
:1010D0007600040040A5004040A0004089000400C4
:1010E0009B000400B0000400C900040048A00040B8
:1010F000EC00040044A0004001C000000121C00633
:10110000C00E81407A48016070470121C006C00EC0
:1011100081407848016070470121C006C00E8140BF
:101120007548016070470000401E00BF00BF00BF4F
:1011300000BF00BF00BF00BF00BF00BF00BF00BFB7
:1011400000BFF1D1704710B56C4C60620120FFF711
:10115000DCFF6B486B494160F031016000F09BF8A7
:10116000002020700321617060602061A082A07562
:101170000120FFF7C3FF200010BDF8B5040062484E
:10118000210147185D4D287D002802D05F4800F0FE
:1011900098FC200000F010FA002802D15C4800F012
:1011A00090FC00266E750020C0435A49486001201B
:1011B000FFF7B2FF6C70696A0868A8604968E96067
:1011C0002E61AE613A686A60032C16DA3A7A524BA5
:1011D0001A60524AFB7A002B05D110601068002873
:1011E00008D14F4804E011601068002802D19F48E0
:1011F00000F067FC787A47490860686A007D00283B
:1012000005D0022C03D1AE750420AE490860012040
:101210006875F1BDF8B50400384D6F783A4839016A
:101220004618687D002802D1914800F04AFC287DCC
:10123000002802D0A44800F044FC012028750021B9
:101240006975032F1FDA002C01D131680860022F65
:1012500004D0012F16D1B07A2870F1BDB07A287071
:10126000686A007D00280DD096480068400702D4C7
:10127000964800F026FC29480068002802D19448CE
:1012800000F01FFCF1BD9348FAE79348006801287D
:1012900000D00020704770B50120FFF736FF002016
:1012A000C0438E4908600120FFF736FF00241A482A
:1012B00004608B4D2C6001208A49086088600F4EC5
:1012C0003078012801D1062006E0022801D0032849
:1012D00001D1022000E00120FFF726FF2C60002052
:1012E000307000F0C7F874750120FFF707FF70BD7C
:1012F00000E100E080E100E080E200E0900B0020EF
:1013000020F50140141000401C160000DB000A000C
:10131000DD000A00041300400012004004150040E4
:1013200000010A00F8B5AB4C607800902069401CC1
:101330002061607D002802D09E4800F0C2FBA64DCF
:1013400000260127207803283ED1E86800283BD0FA
:10135000009801282DD12069032802D09F4800F071
:10136000B0FB02202070A069401CA0619C48066070
:101370000020C0439B4948600120FFF7CDFEEE608E
:101380002E602E616E600320607066602675606A54
:10139000017D002908D09449496CA175EE619349FB
:1013A0000F600421474A5160C06801005DD080474A
:1013B000F1BD022806D12069012838D08C4800F000
:1013C00080FB34E08B484EE0009803284AD0012887
:1013D0002BD12069012811D12E606E600020C043FE
:1013E000804948600F60606A007D002802D00420B8
:1013F00034490860E0687C490860F1BD022834D1B6
:10140000EE602E612E60764806600120C04375496B
:101410004860082008600320207066602675606AB6
:101420000069010018D0804716E0022802D100F0C0
:101430005BF8F1BD79A0617809014018017B0029B2
:1014400003D0E968002900D00126807A20700120AD
:1014500000F010F8002E08D0606A8068010004D007
:101460008047F1BD644800F02CFBF1BD05010A0086
:1014700021010A00F8B50700002459480460564DC0
:101480005848544E3178032905D10821C943416099
:101490000821016008E00021C94341600120FFF7F5
:1014A0003BFEEC60032070702C602C616C607460FB
:1014B0003475002F04D0706A0069010000D08047A5
:1014C000F1BD000004F5014022010A0040010A00BC
:1014D00041010A003A010A000411004008130040CB
:1014E0001011004010100040F8B53A4C22693D4FF1
:1014F000394D00263A480321012A43D104222270A3
:10150000A269521CA26101600120FFF705FEEE6096
:101510002E602E616E6008203860606A007D0028B1
:101520000FD03148406CA075344F3868400702D462
:10153000334800F0C6FAEE6101202C49086004200F
:10154000B8602868002802D02E4800F0BAFAE8688F
:10155000002802D02C4800F0B4FA2C48006881071B
:10156000C90F02D02A4800F0ACFA606AC0680100D6
:1015700000D08047606A417D00291AD000681A496E
:101580000860F1BD022A11D1EE602E612E606E60FE
:10159000066026700020C043786061706660267522
:1015A000606A0069010004D08047F1BD194800F06D
:1015B00088FAF1BD90010A0080B5022805D80548D7
:1015C0000178481E8041C00F02BD134800F079FA2F
:1015D000002002BD900B0020001100409F010A0076
:1015E0000012004004130040041500401810004091
:1015F000A4010A00A9010A00D6010A0000F5014071
:10160000AD020A00B6020A00B7020A0000E200E0DA
:10161000B8020A00E7020A00F9020A0000100040BE
:1016200010110040031000000100000000100040F5
:10163000000000000B020400000000000410004045
:10164000000000000708030100000000F8B500F0EA
:1016500039FB002400256C4F280000F0FFF92E0014
:101660000836300000F0FAF90021280000F002FAF4
:101670000021300000F0FEF97C556D1C082DEBD3E5
:10168000A848047044608460C4600461446190228E
:1016900084549122845458228454C4670121923086
:1016A0000170F1BDB1480078704770B59D4D287844
:1016B000002802D09C4800F004FA2C009034002648
:1016C0002078002823D02869686000F0A2FBA86079
:1016D000002802D1A64800F0F4F9A8684078C107B4
:1016E000C90F9220285C012242400A430BD068684F
:1016F00000F07DF903280AD200F090F9E860002894
:1017000005D0012001E0EE600220287002E0287878
:10171000002817D0A868002802D1A14800F0D1F90C
:101720002869686080002818C17E491CC176A868B5
:101730004278F9231340490006220A401A434270B6
:101740002670012070BDF8B504000F00754D287893
:10175000012804D0022802D0924800F0B2F90026F5
:10176000002C1BD02878012802D08F4800F0A9F95E
:10177000E868002802D1A84800F0A3F9E8680078DA
:10178000002801D100240AE0686800F053F900281D
:1017900002D1A74800F095F9022400E00424002FAC
:1017A00008D0686800F082F9A968884202D0B04881
:1017B00000F087F92E7000F0B9F82000F2BDB048B3
:1017C00040687047AE4880687047AD48C068704751
:1017D00038B5544C2078002802D0AA4800F071F99E
:1017E00000F01CF905000CD0FF2028706878062155
:1017F00001436970FF222021A81C00F077FB032021
:101800002070280032BD0000480C0020FFB583B0D6
:1018100003240027002500264248C06F002802D17B
:10182000994800F04EF93F480078032802D09748C5
:1018300000F047F93B48C06F4078C107C90F944A90
:101840001278012353400B4300D001266946097BDF
:10185000002901D1042458E005990902090A0191DF
:101860004007800F01A9C8702E48049989004018CC
:101870000290806B0C990F600D990F608549049A56
:1018800089180091019981422DD0049800F0D2F876
:1018900005002E40002D26D00198029988636846E5
:1018A000007E05421ED00098007800281AD00498C7
:1018B00000F0C7FA002802D1774800F002F9049836
:1018C00000F0F4F80C9908600C99002903D0002866
:1018D00004D1724800E0724800F0F3F800990F70EC
:1018E000022400E00124002E0AD0049800F091FAAE
:1018F000002801D16B4804E00121009A117000E03A
:1019000000200D990860002D05D10648C06F00F039
:1019100016FA0448C7670348077000F007F820006C
:1019200007B0F0BD180A0020C3000C0070B5544D7C
:101930002878002819D12C0090342078002814D160
:101940000826686900F07DFA002803D00120207085
:10195000686928616869401C082800D10020686116
:101960002078002801D1761EEBD170BDA80A002096
:10197000C9000C0038B50400414D9020285C0028B7
:1019800004D02869A04201D1FFF7D0FF0020291917
:10199000803108703F49085531BD3948007870479B
:1019A000E7000C00FC000C0002010C0070B5060002
:1019B0000C00002500F051FA002808D0310020006A
:1019C00000F0DFF9002802D0FFF7B0FF0125280062
:1019D00070BD80B500F035FA02BD80B5083000F06A
:1019E00018FA02BD80B5083000F0F4F902BD80B5E8
:1019F000083000F026FA02BD80B500F089F902BD7A
:101A000080B500F09CF901BD80B500F026FA02BD5A
:101A10001F4908707047000003010C0010B5184CF6
:101A2000E06F002802D100F073F9E067E06F10BDAD
:101A30000E010C0038B50400114DE86F002802D1EA
:101A4000194800F03EF808342100E86F00F099F9D9
:101A5000002802D00020E867012032BD81B00021BB
:101A600000910099064A80001018816101B070470A
:101A70001E010C00024A10188030017070470000EF
:101A8000180A00203B010C005B010C005C010C00FB
:101A9000AA0A0020480C002091010C0096010C00BD
:101AA0009A010C00700A00206F020C0038B5040087
:101AB00000F090F9050002D02000FFF75BFF28003E
:101AC00032BD80B500F05DFC01BDFEE780F31088FB
:101AD000704710B5040002D13548FFF7F2FF3548D2
:101AE00004600021C167802281508430016050036E
:101AF0003149086010BD70B505002E4E30680028D1
:101B000002D12E48FFF7DDFF3400843420680A2814
:101B100002D32B48FFF7D5FFF06F0C214843301854
:101B2000001D0ECD0EC02068401C2060F06F401CD0
:101B3000F067F06F0A2801D30020F067802040038F
:101B40002049086070BD0A201F490968401AC0B2C8
:101B50007047F0B587B0174C2500803526008436D5
:101B60001BE0296803A80C2251436118091D8CC988
:101B70008CC068468CC03068401E30602868401CAD
:101B8000286028680A2801D3002028600020FFF779
:101B90009DFF684607C8236898470120FFF796FF16
:101BA00030680028DDD1FFF791FF07B0F0BD0000DD
:101BB00029000B00AC0A002000E100E034000B001B
:101BC00035000B0000E200E0300B00201049887067
:101BD00048700870704710B50400022C02DB0D48F5
:101BE000FFF76FFF0A48447010BD0948007870473E
:101BF00007484078704780B5054801788170417882
:101C00000170890040184068804701BD0000000055
:101C1000300000202A000D0010B5040002D1244835
:101C2000FFF74FFF2348846000210160416010BD31
:101C300010B520484168491C026883681C68A142AD
:101C400005D30021521C5B689A4200D300224160F8
:101C5000026010BD10B5174C2068A1684968884221
:101C600002D31548FFF72DFFA06880682168405C0B
:101C700010BD38B504000F4DA8684068844202D3F7
:101C80000E48FFF71EFF2C6031BD0A480068704700
:101C900038B50400074DA8680068844202D308489C
:101CA000FFF70FFF6C6031BD0248406870470000CD
:101CB0002A000100340C0020B2000100B90001002C
:101CC000C5000100F0B500227B49002453009B1899
:101CD000CB185C709C701C70521C102AF6D300222A
:101CE000DE2622235343CC184C3495004D196C63E7
:101CF00000240D0030352F001C37FF183E55641CA2
:101D0000222CF6D3521C062AEBD306202860F0BD05
:101D100010B500246848016B00290ED08A00821893
:101D2000146B664B1363491E0163200000F0A1F899
:101D3000002802D16248FFF7C4FE200010BD38B56C
:101D400004005D4D286B062802D35E48FFF7B9FEFC
:101D5000200000F08EF8002802D15B48FFF7B1FEAA
:101D6000286B80002818406B5449884202D057489D
:101D7000FFF7A7FE286B810069184C63401C28639D
:101D800031BD70B505000E00102E02D35048FFF78C
:101D900098FE280000F06DF8002802D14D48FFF7AA
:101DA00090FE4548710089194418207803280FDAFD
:101DB00049480C214E438019617889004550032120
:101DC000601C00F04DF82078401C2070012070BD90
:101DD000002070BD70B506000025102E02D33F48CC
:101DE000FFF76FFE344871008919441820780028E5
:101DF0000DD039480C214E438019A17889004558EF
:101E00000321A01C00F02CF82078401E2070280030
:101E100070BD10B50400102C02D33148FFF751FEFD
:101E200025486100091940180178002907D02A497E
:101E30000C225443091980788000085810BD0020F6
:101E400010BD10B50400102C02D32648FFF739FE50
:101E5000194861000919405C10BD1748006B7047B4
:101E60000278521C027002788A4201D3002101706C
:101E7000704710B5002100E0491C0F4BC9B21C6B24
:101E8000A14208D28C001B195B6B9842F4D1164812
:101E9000FFF717FE0CE0002122224A439A184C3229
:101EA000824201D1012010BD491CC9B20629F3DBD1
:101EB000002010BD0000000040080020ADDEADDEB7
:101EC0007D000300850003008600030088000300F6
:101ED0008F0003009000030058090020A6000300B3
:101EE000B7000300C8000300F60003001206130A3F
:101EF0001A43130C1A4300BF094205D0830705D0CB
:101F00000270401C491EF9D170470000130030B424
:101F100014001500103902D310393CC0FCD2490717
:101F200000D30CC000D504C0890002D30280801CFD
:101F3000002900D5027030BC70470000F8B50500DC
:101F40000020824C002121706061201D00220023AE
:101F50000EC07F48FEF751F92061002830D0A169FA
:101F600020001C3000F0CFF869468870280000F08F
:101F7000B8F8694648700420FEF7EAFA002000F03D
:101F800053F969460870012000F01AF90700022091
:101F900000F0FAF80500002000F05DF906000120CD
:101FA000FEF75EFB684680786946497801406846DE
:101FB0000078084007403D40354201D00120F2BD85
:101FC000012020700020F2BD80B560480169002921
:101FD00003D102210170002002BDFEF7A4F9012007
:101FE00002BD80B5FEF7D4F9002802D1FEF7BDF995
:101FF00001BDC046C04601BDF2B505001600534CF8
:10200000082D01D3042031E0002901D103202DE067
:10201000212E01D3062029E0FEF732FA032801D34E
:10202000092023E02800FEF72FFA032801D30A2015
:102030001CE0FEF72DFA022801D2082016E0FEF778
:10204000D3F907003E70787801210143797032009E
:102050000099B81C00F0A2F93900E8B2FEF7D7F9F0
:10206000002806D15448FFF72CFD0F2020700020D7
:10207000F2BD0120F2BDF8B504000D001700334E8B
:10208000FEF702FA002801D10B2022E0002D01D139
:1020900003201EE02000FEF7EFF939680078814246
:1020A00001D2062015E02000FEF7D8F904000CD07C
:1020B000801C0AD022783A60A11C280000F06EF93A
:1020C0002000FEF798F90120F2BD3C48FFF7F9FC2B
:1020D0000F2030700020F2BD04201C490870002041
:1020E00002BD80B5002803D0022808D005D308E03F
:1020F0000120FEF755F9012002BD0220F9E700207A
:10210000F7E70520E9E710B5104C2269527E002A56
:1021100001D0022008E0112901D2002901D10720B5
:1021200002E0002803D103202070002010BDA1612F
:102130000A46010020001C3000F030F9A1691C346F
:102140002000FEF7EFF9012010BD00000400002080
:102150008922000080B50B490A69527E002A01D00D
:102160000220BBE7FEF79AF9012002BD80B50549C0
:102170000A69527E002A01D00220AFE7FEF796F9E5
:10218000012002BD0400002080B5010002203D4A6C
:1021900013695B7E002B0CD1002903D0022905D0E6
:1021A00006D20020FEF731FA012002BD0120F9E736
:1021B0000E201070002002BDDD00050005010500A5
:1021C00080B5010000202F4A13695B7E002B01D0EF
:1021D000022019E0062916D801A35B5C9F4400BFCA
:1021E000080A12161A1E22000420FEF7D9F901204F
:1021F00002BDFC20F9E7F820F7E7F420F5E7F0202E
:10220000F3E7EC20F1E70E201070002002BD80B54E
:102210005E490A69527E002A01D002205EE7FEF77D
:10222000B9F9012002BD000080B501000020574A25
:1022300013695B7E002B01D0022009E0002902D047
:10224000012904D10120FEF716FA012002BD0E205B
:102250001070002002BD80B5010000204B4A1369B8
:102260005B7E002B01D0022009E0002902D0012969
:1022700004D10120FEF705FA012002BD0E201070E6
:10228000002002BD0400002077B583B001A8002122
:10229000002206C06846016003A84478049D3B48BC
:1022A00001AE6946097B052966D801A2525C9744B4
:1022B00004366AA8A29C03A8C078307003A80089DD
:1022C000708003A84089B08003A802214056414293
:1022D000F1802800FEF78FF801A803C80A0001006A
:1022E000200000F017FA4AE00069407E002802D181
:1022F0002748FFF7E6FB2800FEF77DF80020307046
:1023000003A80089708003A84089B08001A803C891
:102310000A0001002000C046C04630E0684603A91C
:10232000C978017003A9022289564A424280007886
:10233000002807D0002D02D11648FFF7C2FB280065
:10234000FEF759F800992000C046C04617E0C04685
:10235000C04614E0C046C04611E08168491C816057
:10236000017900290BD0C168002902D1FFF739FE9D
:1023700005E0491EC16002E00748FFF7A2FB06B076
:1023800070BD02490F220A704861704704000020A6
:10239000B5030500C3030500E3030500124207D09F
:1023A0008B0706D00B78491C0370401C521EF7D8CF
:1023B0007047830706D00B78491C0370401C521EDF
:1023C000F9D1704770B4103A03D378C9103A78C085
:1023D000FBD2530701D318C918C001D508C908C0DA
:1023E000D20704D30B880380891C801C002A01D5E6
:1023F0000B78037070BC704752000A439900114378
:10240000009A12020A43019909041143C74A800045
:102410001150704700B583B00192002200920B006A
:102420000021FFF7E9FF07BD80B503220321072044
:10243000FFF7F0FF032203210420FFF7EBFF032245
:1024400003211E20FFF7E6FF032203211820FFF7D8
:10245000E1FF032203211C20FFF7DCFF03220321FD
:102460000820FFF7D7FF032203210520FFF7D2FF43
:10247000032203210220FFF7CDFF032203210120C5
:10248000FFF7C8FF032203211D20FFF7C3FF03222C
:1024900003210920FFF7BEFF032203210620FFF7D7
:1024A000B9FF032203210320FFF7B4FF0322032116
:1024B0000020FFF7AFFF032203211520FFF7AAFF3B
:1024C000032203211020FFF7A5FF032203210D2083
:1024D000FFF7A0FF032203210E20FFF79BFF03223B
:1024E00003210A20FFF796FF032203210F20FFF7A5
:1024F00091FF032203211120FFF78CFF0322032108
:102500001220FFF787FF032203211320FFF782FF2A
:1025100001BD10B586498868C209D201C306DC0F27
:10252000A30113434200D40F62011A43C301DC0F1D
:1025300023011343C200D40FE2001A43C305DC0F8A
:10254000A30013438206D40F62001A434307DC0F33
:1025500014430C704208D2018300DC0FA301134323
:102560008205D40F62011A434306DC0F2301134393
:102570000207D40FE2001A43C407630F1343820219
:10258000D40F62001A43C303DC0F14434C70420B98
:10259000D2014304DC0FA30113434205D40F6201AF
:1025A0001A430304DC0F230113438203D40FE20018
:1025B0001A434303DC0FA30013430003C20F500070
:1025C0001843887003220020FFF716FD10BD80B568
:1025D000FFF79FFF01BD0000F8B50024554D564F91
:1025E000534E3079002838680FD0F1682A008243B2
:1025F000914208D13069401C3061052811D1B16089
:10260000FFF787FF0DE034710BE0B1682A008243C9
:10261000914206D0386829008143F1600120307171
:102620003461386885430FD17069401C7061FF21A7
:10263000F631884209D300BF49A000F0DBF800BFA3
:1026400049A000F0D7F8F1BD7461F1BD30B583B099
:102650000020FFF773FC6420FFF7D9FD3748FFF730
:1026600079FD3748FFF782FDFFF7AEFC00F042F935
:10267000002000F05AF900BF39A5324A0021280095
:1026800000F076F838A4304A0021200000F070F8FD
:102690000121280000F0B2F80121200000F0AEF87E
:1026A000FFF7C2FE80200006284908604020284924
:1026B00008600020019000900023012201211720D2
:1026C000FFF79AFE234C80252D042560FA2000F0A8
:1026D000A2F96560FA2000F09EF92560FA2000F06A
:1026E0009AF9656040BF20BF20BFFBE71A48016828
:1026F000002900D1704710B50024046018A000F034
:102700006FF800BF18A000F06BF80948047104616D
:10271000446110BD07B5202100916946097900295F
:1027200003D06A460D49FFF7A6FC07BD000700501D
:10273000F80B0020FFE72F71100500500403020181
:1027400008070605CF250000D925000004630040D6
:1027500000E100E0080500507C610040B80B00205B
:1027600000B000400B000400001001401101040003
:1027700070B506000C00100013D0544D7079800025
:10278000281882607079002C04D100BF52A1062263
:1027900042438C1841000818285C002803D0082008
:1027A00070BD072070BDA1780420305600F042F9BA
:1027B00020883168A122D200885070794100081821
:1027C0002818217941707079410008182818E1789B
:1027D0008170012071794A0051186854002070BD41
:1027E0000121026811600221384A4079430018181B
:1027F00011547047012102685160F5E7006800221A
:1028000080235B00C250C122920080180122FFE7A2
:102810000264002900D002607047F5B583B08024BF
:102820006402A0256D000026880001900398C12154
:10283000890040180090254F16E0204010D00398E2
:10284000405900280CD0009844640098446000204F
:1028500003994851F0B239000831019A89588847E4
:1028600064002D1D2DB2761C0498864200980068E5
:10287000E3D301997C180399802252008D18C00778
:1028800007D52868002804D0002028600420A1680B
:10289000884700980068800707D56868002804D03A
:1028A000002068600520A168884705B0F0BD80B5AC
:1028B000042200210648FFF7B0FF01BD80B50422C5
:1028C00001210448FFF7A9FF01BD0000240C0020EE
:1028D00000B0004000100140FF0F030000001F0087
:1028E000030200008021C9050858002800D00120FB
:1028F000C0B2704738B5394C207A002801D0852005
:1029000032BD606020602061E0603548FF21816356
:10291000012505600321002000F08CF825720020BD
:1029200032BD02680A600160704738B504000020BB
:1029300000F0BAF8294DA87A002805D0002C15D04F
:1029400001206168884711E0002C04D02100280094
:102950001030FFF7E6FFE868002807D12249086039
:10296000022022490860012021490860E868401CD3
:10297000E860FFE7002000F09BF831BD38B50500A6
:102980000C0004E00868286020004968884729682E
:102990000029F7D131BDF8B5104C0125154F00269F
:1029A0002802FFF79FFF002807D03E600D48056012
:1029B00065720021201DFFF7E1FF82204000FFF734
:1029C00091FF002809D07E60022006490860A572A8
:1029D000012110342000FFF7D1FFF1BD100C0020C1
:1029E00018050040080300400401004004030040B3
:1029F0000800004000010040401E00BF00BF00BFB3
:102A000000BF00BF00BF00BF00BF00BF00BF00BFCE
:102A100000BFF1D1704701B505E00098401E00905D
:102A20000348FFF7E9FF00980028F6D101BD000038
:102A3000E703000010B58207D30EFF249C40E24359
:102A40008907090E9940030005D50B4C03071B0F9E
:102A5000083B9B0801E0094C83089B00E3181C68B5
:102A60002240114319600121C006C00E8140044874
:102A700001600448016010BD1CED00E000E400E0CE
:102A800080E200E000E100E072B606480168491CFF
:102A90000160704703480168491E016000D162B6B9
:102AA00070470000500C002080B5FFF7EDFF01BD1E
:102AB00080B5FFF7EFFF01BD10B5F0200F222849C8
:102AC0000B78012B1BD14B68134018D18B68034244
:102AD00002D1CC6804400CD0F0241C40102C02D150
:102AE000CC68044005D00340302B08D1CB680340AC
:102AF00005D11C4B1C4C2360E30B1C4C23600B7852
:102B0000012B0CD14B68134009D18B680340402B3B
:102B100005D1CB68034002D10123154C23600B780B
:102B2000012B1BD14B681A4018D18A68F02313403F
:102B3000A02B02D1CB68034005D00240D02A0DD192
:102B4000C96808400AD10B480168012904D00A4924
:102B5000016001680129FCD1C021416110BD000064
:102B6000E00F00F0DFFF07C004050040186C0040D4
:102B70000806004000EC06407593000070B4012187
:102B8000002313E00468001D0C4202D04D466D1E68
:102B900064192360241D121F042AFAD22500960707
:102BA00001D52380AD1C0A4000D02B700268001DA7
:102BB000002AE7D170BC704730B5016841184468FD
:102BC00062088A188368E40701D54C461B190C304B
:102BD000914200D130BD0C7864B2491C0D78491C7B
:102BE0001D705B1C002C02D5641CF9D1F0E7641E3B
:102BF000F4D5EDE70321064802680A430260054860
:102C000002680A4302600448804704480047000005
:102C10002405004054050040B92A0000A52C0000FE
:102C200010B5074979441831064C7C44163404E049
:102C3000081D0A68891888470100A142F8D110BD13
:102C4000080000002400000035FFFFFF140400000E
:102C5000400800200000000061FFFFFF8A00000024
:102C600036000000000000200120C046002801D0EE
:102C7000FFF7D6FF0020C046C046FFF7E7FC00F094
:102C800000F880B500F002F801BDFEE707463846BF
:102C900000F002F8FBE7FEE72021090326311820A7
:102CA000ABBEF9E7C046C046C046C046FFF7DCFFF2
:102CB000FEE7FEE7FEE7FEE7FEE7FEE7FEE7FEE7EC
:102CC000FEE7FEE7FEE7FEE7FEE7FEE7FEE7FEE7DC
:102CD000FEE7FEE7FEE7FEE7FEE7FEE7FEE7FEE7CC
:102CE000FEE7FEE7FEE7020024F4E7000005FD0032
:102CF0000404192A3F4DF10007AD060000CD08007D
:012D000000D2
:0400000500002CA526
:00000001FF
