:1000000040080020F9300000E71A00008F3100009E
:1000100000000000000000000000000000000000E0
:100020000000000000000000000000009B31000004
:100030000000000000000000B5310000B7310000F2
:100040002F30000039130000892D0000BF3100005F
:10005000C131000000000000C3310000C5310000C4
:10006000C7310000C931000069100000EB2F00000B
:10007000CF310000D1310000D3310000D531000074
:10008000D7310000D9310000DB310000DD31000044
:100090006F1B0000E1310000E3310000E53100009A
:1000A000E7310000E931000000000000000000001E
:1000B0000000000000000000000000000000000040
:1000C0000121C006C00E8140BF480160704710B5D5
:1000D0008207D30EFF249C40E2438907090E994012
:1000E000030004D5AD481B071B0F083B00E0B748D1
:1000F0009B089B00C01803681A401143016010BDA3
:1001000080F31088704770B50025B14C2561032637
:100110006660B048056001210160AF480168AF4AE0
:100120000A40026001680F22914306220A430260DE
:100130000168AB4A0A403104114301604168A94A91
:100140000A4042604168802252040A43426041688A
:10015000FF22914320220A4342604168BB4A0A4081
:1001600042600120FFF7ACFF00F07AFFA061B848C1
:1001700060612660B74C200000F0EFFFE061B64CF4
:10018000607F00F0EFF926002036306800F08FF92C
:10019000706800F094F9601928300178280000F0A8
:1001A0009BF96D1C082DF6DB307C00F003FA707CA7
:1001B00000F005FAB07C00F032FA70BD00B583B0F3
:1001C0000320B549086001F0F2FB401E012802D966
:1001D000801E05D007BD0021002001F0BEFA06E018
:1001E0000190009000230022002101F019FB042857
:1001F00002D0B74801F073FC07BDF8B50600012036
:10020000FFF77EFF0127B34C6770032020700025A5
:10021000A5706560A560E5602561656125838D48F1
:10022000056045608560C56005610575656225628C
:1002300000F077FE300001F05AFC01F011FA0020C6
:1002400001F0D2FC20001C3001F0F4FC00210A2057
:10025000FFF73DFF00210120FFF739FF01211420A6
:10026000FFF735FF012000F09BF87B4EFF20306147
:1002700004207077AD493162AD4971622822B754CC
:1002800002212923F15403222A23F2542B22B054B1
:1002900005202C22B05406202D22B05407202E22F7
:1002A000B05408202F22B0543022B554312031549C
:1002B000322177541E2000F052F99620800000F081
:1002C0005DF9022000F064F90F2000F067F90020CA
:1002D00000F06AF9012000F0D8F9012000F0D8F907
:1002E000002000F0D8F9002001F0A1FB6920306067
:1002F0006078012802D0A34801F0F1FB2770A570B7
:100300006560A560E560256165612583FFF7FBFEFB
:100310000A20FFF7D5FE1420FFF7D2FE0020FFF7DA
:10032000EFFE2000F2BD10B56A4C607E00281BD1A4
:10033000FFF7E9FE606A002802D1934801F0CFFB85
:10034000206A002802D1914801F0C9FB01F05BFC52
:10035000002802D0964801F0C2FB002001F049FCC1
:100360000120607600F026FC10BD80B50120FFF76B
:10037000C7FE5848417E827801235340194203D07A
:100380000121817000F016FC0020FFF7B9FE01BDCD
:100390005048417E01204840704700001CED00E0BD
:1003A00010B504000120FFF7ABFE4A480178A142D6
:1003B00008D04470407E002802D100F079FC01E0B2
:1003C00000F0F8FB1FE0000080E200E000E400E045
:1003D00004F50140FC1F004014150040FFFEFFFF24
:1003E000FFFFF0FFFFFFFFFD10B50120FFF788FEC4
:1003F00001F011FB3AE010B504000120FFF780FE88
:10040000200001F00CFB0020FFF77AFE10BD38B58C
:1004100005000C000120FFF773FE2100280001F009
:10042000CFFA00280DD054488178407E0122424006
:100430000A4301D100F0BEFB0020FFF761FE01205E
:1004400032BDFFF75DFE002032BD0000FF00FFFF60
:1004500004110040400D0020540C002010B5040091
:100460000120FFF74DFE200001F0C6FA0400002035
:10047000FFF746FE200010BD80B501F0B8FA02BDBE
:1004800080B501F0B0FA02BD80B501F0BFFA02BD3F
:1004900080B501F0C8FA02BD08F5014010B50400AE
:1004A0000120FFF72DFE200001F0ABFAABE780B58D
:1004B0002049086200F007FD7849086001BD80B559
:1004C0001C49486200F0FFFC7549086001BD00004E
:1004D000E8010900880C002038B502000800082A4D
:1004E0001FD214498918283108709107CC0EFF23B8
:1004F000A340D9436B4D042A09D22A6811402960D0
:1005000000F0D0FC2968A0400843286031BD6A682B
:100510001140696000F0C6FC6968A040084368604B
:1005200031BD614801F0DBFA31BD000004070A0D5E
:1005300005080B0E540C002038B505000C0002D144
:100540005A4801F0CCFA002D02D1594801F0C7FAFF
:10055000094845620462002001F099FB31BD44491D
:10056000486170474249487752490A68524B1340E4
:100570000004184308607047880C00203C4948601C
:10058000704700003C0209005E0209005F0209009A
:1005900080B53749C86000F05BFC01BD80B53449C7
:1005A000886000F055FC01BD314948837047000068
:1005B000660209004149087089490860704780B5A2
:1005C0008849087088490A68FF239A430A6000280E
:1005D00005D002280ED005D3032813D01BE00868ED
:1005E000086001BD0868012202430A60FF2088609C
:1005F00008300EE00868022202430A607B488860E7
:100600007B4806E00868032202430A607948886054
:100610000020486001BD784801F061FA01BD30B5A5
:10062000764908707649774B774A784C784D0028A0
:1006300003D0022813D007D330BD28601460536064
:10064000A1489060A14810E0012028601460536028
:100650009F4890609F48D0609F48106130BD2860DF
:10066000146053609D489060A948D060116130BD0E
:10067000540C002038B50400A64DE869002802D1CA
:10068000B24801F02CFA2C7531BDB149087670479B
:10069000AF4948767047AE49087770471C1500404F
:1006A00020150040241500403903090048030900C3
:1006B0004903090018150040FFFFF8FF840C0020D3
:1006C00070B584B0A24C934EB24D00F0DDFA002814
:1006D00062D12878012804D100F0E1FD002807D07C
:1006E00067E0022804D1307E042862D0032860D05D
:1006F00001F0ACFA00F09EFBA878002837D100F09A
:10070000D7FA00282ED12878002808D0022803D054
:1007100009D200F07FF809E000F01CF906E06168FA
:1007200000F090FA02E0B44801F0D9F9607E0128A7
:100730001FD100F073FB00281BD1287800280AD0B5
:10074000022816D00AD201F032F9002811D100F0A7
:10075000B3FF00280DD100F05DFA0AE0AF4801F0C8
:10076000BEF906E06168002000F06CFA01E000F0DC
:10077000D3F801F0F6F902280ADB0020029001907C
:100780000090002300220021032000F0B2FB7FBD77
:10079000A34801F0A4F97FBD00F04CFBA878002825
:1007A00018D1287802280ED1307E042801D00328E1
:1007B00004D16068400800F05BFA7FBD01F046FAA2
:1007C00000F0C8F87FBD01F041FA6168002000F038
:1007D00039FA7FBD01F03AFA00F09EF87FBD0000C3
:1007E0000C150040850C002034150040FFFF000070
:1007F00021100100FFFFFF00C2030900860C00204A
:100800003E420F824E0000542417004000500078F2
:100810001015004070B584B000F047FD5D4C4C4DA4
:1008200001F0C5F800281DD101F09BF9022846DB34
:1008300000F0F4FA00280CD001F044FA00283ED170
:10084000287E00280BD101F02EFA2169884236D18A
:1008500005E0206901F01BFA002001F027FA00F002
:100860006CF92CE0688B002817D0A189814214D341
:100870000121002000F071FF00F0ABFF060000F046
:10088000ABFF002102910191F6B20096E389A289A3
:100890000100012000F02DFB11E000F07EFB00289C
:1008A00002D0A14801F01BF9C148066801F0E0F947
:1008B000864202D0E089401CE08100F05DF92968A1
:1008C000012000F0BFF97FBD03800C60226472003C
:1008D00002800C6011646600DEC08F8208800C60AC
:1008E00080B50C48C069407D002806D0012000F08A
:1008F0009BFC28488189491C818100209D49086012
:10090000C04841680068091A002000F09BF901BD49
:1009100088647200400D00203EB51E4D687E0028A0
:1009200013D000F077F900F0C0FC0024AC706C76B6
:10093000029401940094002300220021052000F07D
:10094000D8FAB1480476FFF739FC37BDF603090041
:10095000540C002038B5964C256801F089F9854281
:1009600003D001F085F9206003E0A748007E00284D
:1009700001D100F011F8A3484168002000F062F9AD
:1009800031BD80B500F091FC9F48002101610176E6
:1009900001BD0000880C002010B5FFF7F2FF9A4C53
:1009A00001202076974800699849086000F0FFFF11
:1009B00000280AD101F0D5F802280DDB00F012FF63
:1009C0006060002808D1924804E000F0F0FF03289E
:1009D00002D09B4801F083F8022000F0D8FB0020F1
:1009E00000F022FC00F0E3FF032802D0AB4801F046
:1009F00076F800F003F810BD5804090010B5824CD9
:100A0000207E012802D0994801F069F80220207662
:100A100000202061A248E06010BD000072040900BF
:100A20008C040900F0B585B09649774C0025012665
:100A30009C480268012A02D08A68002A05D16268AF
:100A40001278212A01DA012200E000220323237612
:100A50002560002A4AD0876882680A60019403A949
:100A600000910123C2683900012000F0D9FE00285E
:100A70001DD002281DD002D3032843D034E00398B0
:100A8000002802D0884801F02AF8380000F0BEFFA4
:100A9000002802D1854801F022F80295E069807DA6
:100AA0000190FFB2009700230022002118E0A44823
:100AB00026E00398002802D1A24801F010F838007F
:100AC00000F0A4FF002802D19F4801F008F8029628
:100AD000E069807D0190FFB2009700230022039916
:100AE000022000F006FA0DE0984809E0002001908D
:100AF00000900023002100F093FE042802D09448C7
:100B000000F0EDFF2068002806D100F0CEFB6575EF
:100B10002561FFF741FF04E06675BE4820610420AF
:100B2000207605B0F0BD00000A05090080B505205B
:100B300035490876FFF730FF01BD38B500F0BFFD3D
:100B4000002816D0C0480021C1604E4C00F041FE84
:100B50002060012500F03DFE854065602A4C00F0D4
:100B60003BFE206000F03BFE6060B848E06000F0B3
:100B700003F831BD14F5014010B501F079F80C49C6
:100B8000086000F014FF012807D000F010FF0228D1
:100B900002D0A14800F0A3FF002000F0F8FAA44C16
:100BA00000F060FA20601848C0694068606010BDBD
:100BB0000815004080B500F0EDF9012820D101F0C2
:100BC00025F8002802D0A84800F089FF00226421FF
:100BD000A64800F0E5F90B48007F00280ED101205F
:100BE000A3490860A34900220A608207106000BF81
:100BF00000BF00BF00BF08680028FCD000F0B4F9B7
:100C000001BD0000540C0020400D002030150040B4
:100C10007B05090080B500F0BDF901280ED000F079
:100C2000AAF99548007F002802D101209349086065
:100C3000002000F0DEFF00208349486001BD000075
:100C40008005090038B50D0000F0D3FF7E4C6069C7
:100C5000A84202D38A4800F042FF01226069291AA3
:100C6000824800F09DF90020606131BD92050900C5
:100C700080B575494861012201467C4800F090F931
:100C800001BD00002C15004080B56F484069002868
:100C900002D100F082F902BD012002BD88050900E1
:100CA000250A000000140040B8050900B905090034
:100CB0003EB5654C2078617888423ED0002801D14D
:100CC000FFF721FA6078002801D1FFF777FA0025B5
:100CD0006C48056000F0E9FA6B4805604560056105
:100CE0008560C5602078012808D100F060FE0028EA
:100CF00014D00021002000F030FD0FE002280DD1BB
:100D0000FFF73FFE00F053FE032807D100200190BB
:100D1000009000230022002100F082FD00F098F8EE
:100D20006078207002950195009500230022002133
:100D3000042000F0DEF801203EBD00203EBD000092
:100D4000BD050900C0050900C1050900C805090065
:100D5000CF050900FEB501254B4C4C480068012821
:100D600003D04B480068002805D16068007821282E
:100D700001DA012600E00026334FFFF785FF002847
:100D800000D17D6100F013FE012802D0414800F03F
:100D9000A6FEE069007D002802D03F4800F09FFEDB
:100DA00000F083FA002E34D00121012000F0D5FCA0
:100DB000002806D002280BD01DD304281BD01AD33C
:100DC0001CE000F006FD050000F006FD002105E036
:100DD00000F0FFFC050000F0FFFC01210291E16939
:100DE000897D0191EDB20095FB89BA89010000204F
:100DF00000F07FF802E0294800F071FE00F053FF98
:100E000038611D484069786000F022F8002000F049
:100E10004DFFF7BD2D0B00001E060900204801788C
:100E2000022902D04068002800D00120C0B27047DB
:100E300010F5014080B504484168002901D0491EE1
:100E4000416000F005F801BD880C0020550D000040
:100E500010B5094CFFF7E2FF002801D0E06800E080
:100E6000A0680F49C86110BD2C060900131C0000C2
:100E70001405004000010040540C00200400004014
:100E80004D06090014F50140400D002000140040FB
:100E900034150040A8060900A9060900C806090083
:100EA000880C002010B50100002000220B00134127
:100EB000DC07E40F07239B1A9C400443E0B2521C5A
:100EC000082AF3DB10BD70B50500002000260400E1
:100ED0002800F100C840C0B2FFF7E4FF010018206D
:100EE000F200801A814021430800761C042EEEDBBC
:100EF00070BD10B584B06C46207001912281638171
:100F0000069860700798A0700898E070684600F036
:100F100000FE1FBD0121C006C00E81406548016072
:100F2000704770B50124644804608460634D0026F6
:100F30002E600464E86B002802D0614800F0CFFD09
:100F40000020C0435F4908605F4806600420A86035
:100F50005E4846600470467086700A20FFF7DAFF2C
:100F6000A0025B49086070BD01205A49086000205A
:100F700056490870704770B501244F48046084607A
:100F8000524D00266E606E700A20FFF7C3FFAE70F0
:100F90002C7070BD4D48007870474C4840787047C1
:100FA000F7B5040000260025802040024A49486029
:100FB00046488078002802D0484800F090FD200084
:100FC00002D1474800F08BFD40484068002802D01D
:100FD000444800F084FD3D4844600127424C684687
:100FE000007A002803D0022808D009D30AE03F483D
:100FF0004760656807603448066006E0A56804E05D
:10100000256802E03A4800F06AFD30498F702E48AA
:1010100006600199681880B22060266833484760EE
:10102000646829480068002802D0324800F057FD63
:10103000AE4205D3AC4201D3B4420DD32E4809E0F1
:10104000B4428041C00FAC428941C943C90F8842B4
:1010500002D12A4800F043FD38041F490860F7BD5B
:10106000274870471848704738B580204002154916
:101070000860002514480560144C6068002802D1FF
:10108000204800F02CFDA5706068656001211E4AB3
:101090001160154A5368126814328D03AB4202D2B4
:1010A0001A4DAA4203D293428941C943C90F6170C4
:1010B000804731BD80E200E004A0004008A5004068
:1010C0003500040008A3004040A10040A40D00200A
:1010D00000E100E000A0004004A300407300040011
:1010E000750004007600040040A5004040A00040C8
:1010F000890004009B000400B0000400C900040043
:1011000048A00040EC00040044A0004001C00000E2
:101110000121C006C00E81407A480160704701215C
:10112000C006C00E81407848016070470121C006AA
:10113000C00E81407548016070470000401E00BF2E
:1011400000BF00BF00BF00BF00BF00BF00BF00BFA7
:1011500000BF00BF00BFF1D1704710B56C4C60629A
:101160000120FFF7DCFF6B486B494160F031016003
:1011700000F09BF800202070032161706060206106
:10118000A082A0750120FFF7C3FF200010BDF8B5B5
:1011900004006248210147185D4D287D002802D0D7
:1011A0005F4800F09CFC200000F010FA002802D1FB
:1011B0005C4800F094FC00266E750020C0435A493C
:1011C00048600120FFF7B2FF6C70696A0868A86088
:1011D0004968E9602E61AE613A686A60032C16DAEC
:1011E0003A7A524B1A60524AFB7A002B05D11060B2
:1011F0001068002808D14F4804E0116010680028EA
:1012000002D19F4800F06BFC787A47490860686A11
:10121000007D002805D0022C03D1AE750420AE4914
:10122000086001206875F1BDF8B50400384D6F788D
:101230003A4839014618687D002802D1914800F0EB
:101240004EFC287D002802D0A44800F048FC012074
:10125000287500216975032F1FDA002C01D1316830
:101260000860022F04D0012F16D1B07A2870F1BD8A
:10127000B07A2870686A007D00280DD09648006812
:10128000400702D4964800F02AFC2948006800284C
:1012900002D1944800F023FCF1BD9348FAE793484B
:1012A0000068012800D00020704770B50120FFF7CA
:1012B00036FF0020C0438E4908600120FFF736FF4B
:1012C00000241A4804608B4D2C6001208A49086074
:1012D00088600F4E3078012801D1062006E00228F0
:1012E00001D0032801D1022000E00120FFF726FFF2
:1012F0002C600020307000F0C7F874750120FFF7F3
:1013000007FF70BD00E100E080E100E080E200E066
:10131000B00C002020F501401410004030160000F1
:10132000DB000A00DD000A00041300400012004048
:101330000415004000010A00F8B5AB4C607800903D
:101340002069401C2061607D002802D09E4800F08A
:10135000C6FBA64D00260127207803283ED1E86869
:1013600000283BD0009801282DD12069032802D005
:101370009F4800F0B4FB02202070A069401CA061CF
:101380009C4806600020C0439B4948600120FFF74D
:10139000CDFEEE602E602E616E6003206070666090
:1013A0002675606A017D002908D09449496CA175B1
:1013B000EE6193490F600421474A5160C068010003
:1013C0005DD08047F1BD022806D12069012838D0C0
:1013D0008C4800F084FB34E08B484EE000980328F2
:1013E0004AD001282BD12069012811D12E606E60CE
:1013F0000020C043804948600F60606A007D00287B
:1014000002D0042034490860E0687C490860F1BDDE
:10141000022834D1EE602E612E60764806600120ED
:10142000C04375494860082008600320207066604A
:101430002675606A0069010018D0804716E002280E
:1014400002D100F05BF8F1BD79A061780901401884
:10145000017B002903D0E968002900D00126807AA9
:101460002070012000F010F8002E08D0606A80681B
:10147000010004D08047F1BD644800F030FBF1BDAD
:1014800005010A0021010A00F8B5070000245948A7
:101490000460564D5848544E3178032905D108212F
:1014A000C94341600821016008E00021C94341604F
:1014B0000120FFF73BFEEC60032070702C602C6174
:1014C0006C6074603475002F04D0706A006901008C
:1014D00000D08047F1BD000004F5014022010A0060
:1014E00040010A0041010A003A010A0004110040CB
:1014F000081300401011004010100040F8B53A4C9D
:1015000022693D4F394D00263A480321012A43D133
:1015100004222270A269521CA26101600120FFF71F
:1015200005FEEE602E602E616E6008203860606AF5
:10153000007D00280FD03148406CA075344F3868CA
:10154000400702D4334800F0CAFAEE6101202C496A
:1015500008600420B8602868002802D02E4800F0F7
:10156000BEFAE868002802D02C4800F0B8FA2C48EF
:1015700000688107C90F02D02A4800F0B0FA606AFB
:10158000C068010000D08047606A417D00291AD000
:1015900000681A490860F1BD022A11D1EE602E617F
:1015A0002E606E60066026700020C0437860617017
:1015B00066602675606A0069010004D08047F1BD4D
:1015C000194800F08CFAF1BD90010A0080B502289C
:1015D00005D805480178481E8041C00F02BD134858
:1015E00000F07DFA002002BDB00C00200011004088
:1015F0009F010A000012004004130040041500403F
:1016000018100040A4010A00A9010A00D6010A002E
:1016100000F50140AD020A00B6020A00B7020A0056
:1016200000E200E0B8020A00E7020A00F9020A003C
:1016300000100040101100400310000001000000E5
:1016400000100040000000000B0204000000000039
:101650000410004000000000070803010000000023
:10166000F8B500F03DFB002400256C4F280000F089
:1016700003FA2E000836300000F0FEF900212800A1
:1016800000F006FA0021300000F002FA7C556D1CD3
:10169000082DEBD3A848047044608460C4600461E2
:1016A0004461902284549122845458228454C46703
:1016B000012192300170F1BDB1480078704770B5DA
:1016C0009D4D2878002802D09C4800F008FA2C0094
:1016D000903400262078002823D02869686000F024
:1016E000A6FBA860002802D1A64800F0F8F9A86877
:1016F0004078C107C90F9220285C012242400A436A
:101700000BD0686800F082F903280AD200F094F93F
:10171000E860002805D0012001E0EE60022028707A
:1017200002E02878002817D0A868002802D1A14834
:1017300000F0D5F92869686080002818C17E491C2E
:10174000C176A8684278F9231340490006220A406E
:101750001A4342702670012070BDF8B504000F00D6
:10176000754D2878012804D0022802D0924800F054
:10177000B6F90026002C1BD02878012802D08F480B
:1017800000F0ADF9E868002802D1AA4800F0A7F9F6
:10179000E8680078002801D100240AE0686800F0B9
:1017A00057F9002802D1A94800F099F9022400E075
:1017B0000424002F08D0686800F086F9A9688842E0
:1017C00002D0B24800F08BF92E7000F0B9F820007A
:1017D000F2BDB24840687047B04880687047AF4873
:1017E000C068704738B5544C2078002802D0AC4807
:1017F00000F075F900F020F905000CD0FF202870EA
:101800006878062101436970FF222021A81C00F09E
:1018100095FB03202070280032BD0000AC0D002095
:10182000FFB583B003240027002500264248C06F7F
:10183000002802D19B4800F052F93F480078032865
:1018400002D0994800F04BF93B48C06F4078C1077F
:10185000C90F964A1278012353400B4300D001264A
:101860006946097B002901D1042458E00599090241
:10187000090A01914007800F01A9C8702E480499F8
:10188000890040180290806B0C990F600D990F60D1
:101890008749049A89180091019981422DD00498B2
:1018A00000F0D6F805002E40002D26D001980299B0
:1018B00088636846007E05421ED0009800780028A4
:1018C0001AD0049800F0CBFA002802D1794800F031
:1018D00006F9049800F0F8F80C9908600C990029B2
:1018E00003D0002804D1744800E0744800F0F7F8F1
:1018F00000990F70022400E00124002E0AD0049801
:1019000000F095FA002801D16D4804E00121009A09
:10191000117000E000200D990860002D05D10648E7
:10192000C06F00F01AFA0448C7670348077000F058
:1019300007F8200007B0F0BD380B0020C3000C00F2
:1019400070B5564D2878002819D12C009034207895
:10195000002814D10826686900F081FA002803D015
:1019600001202070686928616869401C082800D13E
:10197000002068612078002801D1761EEBD170BD6F
:10198000C80B0020C9000C0038B50400434D90205E
:10199000285C002804D02869A04201D1FFF7D0FFBD
:1019A00000202919803108704149085531BD3B4854
:1019B00000787047E7000C00FC000C0002010C00EE
:1019C00070B506000C00002500F055FA002808D07C
:1019D0003100200000F0E3F9002802D0FFF7B0FF4B
:1019E0000125280070BD80B500F039FA02BD80B530
:1019F000083000F01CFA02BD80B5083000F0F8F99C
:101A000002BD80B5083000F039FA01BD80B508305C
:101A100000F025FA02BD80B500F088F902BD80B55E
:101A200000F09BF901BD80B500F025FA02BD1F4909
:101A30000870704703010C0010B5184CE06F0028C7
:101A400002D100F073F9E067E06F10BD0E010C00E9
:101A500038B50400114DE86F002802D1194800F094
:101A60003EF808342100E86F00F099F9002802D010
:101A70000020E867012032BD81B00021009100996B
:101A8000064A80001018816101B070471E010C00E9
:101A9000024A10188030017070470000380B002097
:101AA0003B010C005B010C005C010C00CA0B002028
:101AB000AC0D002091010C0096010C009A010C0065
:101AC000900B00206F020C0038B5040000F090F974
:101AD000050002D02000FFF757FF280032BD80B577
:101AE00000F077FC01BDFEE780F31088704710B569
:101AF000040002D13548FFF7F2FF354804600021A9
:101B0000C1678022815084300160500331490860F0
:101B100010BD70B505002E4E3068002802D12E4849
:101B2000FFF7DDFF3400843420680A2802D32B48F5
:101B3000FFF7D5FFF06F0C2148433018001D0ECD84
:101B40000EC02068401C2060F06F401CF067F06FF2
:101B50000A2801D30020F067802040032049086054
:101B600070BD0A201F490968401AC0B27047F0B51D
:101B700087B0174C25008035260084361BE0296885
:101B800003A80C2251436118091D8CC98CC06846FA
:101B90008CC03068401E30602868401C286028686F
:101BA0000A2801D3002028600020FFF79DFF684627
:101BB00007C8236898470120FFF796FF3068002880
:101BC000DDD1FFF791FF07B0F0BD000029000B0049
:101BD000CC0B002000E100E034000B0035000B00CE
:101BE00000E200E0500C0020104988704870087036
:101BF000704710B50400022C02DB0D48FFF76FFFA1
:101C00000A48447010BD094800787047074840787A
:101C1000704780B50548017881704178017089006E
:101C200040184068804701BD0000000030000020DF
:101C30002A000D0010B5040002D12448FFF74FFF21
:101C40002348846000210160416010BD10B5204828
:101C50004168491C026883681C68A14205D30021C1
:101C6000521C5B689A4200D300224160026010BDA2
:101C700010B5174C2068A1684968884202D31548FE
:101C8000FFF72DFFA06880682168405C10BD38B563
:101C900004000F4DA8684068844202D30E48FFF745
:101CA0001EFF2C6031BD0A480068704738B504003B
:101CB000074DA8680068844202D30848FFF70FFF69
:101CC0006C6031BD02484068704700002A00010086
:101CD000900D0020B2000100B9000100C500010014
:101CE000F0B500228649002453009B18CB185C7085
:101CF0009C701C70521C102AF6D30022DE26222370
:101D00005343CC184C3495004D196C6300240D00DE
:101D100030352F001C37FF183E55641C222CF6D39B
:101D2000521C062AEBD306202860F0BD10B5002413
:101D30007348016B00290ED08A008218146B714B16
:101D40001363491E0163200000F0B8F8002802D197
:101D50006D48FFF7C4FE200010BD38B50400684D83
:101D6000286B062802D36948FFF7B9FE200000F06F
:101D7000A5F8002802D16648FFF7B1FE286B800065
:101D80002818406B5F49884202D06248FFF7A7FEDF
:101D9000286B810069184C63401C286331BD70B505
:101DA00005000E00102E02D35B48FFF798FE2800B6
:101DB00000F084F8002802D15848FFF790FE504800
:101DC000710089194418207803280FDA54480C212F
:101DD0004E4380196178890045500321601C00F052
:101DE00064F82078401C2070012070BD002070BD78
:101DF00070B506000025102E02D34A48FFF76FFE8B
:101E00003F48710089194418207800280DD04448B3
:101E10000C214E438019A178890045580321A01C4C
:101E200000F043F82078401E2070280070BD10B5E7
:101E30000400102C02D33C48FFF751FE30486100EB
:101E4000091940180178002907D035490C2254435C
:101E5000091980788000085810BD002010BD10B509
:101E60000400102C02D33148FFF739FE24486100EA
:101E70000919405C10BD2248006B704738B504005A
:101E8000102C0CD32A48FFF72AFE08E01D48854293
:101E900002D12848FFF723FE2800FFF75EFF20004D
:101EA000FFF7A6FF0500F1D131BD0278521C027088
:101EB00002788A4201D300210170704710B50021D9
:101EC00000E0491C0E4BC9B21C6BA14208D28C0029
:101ED0001B195B6B9842F4D11748FFF700FE0CE02A
:101EE000002122224A439A184C32824201D1012019
:101EF00010BD491CC9B20629F3DB002010BD00004B
:101F000060090020ADDEADDE7D000300850003002A
:101F100086000300880003008F0003009000030088
:101F2000780A0020A6000300B7000300C8000300E1
:101F3000D7000300DB000300F60003001206130ABB
:101F40001A43130C1A4300BF094205D0830705D07A
:101F50000270401C491EF9D170470000130030B4D4
:101F600014001500103902D310393CC0FCD24907C7
:101F700000D30CC000D504C0890002D30280801CAD
:101F8000002900D5027030BC704700000022E5E750
:101F9000F8B505000020874C002121706061201DEC
:101FA000002200230EC08448FEF727F92061002894
:101FB00030D0A16920001C3000F0D8F86946887044
:101FC000280000F0C1F8694648700420FEF7CAFAFC
:101FD000002000F050F969460870012000F024F953
:101FE0000700022000F004F90500002000F05AF973
:101FF00006000120FEF73EFB684680786946497876
:10200000014068460078084007403D40354201D015
:102010000120F2BD012020700020F2BD80B565488E
:102020000169002903D102210170002002BDFEF7E1
:102030007AF9012002BD80B5FEF7AAF9002802D185
:10204000FEF793F901BDC046C04601BDF2B50500DB
:102050001600584C082D01D3042031E0002901D18D
:1020600003202DE0212E01D3062029E0FEF708FAF7
:10207000032801D3092023E02800FEF705FA0328EE
:1020800001D30A201CE0FEF703FA022801D208203F
:1020900016E0FEF7A9F907003E70787801210143A8
:1020A000797032000099B81C00F0A0F93900E8B24C
:1020B000FEF7ADF9002806D15948FFF710FD0F20B3
:1020C00020700020F2BD0120F2BDF8B504000D0023
:1020D0001700384EFEF7D8F9002801D10B2022E076
:1020E000002D01D103201EE02000FEF7C5F939685C
:1020F0000078814201D2062015E02000FEF7AEF9FB
:1021000004000CD0801C0AD022783A60A11C280060
:1021100000F06CF92000FEF76EF90120F2BD414895
:10212000FFF7DDFC0F2030700020F2BD80B50828DD
:1021300000D304E0C0B2FEF7B1F9012002BD0420D3
:102140001C490870002002BD80B5002803D0022879
:1021500008D005D308E00120FEF722F9012002BDD6
:102160000220F9E70020F7E70520E9E710B5114C58
:102170002269527E002A01D0022008E0112901D2F2
:10218000002901D1072002E0002803D1032020709C
:10219000002010BDA1610A46010020001C3000F0A3
:1021A00025F9A1691C342000FEF7C6F9012010BDF5
:1021B0000000000004000020D922000080B50B4977
:1021C0000A69527E002A01D00220BAE7FEF76FF9B1
:1021D000012002BD80B505490A69527E002A01D05E
:1021E0000220AEE7FEF76BF9012002BD04000020DB
:1021F00080B501000220374A13695B7E002B0CD1A9
:10220000002903D0022905D006D20020FEF707FAE4
:10221000012002BD0120F9E70E201070002002BD50
:10222000DD0005000501050080B501000020294AF8
:1022300013695B7E002B01D0022019E0062916D815
:1022400001A35B5C9F4400BF080A12161A1E2200FD
:102250000420FEF7AFF9012002BDFC20F9E7F820C9
:10226000F7E7F420F5E7F020F3E7EC20F1E70E20A4
:102270001070002002BD80B501000020574A13698C
:102280005B7E002B01D0022009E0002902D0012949
:1022900004D10120FEF7F9F9012002BD0E201070D3
:1022A000002002BD80B5010000204C4A13695B7E0E
:1022B000002B01D0022009E0002902D0012904D11D
:1022C0000120FEF7E8F9012002BD0E201070002069
:1022D00002BD00000400002077B583B001A80021F2
:1022E000002206C06846016003A84478049D3B486C
:1022F00001AE6946097B052966D801A2525C974464
:1023000004366AA8A29C03A8C078307003A800898C
:10231000708003A84089B08003A802214056414242
:10232000F1802800FEF767F801A803C80A00010041
:102330002000C046C0464AE00069407E002802D125
:102340002748FFF7CCFB2800FEF755F80020307037
:1023500003A80089708003A84089B08001A803C841
:102360000A0001002000C046C04630E0684603A9CC
:10237000C978017003A9022289564A424280007836
:10238000002807D0002D02D11648FFF7A8FB28002F
:10239000FEF731F80099200000F07FF917E0C04601
:1023A000C04614E0C046C04611E08168491C816007
:1023B000017900290BD0C168002902D1FFF73BFE4B
:1023C00005E0491EC16002E00748FFF788FB06B040
:1023D00070BD02490F220A70486170470400002056
:1023E000B5030500C3030500E3030500124207D04F
:1023F0008B0706D00B78491C0370401C521EF7D87F
:102400007047830706D00B78491C0370401C521E8E
:10241000F9D1704770B4103A03D378C9103A78C034
:10242000FBD2530701D318C918C001D508C908C089
:10243000D20704D30B880380891C801C002A01D595
:102440000B78037070BC7047401E00BF00BF00BF18
:1024500000BF00BF00BF00BF00BF00BF00BF00BF84
:1024600000BFF1D1704780B50178022901D0012960
:1024700002D1406800F04AF901BD0000F0B587B014
:1024800004A800BF9EA11CC91CC0964C20001C3093
:102490000090012001902000203002908020400018
:1024A00003900323904A694604A800F08DF90028A0
:1024B00001D000F02BF90120FFF76AFD8B48FFF7F0
:1024C0007DFE8B48FFF786FE55202074894F03223E
:1024D00039000020FFF7BAFD032239000120FFF781
:1024E000B5FDFFF79BFD844E0025207B002852D0D0
:1024F00025733978CB06D80F40418A06D30F9A004E
:1025000002434806C30FD8001043CA091201024310
:1025100022707878C2095241CB075B0F13439C4667
:102520008A07D30FDA0063461A434907CB0F190114
:102530001143A1704307D90F49410207D30F9A00F5
:102540000A43C106CB0FD90011438206D30F1A01EB
:102550000A432271B9788A06D30F5B009C464A066B
:10256000D30F9A0063461A43CB09DB001343C2071B
:10257000D00E1843A0718807C20F50004A07D30F2E
:102580009A0002430807C30FD8001043C906CA0FB8
:10259000110101432172607B002853D065733078AC
:1025A000C1094206D30F5A000A438106CB0F990096
:1025B0001143C206D30FDA000A430107CB0F1901FA
:1025C000114361707178820894468207D30F624686
:1025D00052085B41C207500F1843CA09D200024398
:1025E0004806C30F18011043E0704A09CB06D80F04
:1025F000520840410A07D30F9A0002434807C30F0D
:10260000D80010438A07D30F1A0102436271B078D1
:10261000C209490852414106CB0F99001143820675
:10262000D30FDA000A43E27102090307D90F5208F7
:1026300049414207D30F9A000A438007C10FC800DF
:102640001043607220000E3000F005F9002809D117
:10265000A07B732806D10A21200000F0F8F9E020C1
:1026600000F010F90A20FFF7EFFE6169491CA0692C
:10267000401CA061214A914205D300212170A17024
:102680002171A17121726161904205D36570E5707D
:102690006571E5716572A56127E738B505002020F1
:1026A000009001200F4C0021002D05D120736161A5
:1026B0006A461049002005E0012D05D16073A16133
:1026C0006A460D49FFF701FD2800FFF72FFD552051
:1026D00020740322103421002800FFF7B7FC31BD1D
:1026E00000000000400800206724000004030201ED
:1026F00008070605000D0020200D0020A18601001E
:1027000019181617000000000000001010B584B062
:10271000040068460C21FFF739FC02946A46002148
:10272000014800F035FB1FBD014000001CB50178D9
:10273000634C012922D140680178200000F068FB39
:10274000002804D001216A461170019007E0A068BA
:10275000E168081A012805D100206946087068461A
:10276000216A8847A068A188E268101A81422AD3AA
:1027700001212534200000F021FA13BD022909D1DE
:102780006A461170C068019001212000253000F0D8
:1027900015FA15E0002916D121002431200010304F
:1027A00000F043FB002804D101212000243000F078
:1027B0004EF9A069E169081A05D10320694608703D
:1027C0006846216A884713BDF0B589B004000E0041
:1027D0001F003B4D2A62002E01D1072039E07268AC
:1027E00092B23168280000F0FEFA002831D1F26878
:1027F00092B2B1682800103000F0F5FA002828D114
:10280000684600BF30A12022FFF704FEA0680690B2
:1028100068462279002A00D0012202750777617983
:10282000002900D00E214175E0780290A078039035
:1028300020780190607800902249684600F0C8F83E
:10284000002806D100F0E0F901212535280000F02C
:10285000B5F909B0F0BD38B50400194DA868E968AC
:10286000081AA988884208D101212800253000F0E3
:10287000A5F9002801D0052032BD2100280000F074
:10288000D4FA32BD38B50E4C01002000103000F0F3
:10289000BFFA050011D100F01AF900280DD121006E
:1028A00024312000103000F0C0FA002805D10121A9
:1028B0002434200000F0CBF80500280032BD0000D1
:1028C000D80C00202D270000090000000B0000009C
:1028D0000A000000080000000000000000000000E6
:1028E00000E0D701030000004058002804E0C122A6
:1028F000920080580140080000D00120C0B270470B
:10290000844B01E0A123DB00C018016082607047A6
:1029100052000A4399001143009A12020A43019996
:1029200009041143A24A80001150704700B583B0DA
:10293000002101910091002301220121FFF7E8FF0E
:1029400007BD00B583B00022019200920B00002168
:10295000FFF7DEFF07BDF8B5040001256E4F2068C4
:102960000121814039602068FFF7E0FF00216068A5
:10297000FFF7E7FF6948A1690160617D227D0A4395
:102980008264A04E626821683000FFF7B9FF207DA5
:1029900001280ED10021A068FFF7D3FFE068854031
:1029A0003D60E068FFF7C2FFA268E1683000FFF712
:1029B000A9FFF1BD80B57F4900220A608A627E4985
:1029C000974A11600100022000F03AFA01BD0000B0
:1029D00070B505000C00914EF07E002801D0082053
:1029E00070BD002D01D100BF0AA52800FFF7B3FF7D
:1029F000746028693060002C02D0287FFFF7DAFF6E
:102A000004208D49086000203076F0820121F176A3
:102A1000B07670BD090000000B0000000A00000045
:102A200008000000000000000000000000E0D701E6
:102A30000300000000205F49086078488168828AAE
:102A4000895C828A521C8282844801607047F8B592
:102A500005000E0000F03BF8002801D01120F2BD67
:102A60006E4CA675A560A082009052490860654F23
:102A70000120B860FFF7DEFF6068002825D1BD0D9A
:102A80008E2676000DE031003800FFF72DFF00287C
:102A900002D1A08AA842F6D1A08AA84201D0FFF7AD
:102AA000C9FFA08AA17D8842EDD3A08AA84202D1A5
:102AB0000F20009007E031003800FFF715FF0028D5
:102AC000F9D00120F8600020A0750098F2BD5348AD
:102AD000807D002800D00120704761480021C1613D
:102AE00001600120A2490860704710B55D495C4A49
:102AF0000023A048C47D002C136001D1086810BDDC
:102B0000427E0968C3689954417E491C417610BDD4
:102B1000000000000C0500000805005024250040BE
:102B2000F8B53E48807E024301D1FFF7D6FF3B480F
:102B30004068002836D190490860324F9221490000
:102B40003800FFF7D1FE0400842149003800FFF768
:102B5000CBFE0500A22149003800FFF7C5FE0600A4
:102B6000284321000143E9D03100214307D1FFF779
:102B7000BCFF2A48407E2949C97D8842DED3002017
:102B80002649C875002C01D00320F2BD002E01D0CB
:102B90000F20F2BD0120897E002901D0386005E0B8
:102BA000786003E0812080001D4908600020F2BDAC
:102BB000000700501C21004080000200F1B50020F9
:102BC0000022164B5C68164D8126B600270000D007
:102BD0006E60DF7D002F0CD0187E002804D0002C02
:102BE00000D02E601120F2BD0122009818611976E4
:102BF00004E0D975009CDC60587618760098FFF7E1
:102C00008FFFF2BD0020004010B55A4CA07E002876
:102C100003D1FFF762FF0120A07610BD600D0020F8
:102C20000423004000B585B06A460123137010727A
:102C30000191504A0CE000000025004000B585B02D
:102C400000216A46117010724A4A9068019091758D
:102C5000116868465268904705B000BD1C250040C9
:102C60000821004018250040F0B585B0414C812670
:102C7000B60000253E4F790D3800FFF738FE0028DA
:102C800021D0922149003800FFF72EFE00281AD0EB
:102C90003C4885603A480660A07E002801D10120AA
:102CA000786068460221017034490A680A6003921C
:102CB000E17D0172E0680190E5752576216868463E
:102CC0006268904728E004213800FFF710FE0028D2
:102CD00022D0842149003800FFF706FE00281BD0CF
:102CE000FFF703FFE07D617E884215D1E168227E17
:102CF000002A06D0607EE2752269E260257665765C
:102D000008E0A07E002801D1012078601C48066000
:102D1000E575607EFFF786FF8E2149003800FFF7DA
:102D2000E3FD00280CD0A07DA18A814202D2FFF7EA
:102D300081FE05E013490D60002801D0FFF77EFFFA
:102D4000A22149003800FFF7CFFD00280ED00D4822
:102D50008562A07E002801D001203860E07D002837
:102D600004D0E575E168607EFFF75CFF05B0F0BD5B
:102D700000200040600D00204421004080240040DD
:102D8000082300401C21004080B5FFF76DFF01BD06
:102D9000BFF34F8F034804490860BFF34F8F00BF54
:102DA000FDE700BF0400FA050CED00E010B5026875
:102DB000C36884882340D154C168491CC16010BDD8
:102DC00010B503688468611880880140585C1070F1
:102DD00010BD10B504000A000021FFF7F1FFA06844
:102DE000401CA06010BD10B5002901D10E2010BDFF
:102DF000002A03D0531E14001C4001D0092010BD2E
:102E00000160511E818000218160C160002010BDE1
:102E100010B58268C36884889A1A944203D3FFF776
:102E2000C5FF002010BD042010BD80B58268C368B6
:102E30009A1A03D0FFF7CDFF002002BD052002BD86
:102E400010B58207D30EFF249C40E2438907090E88
:102E50009940030005D50B4C03071B0F083B9B084B
:102E600001E0094C83089B00E3181C6822401143D1
:102E700019600121C006C00E814004480160044869
:102E8000016010BD1CED00E000E400E080E200E025
:102E900000E100E010B5F0200F2228490B78012B4B
:102EA0001BD14B68134018D18B68034202D1CC6808
:102EB00004400CD0F0241C40102C02D1CC680440FB
:102EC00005D00340302B08D1CB68034005D11C4B03
:102ED0001C4C2360E30B1C4C23600B78012B0CD1A2
:102EE0004B68134009D18B680340402B05D1CB6858
:102EF000034002D10123154C23600B78012B1BD119
:102F00004B681A4018D18A68F0231340A02B02D1D5
:102F1000CB68034005D00240D02A0DD1C9680840D3
:102F20000AD10B480168012904D00A4901600168EF
:102F30000129FCD1C021416110BD0000E00F00F06B
:102F4000DFFF07C004050040186C00400806004081
:102F500000EC064075930000F5B583B08024640250
:102F6000A0256D000026880001900398C1218900EA
:102F700040180090214F15E020400FD00398405991
:102F800000280BD000984464009844600020039906
:102F90004851F0B2391D019A8958884764002D1DA7
:102FA0002DB2761C0498864200980068E4D30199FB
:102FB0007C180399802252008D18C00707D5286815
:102FC000002804D000202860042061688847009809
:102FD0000068800707D56868002804D00020686072
:102FE00005206168884705B0F0BD80B50422002146
:102FF0000348FFF7B1FF01BD000000009C0D002059
:1030000000B000408021C9050858002800D00120E8
:10301000C0B2704738B505000C0004E008682860AD
:1030200020004968884729680029F7D131BDF8B5E3
:10303000104C0125114F00262802FFF7E3FF00285E
:1030400007D03E600C48056065720021201DFFF727
:10305000E1FF82204000FFF7D5FF002809D07E6005
:10306000022005490860A572012110342000FFF7F5
:10307000D1FFF1BD7C0D002008030040000100409D
:1030800070B40121002313E00468001D0C4202D03B
:103090004D466D1E64192360241D121F042AFAD2A6
:1030A0002500960701D52380AD1C0A4000D02B7067
:1030B0000268001D002AE7D170BC704730B5016876
:1030C0004118446862088A188368E40701D54C46B1
:1030D0001B190C30914200D130BD0C7864B2491CF0
:1030E0000D78491C1D705B1C002C02D5641CF9D1A5
:1030F000F0E7641EF4D5EDE70321064802680A43B1
:103100000260054802680A43026004488047044898
:10311000004700002405004054050040952E0000A3
:10312000A931000010B5074979441831064C7C4498
:10313000163404E0081D0A68891888470100A14276
:10314000F8D110BD080000002400000035FFFFFF8B
:1031500074050000400800200000000061FFFFFF30
:103160008A00000036000000000000200120C04658
:10317000002801D0FFF7D6FF0020C046C046FFF769
:103180007DF900F000F880B500F002F801BDFEE71F
:103190000746384600F002F8FBE7FEE72021090366
:1031A00026311820ABBEF9E7C046C046C046C0462F
:1031B000FFF7DCFFFEE7FEE7FEE7FEE7FEE7FEE7E0
:1031C000FEE7FEE7FEE7FEE7FEE7FEE7FEE7FEE7D7
:1031D000FEE7FEE7FEE7FEE7FEE7FEE7FEE7FEE7C7
:1031E000FEE7FEE7FEE7FEE7FEE7020024F4E70065
:1031F0000005FD000404192A3F4DF10007C1060037
:0532000000E1080000E0
:04000005000031A91D
:00000001FF
